:020000040000fa
:080000000802040000000000ea
:020000040000fa
:10041000ef1d22000eff22000e01880000000000e8
:100420000c00070000cb2700010020000f00070090
:10043000000020000000e000020032000000020086
:1004400000000000c46e0200000000000040da005e
:100450000000fe0040ec21000000e000020032003d
:10046000002020009001880000000600a102880002
:10047000800078000000eb001a003700e2804000a6
:1004800054a0b4009101ba00e280400054a0b4002e
:100490009102ba00e280400054a0b4000002eb00d8
:1004a000472bde00f507b200a6018800602ce100b2
:1004b00008003a000049eb000201e80002003900a0
:1004c0003420ec0002f0a0008301e900f9ff3e00b7
:1004d000040037006128e100010032000082eb00d7
:1004e000040007001101ba000200e000e3ff3a0037
:1004f0000000060004d0a300e20f49001c003900f0
:10050000810278003549ba000201e8000200390092
:100510003420ec0002f0a0008301e9000f0032005b
:100520002549ba000201e800020039003420ec003d
:1005300002f0a0008301e900080032000400e0009e
:100540000600320015c9ba000201e80002003900b5
:100550003420ec0002f0a0008301e9008180e80073
:1005600054a0b4000300e000e2ff3a0000000600df
:100570009102ba00055978008301e900f7ff3200c3
:10058000c82ade00055978008301e900f3ff320034
:100590000400e000f1ff320011d9ba00eeff37008d
:1005a000000000000000000000000000000000004b
:1005b000000000000000000000000000000000003b
:1005c000000000000000000000000000000000002b
:1005d000000000000000000000000000000000001b
:1005e00000000000000000000040da000000fe00f3
:1005f000889fbe008a9fbe00010578000100e000d0
:100600000400350008003c000000e000200032003b
:100610000500370060001000e080180002003b0079
:1006200001f02c001a0037000004be006011b80071
:100630006b0920000982cf00020039000882cf0038
:100640000441b000694252000e00320008003b0035
:1006500082817100610164008904d1000884d300a3
:100660008b05e8000442e800f9ff3a000500370076
:100670000804440089844c008b05e9000442e90029
:10068000fbff3a00f60007000af0a70001f0a00007
:100690004f05be004f04be0000000600889fbe004c
:1006a0008a9fbe008c1f7800130107001a013300d7
:1006b00003866c006450e100240032006420e100f5
:1006c000270032006150e100220032006120e10089
:1006d000210032008b854200eb07b1000134b800e5
:1006e000003ab8000804420089844a00013ab80080
:1006f0000030b8008880400009014a00040033003f
:100700000000400081804800020149008b05e9009b
:10071000c909dd00830170000100320013002000d0
:10072000c814de004814dd004709de001200b200e4
:10073000c808de0008847000c900070001f0a100ad
:100740000cf0a70001f0a000fc0037006120e100e0
:10075000fe0032000801be000200be00f7ff3700b5
:100760006150e100fcff3a00f800370003f0a200fe
:10077000889fbe008a9fbe008c1f7800de000700a5
:10078000e50033006450e1004f0032006420e100d6
:100790005200320003826c0007003b000905d000c4
:1007a0000306d000820f54000c065d0002003900e1
:1007b0000200320089017800030678008582550026
:1007c00004003d000003fd008103fd008502ea00f6
:1007d0008b854200840f720002003b006000100015
:1007e000e08018006011b8000005eb007a28e100f5
:1007f0000a00390006007800c75ddd00f707b20087
:10080000878075002d003700828171000a01780011
:10081000610560008180d1000080d3008502e9007d
:10082000f9ff3b00060440008784480002003b00bb
:1008300060041400e0841c000988a3000700320053
:100840008a81710082817100610164008904d10094
:100850000884d3008b05e800170037000978a3004f
:1008600013003a000b00e000130034008b05e90090
:100870000804440089844c000a4474000978a300e9
:100880000d003a000b00e000070034008b05e90082
:100890000804440089844c0001003a000b00200049
:1008a0000978a300f7ff32000001eb0002003700d7
:1008b000828171000a017800690007000cf0a7002e
:1008c00001f0a0009d0037006420e10002003a0022
:1008d000838f6c009d0033000801be000200be0043
:1008e000960037000001be009b0007000470a700bf
:1008f00003f0a10003f8a30013003a006509b1005a
:1009000010003200090035006928e10002003500be
:100910000100280000000500000040008180480020
:100920008502e900fcff3a0000000600f88f420053
:10093000050035008100d1000080d3008502e80069
:10094000fcff3a00000006008000eb0000000500fc
:10095000f4ff2f0095003700889fbe008a9fbe00dd
:100960008c1f7800640007006b00330003866c0066
:100970006450e1002e0032006420e10033003200b8
:100980006150e1002f0032006120e10031003200af
:1009900085855500eb07b000090020000804200001
:1009a000050037000804440089844c000a00310027
:1009b0000603430087834b000001530081815b00e5
:1009c000f8ff33000203be000800a0000804440042
:1009d00089844c00f6ff3900c639dd0083017300bd
:1009e00001003200130020008904d1000884d300e4
:1009f0000998a300050032000800a7000300a0002a
:100a00008904d1000884d3008b05e8008904d10053
:100a10000884d3000001eb000281d200100007001f
:100a200001f0a1000cf0a70001f0a0004300370086
:100a30006420e100450032000801be000200be0053
:100a4000f7ff37006120e100400032006000b8008d
:100a5000f3ff37000000200001f82700f0ff370007
:100a600081002000618055000b003d000b0020003c
:100a700061fe2f000100e1001d0034008281710041
:100a8000610164008904d1000884d3000000e800fb
:100a9000faff3a007100200061006400030070005a
:100aa000020060000900320061044400e0844c0050
:100ab0000988a500050032008b05e8006808e10000
:100ac00002003a008904d1000884d300f20f20000c
:100ad0000258e10005003d00c75ddd00f907b200e6
:100ae0008980750008007800000006000bf82700d8
:100af0008b007800000005000004be00160007000f
:100b00000003be000405be000200be001200070084
:100b1000844f7500000006000200be006450e10032
:100b2000050036006420e100020036000968a300d9
:100b300001003a000800be000160a0004f067800e6
:100b40004f05be004f04be0000000600f0ff2f005e
:100b5000f1ff2700f9ff3700c70ade00f107b200f6
:100b6000f50fb20008003200e1cf4200020032006f
:100b70000170a00024000500810f70000100320008
:100b80000408050044000500810f700002003a00cf
:100b9000140005008502e9000000400081c0480003
:100ba000fcff3b000170a00024000500889fbe00f0
:100bb0008a9fbe00841f7800cfff07004f00780097
:100bc00011003300f0ff2f00838f6c0006003b0004
:100bd000040565000a00a7000800370009f0a60018
:100be0001000200008003700820f5400838f5c0043
:100bf000030039001000200001003e00000020002a
:100c000009f0a7000000ea004f05be004f04be0037
:080c10000000e00000000600f6
:020000040000fa
:020000040001f9
:045fe0008900000034
:020000040000fa
:020000040001f9
:045fe400f0000000c9
:020000040000fa
:020000040001f9
:045fe800f8000000bd
:020000040000fa
:020000040001f9
:045fec00c3000000ee
:020000040000fa
:020000040001f9
:045ff000810000002c
:020000040000fa
:020000040001f9
:045ff400fdff0000ad
:020000040000fa
:10000800f4020000f4020000f4020000f402000010
:10001800f4020000f4020000f4020000f402000000
:10002800f4020000f4020000f4020000244c000076
:10003800f4020000f4020000f40200005c7a000000
:100048001c680000f4020000f4020000c65600001c
:1000580022580000f4020000f4020000f40200003c
:10006800f4020000f4020000f4020000f4020000b0
:10007800f4020000f4020000f4020000f4020000a0
:10008800f4020000f4020000f4020000ce65000053
:10009800e4750000f402000070570000ba58000030
:1000a800f4020000f4020000f4020000f402000070
:1000b800f4020000f4020000f4020000f402000060
:1000c800f4020000f4020000f4020000f402000050
:1000d800f4020000f4020000f4020000f402000040
:1000e800f4020000f4020000f4020000f402000030
:1000f800f4020000f4020000f4020000f402000020
:10010800f4020000f4020000f4020000f40200000f
:10011800f4020000f4020000f4020000f4020000ff
:10012800f4020000f4020000f4020000f4020000ef
:10013800f4020000f4020000f4020000f4020000df
:10014800f4020000f4020000f4020000f4020000cf
:10015800f4020000f4020000f4020000f4020000bf
:10016800f4020000f4020000f4020000f4020000af
:10017800f4020000f4020000f4020000f40200009f
:10018800f4020000f4020000f4020000f40200008f
:10019800f4020000f4020000f4020000f40200007f
:1001a800f4020000f4020000f4020000f40200006f
:1001b800f4020000f4020000f4020000f40200005f
:1001c800f4020000f4020000f4020000f40200004f
:1001d800f4020000f4020000f4020000f40200003f
:1001e800f4020000f4020000f4020000f40200002f
:1001f800f4020000f4020000f4020000f40200001f
:10020800f4020000f4020000f4020000f40200000e
:10021800f4020000f4020000f4020000f4020000fe
:10022800f4020000f4020000f4020000f4020000ee
:10023800f4020000f4020000f4020000f4020000de
:10024800f4020000f4020000f4020000f4020000ce
:10025800f4020000f4020000f4020000f4020000be
:10026800f4020000f4020000f4020000f4020000ae
:0c027800f4020000f4020000f402000098
:020000040000fa
:080408000802000013200000AF
:020000040000fa
:0804000066770000880000008F
:020000040000fa
:100c1800030300000708000007070000080400009d
:100c2800060600000607000005060000030700008e
:100c38000707000007070000070700000707000074
:100c48000707000003030000050600000506000072
:100c58000706000006060000070600000607000059
:100c68000705000007070000080800000706000045
:100c78000607000008070000070700000708000033
:100c88000807000007060000080600000803000027
:100c9800050600000605000006070000070700001b
:100ca800070500000606000003080000060600000d
:100cb80006060000060600000606000007080000f9
:100cc80008070000070700000506000007070000e6
:100cd80006080000080800000808000008080000ce
:100ce80008080000080800000808000008080000bc
:100cf80008070000070700000706000007070000b4
:100d080008080000080500000807000006080000a1
:100d18000307000008080000070700000607000096
:100d28000708000003060000080700000707000086
:100d38000708000007060000080800000805000072
:100d4800070700000608000008080000080800005f
:100d5800080800000808000008080000080800004b
:100d6800080800000808000008080000080800003b
:100d78000303000004060000060600000603000046
:100d88000404000006060000030500000206000037
:100d98000504000005050000050500000505000024
:100da800050500000203000004040000040500001b
:100db8000605000005050000050500000505000002
:100dc80005040000050500000506000006050000f2
:100dd80005050000050500000605000006060000e0
:100de80006060000060400000604000006050000d0
:100df80005050000050500000505000005050000c3
:100e080005030000050500000306000005050000b5
:100e180005050000050500000505000006060000a0
:100e28000605000006030000040400000606000092
:100e38000605000006080000080600000606000077
:100e4800060600000606000006060000060600006a
:100e58000605000005050000050500000506000060
:100e6800060600000604000006060000050600004d
:100e78000206000006060000060500000505000041
:100e88000606000002050000060600000506000030
:100e9800060600000505000006060000060400001e
:100ea800050500000506000006060000060600000d
:100eb80006060000060600000606000006060000fa
:100ec80006060000060600000606000006060000ea
:100ed800000000000000000000000000000000000a
:100ee800606000006060000000000000600000001a
:100ef8006c6c00006c0000000000000000000000a6
:100f0800363600007f3600007f36000036000000cd
:100f1800183e0000583c00001a7c00001800000031
:100f2800606600000c180000306600000600000033
:100f38003c6600006c3900006e6600003b00000053
:100f480070300000200000000000000000000000d9
:100f580018300000606000006030000018000000d9
:100f68006030000018180000183000006000000011
:100f78000010000054380000541000000000000069
:100f880000180000187e000018180000000000007b
:100f98000000000000000000703000004000000069
:100fa80000000000007c00007c0000000000000041
:100fb8000000000000000000006000006000000069
:100fc800000600000c18000030600000000000005f
:100fd8003c66000066660000666600003c00000093
:100fe8001838000078180000181800007e0000006b
:100ff8003c660000060c0000306000007e00000027
:101008007e0c0000180c0000066600003c00000082
:101018000c1c00003c6c00007e0c00000c00000062
:101028007e6000007c060000066600003c000000b0
:1010380018300000707c0000666600003c0000006c
:101048007e0c000018300000303000003000000036
:101058003c660000663c0000666600003c0000003c
:101068003c660000663e00000c18000030000000de
:1010780000600000600000006060000000000000e8
:1010880000600000600000006020000040000000d8
:101098000c18000030600000301800000c00000040
:1010a800000000007c0000007c0000000000000040
:1010b80060300000180c00001830000060000000cc
:1010c800386c00000c1800003000000030000000f0
:1010d8003c660000063600006e6600003e00000018
:1010e800386c00006c6c00007c6c00006c00000028
:1010f800786c00006c7800006c6c000078000000d0
:101108003c6c000060600000606c00003c00000067
:10111800786c000066660000666c000078000000cd
:101128007c60000060780000606000007c000000c7
:101138007c600000607800006060000060000000d3
:101148003c660000606e0000666600003e0000001d
:1011580066660000667e00006666000066000000a5
:101168007830000030300000303000007800000097
:101178001e0c00000c0c00000c6c00003800000075
:10118800666c000078700000786c00006600000053
:101198006060000060600000606000007e00000089
:1011a800637700007f6b00006b6300006300000042
:1011b800667600007e6e000066660000660000002d
:1011c800386c00006c6c00006c6c0000380000008b
:1011d800786c00006c78000060600000600000001f
:1011e8003c660000666200006a6400003a00000085
:1011f8007c660000667c00006c66000063000000ee
:1012080038640000603800000c4c00003800000012
:101218007e180000181800001818000018000000b8
:101228006666000066660000666600003c00000016
:101238006666000066660000663c00001800000054
:1012480063630000636b00006b6b000036000000f6
:10125800633600001c1c00001c3600006300000000
:1012680066660000662400001818000018000000d8
:101278007e0600000c180000306000007e000000b0
:101288003c30000030300000303000003c000000ee
:101298000814000022770000141c00000000000061
:1012a8003c0c00000c0c00000c0c00003c00000082
:1012b800001c000014770000221400000800000041
:1012c8003048000048300000000000000000000026
:1012d800603000001800000000000000000000005e
:1012e80000000000380c00007c6c00007c0000004e
:1012f80060600000786c00006c6c000078000000f2
:101308000000000038600000606000003800000045
:101318000c0c00003c6c00006c6c00003c000000f1
:10132800000000003c6600007e6000003c000000f9
:101338001c3200003078000030300000300000001f
:10134800000000003c6c00006c3c00000c38000001
:10135800606000006c7600006666000066000000b1
:1013680030000000703000003030000078000000cd
:101378000c0000000c0c00000c6c00006c38000025
:10138800606000006468000070680000640000008d
:1013980060600000606000006060000060000000a5
:1013a80000000000766b00006b6300006300000023
:1013b80000000000786c00006c6c00006c000000fd
:1013c80000000000386c00006c6c00003800000061
:1013d80000000000786c00006c780000606000007d
:1013e800000000003c6c00006c3c00000c0c00008d
:1013f800000000005c640000606000006000000005
:10140800000000007c6000007c0c00007c000000f4
:101418003030000078300000303000001c00000040
:10142800000000006c6c00006c7c000034000000c0
:101438000000000066660000663c0000180000001e
:1014480000000000636300006b6b000036000000c2
:1014580000000000633600001c3600006300000036
:1014680000000000666600003e060000061c000042
:10147800000000007e0c0000183000007e00000014
:101488000c18000018300000181800000c000000ac
:10149800181800001818000018180000180000009c
:1014a80030180000180c0000181800003000000068
:1014b800303800003c3e00003c380000300000009e
:1014c8000c1c00003c7c00003c1c00000c000000d0
:1014d8003c6600003c300000303c0000303e00001c
:1014e800ffff0000ffff0000ffff0000ffff0000fc
:1014f8000000000000010000024400002810000065
:10150800000000007f7700005d7700007f0000008a
:10151800000000007f410000414100007f00000002
:1015280038000000386c00007c6c00006c00000083
:101538007c0000007c600000786000007c000000f7
:101548007c0000007c600000786000007c000000e7
:10155800780000007830000030300000780000008b
:101568007c000000386c00006c6c00003800000043
:101578007e00000066660000666600003c00000011
:101588007c000000386c00006c6c00003600000025
:101598007e0000003c6600007e6000003c00000009
:1015a8007e0000003c6600007e6000003c000000f9
:1015b80078000000303000003030000030000000bb
:1015c8007c000000386c00006c6c000038000000e3
:1015d8007c0000006c6c00006c7c00003400000093
:1015e8007e60000060600000606000006000000035
:1015f800060e00001e360000666600007e00000031
:101608003c660000667e0000666600003c00000044
:10161800060e00001e360000666600006600000028
:101628007c7c000000380000007c00007c0000008a
:101638007e7e0000666600006666000066000000a8
:101648007e60000030180000306000007e0000005e
:10165800083e00006b6b00006b3e000008080000ad
:10166800636b00006b6b00003e0800000800000080
:101678001c2200006363000063360000770000004e
:10168800480000003030000030300000300000001a
:10169800220000006336000018180000180000003f
:1016a80008000000364c00004c4c000036000000da
:1016b800080000003c4000003c4000003c000000e6
:1016c800040000007e220000222200002203000005
:1016d8002000000060600000606000006000000002
:1016e8002400000066660000666600003c000000fa
:1016f800000000001b640000646400001b00000080
:1017080078660000667c0000636300007e6000006d
:10171800006600003c18000066660000663c000099
:101728007c60000060380000666600003c00000035
:10173800000000003c600000386000003c00000031
:101748007e0c000018300000606000003c0c0000b7
:10175800000000007c36000036060000060000008d
:101768001e330000031f0000333300001f00000079
:101778000000000030300000303000003000000071
:101788000000000064680000706800006400000049
:1017980000300000180c00001e3300003300000069
:1017a800000000006c6c00006c6c00007e400000c3
:1017b8007e0c0000180c0000180c0000040000004b
:1017c800000000007e3600003636000036000000bb
:1017d800000000003c600000603c000006180000ab
:1017e800000000003f6c0000666600003c0000003e
:1017f800000000007e30000030300000301800008b
:10180800000000006c6c00006c6c000038000000e8
:10181800000c00006b6b00006b1e00000808000045
:10182800000000006b6b00003e1c00000808000070
:101838000000000063630000636b000036000000d6
:101848004800000030300000303000003000000058
:101858002400000066660000666600003c00000088
:10186800080000003c660000666600003c000000be
:10187800080000006c6c00006c6c00003800000070
:101888000800000063630000636b0000360000007e
:101898000000000000000000000000000000000040
:1018a800040400000404000000000000040000001c
:1018b8000a0a00000a000000000000000000000002
:1018c8000a0a00001f0a00001f0a00000a000000a0
:1018d800040f0000140e0000051e000004000000a4
:1018e800181900000204000008130000030000009b
:1018f8000c12000014080000151200000d00000072
:101908000c040000080000000000000000000000b7
:10191800020400000808000008040000020000009b
:101928000804000002020000020400000800000091
:1019380000040000150e000015040000000000005f
:1019480000040000041f0000040400000000000060
:1019580000000000000000000c0400000800000067
:1019680000000000001f0000000000000000000050
:101978000000000000000000000c00000c00000047
:101988000001000002040000081000000000000030
:101998000e11000011110000111100000e000000ce
:1019a800040c000004040000040400000e00000001
:1019b8000e11000001020000040800001f000000d2
:1019c8001f02000004020000011100000e000000c8
:1019d800020600000a1200001f02000002000000b8
:1019e8001f100000101e0000011100000e00000072
:1019f80006080000101e0000111100000e00000073
:101a08001f01000002040000080800000800000090
:101a18000e110000110e0000111100000e00000050
:101a28000e110000110f0000010200000c00000060
:101a3800000c00000c0000000c0c0000000000006e
:101a4800000c00000c0000000c040000080000005e
:101a58000204000008100000080400000200000052
:101a6800000000001f0000001f0000000000000030
:101a78001008000004020000040800001000000024
:101a88000e11000001020000040000000400000024
:101a98000e110000010d0000151500000e000000d9
:101aa8000e110000111100001f11000011000000ac
:101ab8001e110000111e0000111100001e00000080
:101ac8000e11000010100000101100000e000000a0
:101ad8001c12000011110000111200001c0000006f
:101ae8001f100000101e0000101000001f00000052
:101af8001f100000101e0000101000001000000051
:101b08000e11000010170000111100000f00000056
:101b180011110000111f0000111100001100000038
:101b28000e04000004040000040400000e0000007d
:101b38000702000002020000021200000c00000070
:101b48001112000014180000141200001100000007
:101b58001010000010100000101000001f000000fe
:101b6800111b0000151500001111000011000000e4
:101b780011110000191500001311000011000000d8
:101b88000e11000011110000111100000e000000dc
:101b98001e110000111e00001010000010000000af
:101ba8000e11000011110000151200000d000000b8
:101bb8001e110000111e0000141200001100000088
:101bc8000f100000100e0000010100001e000000b0
:101bd8001f040000040400000404000004000000c6
:101be8001111000011110000111100000e00000079
:101bf8001111000011110000110a0000040000007a
:101c08001111000011150000151500000a00000050
:101c1800111100000a0400000a1100001100000060
:101c280011110000110a0000040400000400000063
:101c38001f01000002040000081000001f0000003f
:101c48000e08000008080000080800000e00000048
:101c5800040e000015040000040400000400000045
:101c68000e02000002020000020200000e00000046
:101c78000404000004040000150e00000400000025
:101c88000c120000120c0000000000000000000010
:101c9800080400000200000000000000000000002e
:101ca800000000000e0100000f1100000f000000ee
:101cb800101000001e110000111100001e0000008d
:101cc800000000000e100000101100000e000000bf
:101cd800010100000f110000111100000f000000a9
:101ce800000000000e1100001f1000000e00000090
:101cf80006090000081c0000080800000800000091
:101d0800000f0000111100000f0100000e0000007c
:101d18001010000016190000111100001100000039
:101d2800040000000c040000040400000e00000081
:101d38000200000006020000021200000c00000071
:101d480010100000111200001c1200001100000009
:101d5800040400000404000004040000040000005f
:101d6800000000001a150000151100001100000005
:101d7800000000001e1100001111000011000000f9
:101d8800000000000e110000111100000e000000fc
:101d9800000000001e1100001e10000010000000ce
:101da800000000000f110000110f000001000000ea
:101db80000000000161900001010000010000000bc
:101dc800000000000e1000000e0100001e000000c0
:101dd800080800001c0800000809000006000000b0
:101de8000000000011110000111300000d00000098
:101df8000000000011110000110a0000040000009a
:101e08000000000011110000111500000a00000078
:101e180000000000110a0000040a00001100000080
:101e280000000000111100000f0100000e0000006a
:101e3800000000001f020000040800001f0000004e
:101e4800020400000408000004040000020000006e
:101e5800040400000404000004040000040000005e
:101e68000804000004020000040400000800000048
:101e7800181c00001e1f00001e1c00001800000097
:101e8800030700000f1f00000f07000003000000f9
:101e98001e2100001e0c00000c0c00000f0f00009b
:101ea8003f3f00003f3f00003f3f00003f3f000032
:101eb80000000000010200000428000010000000db
:101ec800000000001f1b0000151b00001f00000081
:101ed800000000001f110000111100001f00000089
:101ee8001f0000000e1100001f110000110000006b
:101ef8001f0000001f1000001e1000001f0000003f
:101f08001f0000001f1000001e1000001f0000002e
:101f18000e0000000e040000040400000e00000083
:101f28001f0000000e110000111100000e0000003b
:101f38001f00000011110000111100000e00000028
:101f48001f0000000e110000111300000d0000001a
:101f58001f0000000e1100001f1000000e000000fe
:101f68001f0000000e1100001f1000000e000000ee
:101f78000e00000004040000040400000400000037
:101f88001f0000000e110000111100000e000000db
:101f98001f00000011110000111300000d000000c7
:101fa8001f100000101000001010000010000000aa
:101fb8000103000005090000111100001f000000c6
:101fc8000e110000111f0000111100000e0000008a
:101fd80001030000050900001111000011000000b4
:101fe8001f000000000e0000000000001f0000009d
:101ff8001f11000011110000111100001100000054
:102008001f10000008060000081000001f00000054
:10201800040e0000151500000e0400000400000066
:1020280011150000151500000e0400000400000042
:102038000e11000011110000110a00001b00000021
:102048000a0000000404000004040000040000006a
:1020580011000000110a0000040400000400000040
:10206800040000000d120000121200000d00000014
:10207800040000000e1000000e1000000e0000000a
:102088000400000016090000090900000901000009
:102098000400000004040000040400000400000020
:1020a8000a00000011110000111100000e000000cc
:1020b800000000000d120000121200000d000000c8
:1020c8001c120000121e0000111100001e1000005a
:1020d80000000000110a0000040a0000110e0000b0
:1020e8001e100000100c0000121200000e0000006c
:1020f800000000000e1000000e1000000e0000008e
:102108001f02000004080000101000000e0200006a
:10211800000000001e090000090900000901000074
:102128001c220000021e0000222200001c000000e9
:10213800000000000808000008080000080000006f
:102148000000000012140000181400001200000023
:1021580000100000080400000a110000110000002f
:102168000000000012120000121200001f100000f0
:102178001e080000100c0000081000000c040000ed
:10218800000000001f0a00000a0a00000a00000000
:10219800000000000f100000100e000001060000f3
:1021a800000000000f140000121200000c000000d4
:1021b800000000001e0800000808000006000000db
:1021c8000000000012120000121200000c000000b3
:1021d8000000000006150000150e000004040000b1
:1021e8000000000015150000150e00000404000092
:1021f8000000000011110000111500000a00000085
:102208000a000000040400000404000004000000a8
:102218001200000012120000121200000c00000050
:10222800040000000e110000111100000e00000053
:102238000400000012120000121200000c0000003e
:102248000400000011110000111500000a00000030
:10225800000000000000000000000000000800006e
:10226800080800000800000008000000141400001e
:102278000000000000000000000000000a1f00002d
:102288000a1f00000a000000040e0000140e0000df
:10229800050e000000000000110200000408000004
:1022a800110000000c1200000c150000120d0000b7
:1022b80000180000081000000000000000000000e6
:1022c80004080000101000000804000000100000be
:1022d80008040000040800001000000004150000b5
:1022e8000e150000040000000000000004040000b7
:1022f8001f040000040000000000000000000000af
:102308001808000010000000000000001e00000077
:1023180000000000000000000000000000100000a5
:102328000000000001020000040800001000000086
:102338000c120000161a0000120c00000008000021
:1023480018080000080800001c0000000c1200001b
:1023580002040000081e0000001c0000020c00001f
:10236800021200000c00000010140000141e0000ef
:1023780004040000001e0000101c000002020000ff
:102388001c0000000c1000001c120000120c0000c1
:10239800001e0000020400000810000010000000e9
:1023a8000c1200000c120000120c0000000c0000bf
:1023b800121200000e0200000c00000000100000c5
:1023c80010000000101000000000000000080000cd
:1023d80000080000081000000004000008100000b9
:1023e8000804000000000000001c0000001c0000a1
:1023f80000000000001000000804000008100000a1
:10240800000c0000120200000c0000000800000090
:102418000e0100000d150000150f0000000c000053
:10242800121200001e120000120000001c12000010
:102438001c120000121c0000000c0000121000000a
:10244800101200000c0000001c1200001212000004
:10245800121c0000001e0000101c000010100000dc
:102468001e0000001e1000001c10000010100000cc
:10247800000c000012100000161200000e000000f0
:10248800121200001e12000012120000001c0000b0
:1024980008080000080800001c00000002020000f4
:1024a80002020000120c00000012000014180000c4
:1024b800141200001200000010100000101000009c
:1024c800101e0000001100001b150000151100006f
:1024d800110000001119000015130000111100006f
:1024e800000c000012120000121200000c00000084
:1024f8001c120000121c000010100000000c00004c
:10250800121200001a1600000a0000001c12000037
:10251800121c000014120000000c00001208000039
:10252800041200000c0000001f0400000404000056
:102538000404000000120000121200001212000031
:102548000c00000011110000111100000a04000025
:102558000011000011150000151b000011000000fb
:10256800111100000a0400000a1100000011000007
:10257800110a000004040000040000001f0100000c
:1025880002040000081f0000001c000010100000da
:10259800101000001c00000000000000040e0000e5
:1025a8001f000000001c00000404000004040000d8
:1025b8001c000000000000001f0e000004000000c6
:1025c800000c0000121200000c00000000000000c7
:1025d80008040000020000000000000000000000e5
:1025e8000c0200000e1200000e0000001010000087
:1025f8001c120000121c0000000000000c12000059
:10260800101200000c000000020200000e12000070
:10261800120e0000000000000c1200001e10000046
:102628000c000000060800001c0800000808000054
:10263800000000000e120000120e0000020c000044
:10264800101000001c120000121200000010000000
:102658000010000010100000100000000200000030
:1026680002020000021200000c1000001214000008
:1026780018140000120000001010000010100000d4
:1026880010080000000000000a15000015110000e5
:1026980011000000000c00001212000012120000cd
:1026a800000000000c120000121200000c000000d4
:1026b800000c0000121200001c10000010000000a6
:1026c8000c120000120e000002020000000c0000b4
:1026d8001210000010100000000000000c10000094
:1026e8000c0200001c000000081c00000808000084
:1026f800080600000000000012120000121200007c
:102708000e00000000110000111100000a04000072
:102718000000000011110000151500000a0000005b
:10272800001100000a0400000a1100000000000067
:1027380012120000120e0000020c0000001f000020
:1027480002040000081f000000080000101000002c
:102758001010000008000000080800000808000029
:102768000808000000100000080800000808000021
:102778001000000000100000181c000018100000d5
:1027880000000000040c00001c0c00000400000005
:10279800081c00003e3e00003e3e00003e1e0000b9
:1027a8001e1e00001e1e00001e000000000100008a
:1027b80002040000281000000000000001020000d0
:1027c80004280000100000000000000000000000c5
:1027d80000000000001e0000000c0000121e000097
:1027e800120000001e1e0000101c0000101e000039
:1027f800001e00001e1000001c1000001e0000003b
:102808001c0000001c080000081c0000001e00003e
:10281800000c0000121200000c0000001e00000056
:1028280012120000120c0000001e0000000c000034
:10283800121600000b0000001e0c0000121e000003
:10284800100c0000001e00000c1200001e100000fa
:102858000c0000001c000000080800000808000028
:10286800001e0000000c0000121200000c00000006
:102878001e00000012120000120e0000001e0000d0
:1028880010100000101000001000000002060000e8
:102898000a120000121e0000000c0000121e0000a8
:1028a800121200000c000000020600000a120000cc
:1028b80012120000001e0000000c000000000000c2
:1028c8001e0000001e12000012120000121200006a
:1028d800001f000008040000040800001f0000009a
:1028e800040e0000151500000e0400000011000081
:1028f80015150000150e0000040000000e11000060
:10290800111100000a1b000000140000000800005c
:1029180008080000080000000a000000110a000072
:102928000404000000040000000d00001212000062
:102938000d000000040000000e1000000e10000042
:102948000e0400000016000009090000090100003b
:10295800100000001010000010100000000a000015
:1029680000110000111100000e000000000d000011
:1029780012120000120d0000001c0000121e0000c0
:10298800111100001e100000001100000a040000d0
:102998000a1100000e1e0000100c000012120000a8
:1029a8000e000000000e0000100e0000100e0000c7
:1029b800001e000004080000101000000e020000b5
:1029c800001600000909000009090000010e0000b6
:1029d800110100000f1100000e000000001000009f
:1029e8001010000010100000000000001214000079
:1029f800181400001200000008040000040a000077
:102a08001111000000000000001200001212000066
:102a18001f1000001e040000080400000806000043
:102a2800020000001f0a00000a0a00000a00000055
:102a3800000f0000101000000e010000020000004e
:102a48000f140000121200000c000000001e00000d
:102a5800080800000804000000000000121200002e
:102a6800121200000c0000000006000015150000fe
:102a78000e0400000400000011150000150e0000ef
:102a8800040400000011000011150000150a0000e0
:102a980000140000000800000808000008000000fa
:102aa8001200000012120000120c000000040000c6
:102ab800000c0000121200000c00000004000000ce
:102ac80012120000120c00000004000000110000a7
:102ad800151500000a0000000000000000000000ba
:102ae80000000000000000000000000000000000de
:102af80000000000000000000000000000000000ce
:102b0800000000000000000018000000180000008d
:102b1800180000001800000018000000180000004d
:102b2800180000000000000000000000180000006d
:102b38001800000000000000180000001800000045
:102b48001800000000000000000000000000000065
:102b5800000000000000000000000000000000006d
:102b6800000000000000000000000000000000005d
:102b78002400000024000000ff00000024000000e2
:102b8800ff000000240000002400000000000000f6
:102b98000000000000000000280000007c00000089
:102ba800aa000000a8000000a80000007c000000a7
:102bb8002a0000002a000000aa0000007c00000093
:102bc8002800000000000000600000006100000014
:102bd80003000000060000000c00000018000000c0
:102be8003000000060000000c00000008301000009
:102bf800030000000000000070000000f800000062
:102c08008c0100008c010000f8000000700000003a
:102c1800fa0000009f0100008e010000ff00000084
:102c28007b000000000000003000000010000000e1
:102c3800200000000000000000000000000000006c
:102c4800000000000000000000000000000000007c
:102c58000000000000000000000000001c00000050
:102c680038000000700000007000000070000000d4
:102c780070000000380000001c0000000000000088
:102c880000000000000000000000000070000000cc
:102c9800380000001c0000001c0000001c000000a0
:102ca8001c00000038000000700000000000000058
:102cb800000000000000000000000000000000000c
:102cc80010000000920000005400000038000000ce
:102cd80054000000920000001000000000000000f6
:102ce80000000000000000000000000000000000dc
:102cf800000000003000000030000000fc00000070
:102d0800fc0000003000000030000000000000005f
:102d180000000000000000000000000000000000ab
:102d2800000000000000000000000000000000009b
:102d3800000000000000000000000000600000002b
:102d4800200000000000000000000000000000005b
:102d5800000000000000000000000000fc0100006e
:102d6800fc0100000000000000000000000000005e
:102d7800000000000000000000000000000000004b
:102d8800000000000000000000000000000000003b
:102d9800000000000000000000000000c00000006b
:102da800c000000000000000000000000300000058
:102db800070000000e0000001c00000038000000a2
:102dc80070000000e0000000c00100008001000069
:102dd80000010000000000007c000000fe00000070
:102de800c7010000c7010000cf010000df0100009b
:102df800f7010000e7010000c7010000fe00000025
:102e08007c0000000000000038000000780000008e
:102e1800f8000000f800000038000000380000004a
:102e2800380000003800000038000000fe000000f4
:102e3800fe000000000000007c000000fe00000012
:102e4800c7010000c70100000e0000001c000000c0
:102e58003800000070000000e0000000ff000000e3
:102e6800ff000000000000003c000000fe00000021
:102e7800c70100000e0000003c0000003c000000fc
:102e88000e00000007000000c7010000fe0000005f
:102e98007c000000000000001c0000003c00000056
:102ea8007c000000dc0000009c010000ff01000025
:102eb800ff0100001c0000001c0000001c000000b6
:102ec8001c00000000000000fe010000fe010000e0
:102ed800c0010000c0010000fc010000fe0000006d
:102ee8000700000007000000c7010000fe01000005
:102ef800f8000000000000000e0000001c000000a8
:102f08003800000070000000e0000000fc01000034
:102f1800fe010000c7010000c7010000fe0000001c
:102f28007c00000000000000ff010000ff0100001d
:102f3800070000000e0000001c0000003800000020
:102f480070000000e0000000c0010000c0010000a7
:102f5800c00100000000000038000000fe00000072
:102f6800c7010000c7010000fe0000007c0000004f
:102f7800fe000000c7010000c7010000fe000000bd
:102f88007c000000000000007c000000fe00000043
:102f9800c7010000c7010000e70000007e00000034
:102fa8001c0000003800000070000000e000000075
:102fb800c001000000000000000000000000000048
:102fc80070000000700000007000000000000000a9
:102fd8000000000070000000700000007000000099
:102fe80000000000000000000000000000000000d9
:102ff8000000000000000000380000003800000059
:103008000000000038000000300000000000000050
:103018000000000000000000000000000e0000009a
:103028001c0000003800000070000000e0000000f4
:1030380070000000380000001c0000000e000000b6
:103048000000000000000000000000000000000078
:10305800000000007e0000007e000000000000006c
:103068007e0000007e00000000000000000000005c
:10307800000000000000000000000000e000000068
:1030880070000000380000001c0000000e00000066
:103098001c0000003800000070000000e000000084
:1030a8000000000000000000f8000000fc01000023
:1030b800ce0100000e0000001c00000038000000d7
:1030c80070000000700000007000000000000000a8
:1030d80070000000000000001c000000420000001a
:1030e800020000001a0000002a0000002a00000068
:1030f8001c000000000000000000000000000000ac
:10310800000000000000000038000000fe00000081
:10311800c7010000c7010000c7010000ff0100004f
:10312800ff010000c7010000c7010000c70100003f
:10313800c701000000000000f8010000fe010000c7
:10314800c7010000c7010000fe010000fc010000eb
:10315800ce010000c7010000c7010000fe01000009
:10316800f80100000000000038000000fe00000028
:10317800c3010000c0010000c0010000c001000040
:10318800c0010000c3010000c3010000fe000000f0
:103198003c00000000000000f8010000fc010000f5
:1031a800ce010000c7010000c7010000c7010000f0
:1031b800c7010000c7010000ce010000fc010000ab
:1031c800f801000000000000ff010000ff010000fe
:1031d800c0010000c0010000fc010000fc0100006b
:1031e800c0010000c0010000c0010000ff01000094
:1031f800ff01000000000000ff010000ff010000c7
:10320800c0010000c0010000c0010000f80100007a
:10321800f8010000c0010000c0010000c00100006a
:10322800c00100000000000038000000fc000000a1
:10323800ce010000c0010000c0010000cf01000065
:10324800cf010000ce010000ce010000fe0000000a
:103258007c00000000000000c7010000c70100005a
:10326800c7010000c7010000c7010000ff010000fe
:10327800ff010000c7010000c7010000c7010000ee
:10328800c701000000000000fc010000fc01000074
:103298007000000070000000700000007000000066
:1032a800700000007000000070000000fc010000c9
:1032b800fc010000000000007f0000007f0000000b
:1032c8001c0000001c0000001c0000001c00000086
:1032d8001c0000001c0000009c010000fc01000014
:1032e800f800000000000000c1010000c301000058
:1032f800c6010000cc010000d8010000f001000068
:10330800f0010000d8010000cc010000c601000057
:10331800c301000000000000c0010000c00100005f
:10332800c0010000c0010000c0010000c001000091
:10333800c0010000c0010000c0010000ff01000042
:10334800ff0100000000000044000000aa00000087
:103358009301000093010000930100009301000015
:103368008301000083010000830100008301000045
:10337800830100000000000087010000c701000071
:10338800c7010000e7010000f7010000ff0100008d
:10339800df010000cf010000c7010000c7010000e5
:1033a800c7010000000000007c000000fe000000d3
:1033b800c7010000c7010000c7010000c7010000e5
:1033c800c7010000c7010000c7010000fe0000009f
:1033d8007c00000000000000fc010000fe0100006d
:1033e800c7010000c7010000fe010000fc01000049
:1033f800c0010000c0010000c0010000c0010000c1
:10340800c0010000000000007c000000ee00000089
:10341800c7010000c7010000c7010000c701000084
:10342800c7010000d7010000d7010000fe0000001e
:103438007b00000000000000f8010000fe01000011
:10344800c7010000c7010000ce010000fc01000018
:10345800f8010000dc010000ce010000c7010000f7
:10346800c3010000000000007c000000fe00000016
:10347800c3010000c0010000f00000003c00000093
:103488000e0000000700000087010000fe00000099
:103498007c00000000000000ff010000ff010000a8
:1034a8003800000038000000380000003800000034
:1034b8003800000038000000380000003800000024
:1034c8003800000000000000c7010000c70100002c
:1034d800c7010000c7010000c7010000c7010000c4
:1034e800c7010000c7010000c7010000fe0000007e
:1034f8007c00000000000000c7010000c7010000b8
:10350800c7010000c7010000c7010000c701000093
:10351800c7010000c7010000ee0000007c000000a9
:10352800100000000000000083010000830100007b
:103538008301000083010000830100009301000063
:10354800930100009301000093010000aa0000000d
:103558004400000000000000c7010000c70100008f
:10356800c7010000ee0000006c00000038000000f9
:103578007c000000e6000000c7010000c701000051
:10358800c70100000000000086010000860100005d
:1035980086010000cc000000780000003000000028
:1035a8003000000030000000300000003000000053
:1035b8003000000000000000ff010000ff010000d3
:1035c800ff010000060000000c00000018000000c9
:1035d8003000000060000000ff000000ff01000054
:1035e800ff01000000000000fc010000fc010000d9
:1035f80080010000800100008001000080010000bf
:10360800800100008001000080010000fc01000032
:10361800fc01000000000000440000002800000039
:103628007c000000100000007c000000100000007a
:103638000000000000000000000000000000000082
:103648000000000000000000fc010000fc01000078
:103658000c0000000c0000000c0000000c00000032
:103668000c0000000c0000000c000000fc01000031
:10367800fc010000000000001000000038000000fd
:103688006c000000c600000083010000000000007c
:103698000000000000000000000000000000000022
:1036a8000000000000000000600000009000000022
:1036b8009000000060000000000000000000000012
:1036c80000000000000000000000000000000000f2
:1036d800000000000000000080010000c0000000a1
:1036e8006000000030000000000000000000000042
:1036f80000000000000000000000000000000000c2
:1037080000000000000000000000000000000000b1
:103718000000000000000000fc000000060000009f
:10372800f60000008e010000860100008e010000f6
:10373800f600000000000000800100008001000089
:103748008001000080010000fc01000086010000eb
:10375800830100008301000083010000860100004e
:103768007c010000000000000000000000000000d4
:1037780000000000000000007c000000c6000000ff
:10378800800100008001000080010000c6000000e8
:103798007c0000000000000003000000030000009f
:1037a80003000000030000007f000000c3000000c9
:1037b800830100008301000083010000c3000000b2
:1037c8007d00000000000000000000000000000074
:1037d8000000000000000000f80000008601000062
:1037e80086010000f8010000800100008c01000043
:1037f800fc000000000000003c0000006200000027
:103808006000000060000000f80100006000000097
:103818006000000060000000600000006000000020
:103828006000000000000000000000007d000000b3
:10383800c300000083010000830100008301000031
:10384800c30000007f000000030000000300000028
:10385800fe00000000000000800100008001000060
:103868008001000080010000f801000084010000d0
:103878008201000082010000820100008201000034
:1038880082010000000000000000000000000000ad
:103898003000000000000000300000003000000090
:1038a8003000000030000000300000003000000050
:1038b8003000000000000000000000000c000000c4
:1038c800000000000c0000000c0000000c000000cc
:1038d8000c0000000c0000000c0100008800000033
:1038e800700000000000000080010000800100005e
:1038f80080010000800100008801000090010000a4
:10390800a0010000e0010000900100008801000013
:103918008401000000000000c0010000c000000099
:10392800c0000000c0000000c0000000c00000008f
:10393800c0000000c0000000c0000000c00000007f
:10394800e00100000000000000000000000000008e
:103958000000000000000000ee00000093010000dd
:10396800930100009301000083010000830100001f
:1039780083010000000000000000000000000000bb
:10398800000000000000000078010000860100002f
:103998008601000086010000860100008601000003
:1039a8008601000000000000000000000000000088
:1039b80000000000000000007c000000c6000000bd
:1039c800830100008301000083010000c60000009d
:1039d8007c00000000000000000000007c010000e6
:1039e80086010000830100008301000083010000bc
:1039f80086010000fc010000800100008001000039
:103a08008001000000000000000000007d000000b0
:103a1800c30000008301000083010000830100004f
:103a2800c30000007f000000030000000300000046
:103a3800030000000000000000000000000000007b
:103a48000000000000000000bc010000c2010000ee
:103a5800800100008001000080010000800100005a
:103a680080010000000000000000000000000000cd
:103a78000000000000000000f800000084010000c1
:103a880080010000f80000000c0000000c0100009c
:103a9800f800000000000000600000006000000066
:103aa8006000000060000000f801000060000000f5
:103ab800600000006000000060000000600000007e
:103ac80030000000000000000000000000000000be
:103ad80000000000000000008601000086010000d0
:103ae800860100008601000086010000ce0000006b
:103af8007a00000000000000000000000000000044
:103b080000000000000000008301000083010000a5
:103b180083010000c60000006c00000038000000af
:103b2800100000000000000000000000000000007d
:103b38000000000000000000830100008301000075
:103b4800830100009301000093010000ab01000015
:103b5800c600000000000000000000000000000097
:103b6800000000000000000086010000cc000000fa
:103b7800780000003000000078000000cc00000051
:103b8800860100000000000000000000860100001f
:103b98008601000086010000860100008601000001
:103ba800ce000000760000000600000006010000bc
:103bb800f800000000000000000000000000000005
:103bc8000000000000000000fc01000018000000d8
:103bd8003000000060000000c0000000800100000c
:103be800fc0100000000000060000000c0000000b0
:103bf80080010000c000000060000000c00100005b
:103c080060000000c000000080010000c00000004b
:103c1800600000000000000080010000800100003a
:103c28008001000080010000800100008001000088
:103c38008001000080010000800100008001000078
:103c4800800100000000000080010000c0000000aa
:103c580060000000c000000080010000e0000000db
:103c680080010000c000000060000000c0000000eb
:103c7800800100000000000000000000400000007b
:103c88006000000070000000780000007c00000068
:103c98007800000070000000600000004000000094
:103ca8000000000000000000000000000800000004
:103cb800180000003800000078000000f80000003c
:103cc800780000003800000018000000080000001c
:103cd8000000000000000000700000008c010000df
:103ce8008c0100007000000060000000600000000f
:103cf8006000000060000000600000007c00000020
:103d0800600000007e000000ff010000ff010000cd
:103d1800ff010000ff010000ff010000ff0100009b
:103d2800ff010000ff010000ff010000ff0100008b
:103d3800ff0100000000000000000000000000007b
:103d48000100000003000000060000000c00000055
:103d5800180000003000000060030000c0010000ef
:103d680080000000000000000000000000000000cb
:103d78000000000000000000fe010000ce0100006d
:103d88007a010000320100007a010000ce01000033
:103d9800fe0100000000000000000000000000001c
:103da8000000000000000000fe0100000201000009
:103db80002010000020100000201000002010000ef
:103dc800fe010000000000000200000048a2000000
:103dd800040000000300000042a2000002000000ee
:103de800040000003ca200000200000005000000e2
:103df80030a2000004000000060000002aa2000013
:103e080002000000070000001ea2000005000000dc
:103e18000800000018a200000300000009000000cc
:103e280012a20000030000000a000000faa100002e
:103e3800090000000b000000f4a1000003000000ce
:103e48000c000000e2a10000070000000d000000c7
:103e58002ea100003d0000000e00000022a100007d
:103e6800040000000f00000016a10000040000007c
:103e780010000000b6a000002000000012000000a2
:103e8800b0a000000200000013000000a4a0000081
:103e9800040000001400000092a0000006000000ca
:103ea800150000007aa000000800000016000000bd
:103eb8005ca000000a0000001700000038a0000005
:103ec8000c000000180000000ea000000e0000000a
:103ed80019000000de9f0000100000001a0000001a
:103ee800a89f0000120000001b000000a29f000015
:103ef800020000001c000000849f00000a0000006f
:103f0800dc050000aa00000000000000080700000f
:103f1800c80000000000000008070000c8000000fa
:103f280000000000080700009600000000000000e4
:103f380008070000c8000000640000002c01000011
:103f4800900100000a000000fa00000014000000c0
:103f580014000000fa000000140000001400000023
:103f6800fa0000001400000014000000fa0000002d
:103f78001400000014000000fa0000001400000003
:103f880014000000fa0000001400000014000000f3
:103f9800fa0000001400000014000000fa000000fd
:103fa8001400000014000000fa00000014000000d3
:103fb80014000000fa0000001400000014000000c3
:103fc800fa0000001400000014000000fa000000cd
:103fd8001400000014000000fa00000014000000a3
:103fe80014000000fa000000140000001400000093
:103ff800fa0000001400000014000000fa0000009d
:104008001400000014000000fa0000001400000072
:1040180014000000fa000000140000001400000062
:10402800fa0000001400000014000000fa0000006c
:104038001400000014000000fa0000001400000042
:1040480014000000fa000000140000001400000032
:10405800fa0000001400000014000000fa0000003c
:104068001400000014000000fa0000001400000012
:1040780014000000fa000000140000001400000002
:10408800fa0000001400000014000000fa0000000c
:104098001400000014000000fa00000014000000e2
:1040a80014000000fa0000001400000014000000d2
:1040b800fa0000001400000014000000fa000000dc
:1040c8001400000014000000fa00000014000000b2
:1040d80014000000fa0000001400000014000000a2
:1040e800fa0000001400000014000000fa000000ac
:1040f8001400000014000000fa0000001400000082
:1041080014000000fa000000140000001400000071
:10411800fa0000001400000014000000fa0000007b
:104128001400000014000000fa0000001400000051
:1041380014000000fa000000140000001400000041
:10414800fa0000001400000014000000fa0000004b
:104158001400000014000000fa0000001400000021
:1041680014000000fa000000140000001400000011
:10417800fa0000001400000014000000fa0000001b
:104188001400000050000000fa0000005000000079
:1041980014000000fa000000500000005000000069
:1041a800fa0000001400000014000000fa000000eb
:1041b8001400000014000000fa00000014000000c1
:1041c800f4010000fa0000001400000014000000d0
:1041d800fa0000001400000014000000fa000000bb
:1041e8001400000050000000fa0000005000000019
:1041f80014000000fa000000500000005000000009
:10420800fa0000001400000014000000fa0000008a
:104218001400000014000000fa0000001400000060
:1042280014000000fa000000320000000600000040
:104238004d01000032000000320000004d01000076
:104248003200000006000000fa0000003200000002
:1042580032000000f401000001000000000000002e
:10426800dc0100000100000000000000c7010000a0
:104278000100000000000000b30100000100000080
:1042880000000000a1010000010000000000000083
:104298009001000001000000000000008101000002
:1042a8000100000000000000720100000100000091
:1042b800000000006501000001000000000000008f
:1042c8005901000001000000000000004d0100003d
:1042d8000100000000000000430100000100000090
:1042e800000000003901000001000000000000008b
:1042f8002f0100000100000000000000260100005e
:1043080001000000000000001e0100000100000084
:10431800000000001601000001000000000000007d
:104328000e0100000100000000000000070100006d
:104338000100000000000000000100000100000072
:1043480000000000fa00000001000000000000006a
:10435800f40000000100000000000000ee00000072
:104368000100000000000000e9000000010000005a
:1043780000000000e3000000010000000000000051
:10438800de0000000100000000000000d90000006d
:104398000100000000000000d5000000010000003e
:1043a80000000000d0000000010000000000000034
:1043b800cc0000000100000000000000fa0000002e
:1043c8006400000064000000fa00000064000000bf
:1043d80064000000fa000000640000002c010000e6
:1043e800fa0000001400000014000000fa000000a9
:1043f8000600000006000000fa00000006000000a9
:1044080006000000fa000000060000000600000098
:10441800fa00000006000000b0040000f4000000ec
:104428001400000014000000fa000000140000004e
:10443800c8000000fa0000001e0000000000000094
:10444800f40100002800000064000000e2040000fd
:10445800c8000000000000004d010000320000000c
:1044680006000000fa0000003200000032000000e0
:10447800fa0000000e00000000000000fa00000032
:104488000500000000000000f40100000a00000020
:1044980006000000fa0000000a000000c800000042
:1044a800e76b0000e4d900004bbb000086c10000a8
:1044b800b84e000038e0000085b40000b57a00006e
:1044c8005aa100006aff0000b5920000e3990000bd
:1044d80059410000f8bb0000dad2000084ed00006a
:1044e8007c410000b24000005a080000e9060000c4
:1044f800bbae0000c65000007e1c00001604000081
:104508003d1b0000b60a000037c200000587000006
:10451800de4a00003aad0000f97b0000921100006d
:1045280063040000b1260000470a0000569300000b
:104538000a680000042f000089d400000518000054
:104548001069000050f0000025f5000079ec00002b
:104558009588000025ae0000c4f7000053de000077
:10456800b9ab0000b9320000e013000051000000b0
:104578000568000079920000f8e3000075bb0000b0
:10458800f645000020a10000c972000099760000dd
:10459800510c0000472b00008dd80000398c00001a
:1045a800ca180000173a00004d690000c1670000f2
:1045b800f77d000029950000819c00007de3000044
:1045c800b34500004135000073340000de4e0000a2
:1045d800e8c0000059130000ceef0000476000005b
:1045e80011a30000d5770000a1310000030b0000e3
:1045f800f9b900000a9f0000a0190000419b0000c3
:1046080056980000093e000065770000edda0000ca
:10461800073e0000b332000064f3000042170000b8
:104628003e6f0000b2df00004c350000333c000054
:104638003303000092ac0000f7300000fc6e00006d
:10464800f41f00003b8a0000a3c70000af4400002d
:10465800aac8000098500000f7c40000a672000025
:10466800515e0000f8f40000161c00007c260000d3
:1046780036bb00009a6700001489000017de0000ae
:1046880044e1000071060000751d0000d4770000a9
:1046980030e4000086d8000069440000b6ff00003e
:1046a80043f1000079800000d9cb000053e30000fb
:1046b8004cb00000d1b7000030300000677e000029
:1046c800e70200009bdc000013cb000067670000d6
:1046d80072bf00004d910000a39c000022d400008e
:1046e800da840000f54400005c2800009ff5000013
:1046f80097fa000048b000002d650000277f0000f1
:104708005ad60000568c0000492600009d7800000b
:10471800d1a10000defa000002d6000028690000de
:10472800712f0000ab6f000024d20000d26200009d
:104738006112000044090000d05b00003c4a000000
:10474800962700006c6a000010120000e6d00000f6
:104758002acd00009dff00008aee000069060000d7
:10476800f7cb000074ef0000f7fb0000886300003f
:10477800b6570000dbce0000cc7e00007d92000022
:1047880017bf0000b30300003e3f00006f040000a5
:10479800d4dd0000f7260000e7550000565b000056
:1047a800f7b60000ce7a000022e900007ffa000088
:1047b800497f00002062000035270000b641000054
:1047c800713000007c470000e3700000b7e500008e
:1047d8002cf100002b5d000000c700005ec5000042
:1047e800e59f00004d09000043a80000b1e000006b
:1047f800f53f0000941d0000111a0000e58c000030
:1048080079880000b18a0000cbc300008a5b0000f1
:10481800c20500001d0600006d4f00000b7f000060
:10482800d9a30000ebb9000019a40000cd7b00005b
:10483800973e000010450000d813000064ea00000d
:10484800cc4900001c3e0000be590000b16f0000ba
:104858009b2500005ca1000025ed0000661f0000fc
:1048680026e700008b0e000036050000de0400007d
:104878007384000016a70000f0820000d0650000d5
:10488800e0ab0000578c00008bb8000051c100005d
:1048980067c40000b2b100004ac90000e452000039
:1048a80016170000181900001b1d00001e1f00002d
:1048b8002123000025260000282a00002c2e0000b5
:1048c80030320000343700003a3c00003e4000001f
:1048d80043460000484b00004e510000545600006b
:1048e800595c00005f620000656800006b6e0000a4
:1048f80071740000777a00007d80000083850000d5
:10490800888b00008e91000094960000999c00000e
:104918009ea10000a3a60000a9ab0000adaf000057
:10492800b2b40000b6b80000babc0000bfc00000b6
:10493800c2c40000c6c80000c9cb0000ccce00002d
:10494800d0d10000d2d40000d5d60000d8d90000bc
:10495800dadb0000dcdd0000dedf0000e0e1000063
:10496800e2e30000e4e5000099790000825a0000c3
:10497800a1eb0000d96e0000dcbc00001b8f00001a
:10498800d6c1000062ca0000030300000300000053
:08499800010300000200000011
:020000040000fa
:1049a000889fbe008a9fbe008c1f78000060fe00ba
:1049b0007b8721009b40780068c0600011002000c8
:1049c00005003200010078004f0678004f05be0058
:1049d0004f04be000000060092028000ff3ffc0072
:1049e00000ceb3004260b7009202880010c0b3004e
:1049f000561807000004e00003003a009b407800ce
:104a000064c060008f003a000041eb00910280001a
:104a1000ff3ffc0042c0bf007f40600042e0b700a3
:104a2000910288000204e00076003a0010c0b30052
:104a3000461807000004e000170032007a872100c2
:104a40009b40780068c0600013003a000001eb0052
:104a50005100200000892100571507000060fe006a
:104a6000e99a210019407800e24f50002d003200f1
:104a700012003e000004e0003b003200e14f500015
:104a80005a003200804ceb0010c0b3002f18070012
:104a90000004e000e9ff3a001b80fb004300de0059
:104aa000e1006000010078004f0678004f05be006d
:104ab0004f04be0000000600c7ff3700e34f500060
:104ac00037003200e44f5000eeff3a0068cd80001e
:104ad000b00d2000800f540067003e001c632100d1
:104ae000e70f54007a00320020c080000000e90087
:104af000880f50006c003e0010c0b300e919070099
:104b000080407800009b21004d1b07008c00440072
:104b100080487800804ceb001b24a1001b34a000cf
:104b2000c2ff370010c0b300de1907003263210056
:104b30000049780030c0b300804c78002063210029
:104b400090407800c808dd001280fb0080804000a3
:104b500051cd8800009b21004c1b07003000200035
:104b600060cd8800b1ff370010c0b300cd19070039
:104b70001c632100004e780040c5b3009c4f10001c
:104b8000030032000040e8009c4f1000a7ff3a00ed
:104b900010c0b300804c78001a24a000a3ff370097
:104ba00068cd800010c0b300be19070080407800b7
:104bb000009b2100221b07001c6321000c04440001
:104bc000004c780061cd80000c8040001080fb001c
:104bd0006800400020c0880040c0b300804c7800ce
:104be0008100e80061cd880090ff3700ad19070013
:104bf000216321008048780020c0b300804c7800f9
:104c00008aff3700e09a21000048eb0000c08000d6
:104c100011c0800061004000e080480000c08800b2
:104c200011c088001b24a100942007000000200070
:104c30004f0678004f05be004f04be00000006007e
:104c400065ff370080c4800012c0b3000000e000a0
:104c50006dff3a0091028000ff3ffc0042c0bf00a0
:104c60007f40600042e0b700910288000204e0004b
:104c70006eff3200e3ff37000800e80060cd8800d7
:104c800010c0b3008719070021c0800060cd8000ec
:104c9000810f500065ff3900804ceb001a24a10001
:104ca0007620070061ff370010c0b3007d190700b0
:104cb00080407800009b2100e11a07008c0044002e
:104cc000804878000804e80068cd880057ff370066
:104cd00050c5b3009c4f100083ff3a00e0862100ce
:104ce00051cd8000908040000087210090804000de
:104cf00051cd8800009b2100e41a070068cd800098
:104d000079ff37008180fb00808040000001eb00cc
:104d1000810f5000260031008041eb0084252000e7
:104d200000024200b0c1410000017800810f500034
:104d30001e00320090c141000200e800810f5000c7
:104d40001a00320090c141000280e800810f50003b
:104d50001600320090c1410063004100810f5000f5
:104d60001200320090c1410064004100810f5000e8
:104d70000e00320090c1410065004100810f5000db
:104d80000a00320090c1410066004100810f5000ce
:104d90000600320090c1410067004100810f5000c1
:104da00002003200840f5000deff3a000381fb0056
:104db000020078000000060014632100d270210078
:104dc000144978000040eb003041980040419800c1
:104dd000c441900063806100e10f50000c0032007c
:104de000424090000024a00001cfb30081c06100c8
:104df0000140700040419800644290005441980086
:104e000020872100104078006041980000000600d3
:104e100020c0b300404198000024a00001cfb3009f
:104e200081c06100014070004041980064429000e0
:104e3000544198002087210010407800604198007c
:104e400000000600f2ff370010082000c0118800a3
:104e5000808721001044a1000000060000037800b4
:104e600081427800020278004371210013409000d3
:104e70000080fb000080e8000001eb00210d200015
:104e8000810f50000f003e00160178008280e8007c
:104e900003804000054878006301410003004100a1
:104ea00004487800838040004820de00a04098003d
:104eb000020b7800134090000040e80090419800f9
:104ec00012002000020078000000060000027800b6
:104ed0008142780042712100924090008001eb00f5
:104ee00020cdb30080cf500008003e009400780031
:104ef0000280400025409800010ae800124090001e
:104f00000040e800104198001300200003007800e2
:104f1000000006000000060014632100040378006e
:104f200020c08000236321000080e9000080fb0096
:104f3000030040000001eb00808f5100260031008b
:104f4000830078008041eb00a5882100b1c14100b9
:104f500001017800808f50001e00320091c1410095
:104f60008200e800808f50001a00320091c1410099
:104f70008280e800808f50001600320091c141000d
:104f8000e3004100808f50001200320091c14100c7
:104f9000e4004100808f50000e00320091c14100ba
:104fa000e5004100808f50000a00320091c14100ad
:104fb000e6004100808f50000600320091c14100a0
:104fc000e7004100808f500002003200858f5000c2
:104fd000deff3a000381fb0020c080000400400097
:104fe00070f89700824f50000400320040c5b300b3
:104ff000964f10001500320000000500d6409000ca
:105000002087210090cf500004003200e1cf400003
:1050100002003200eecf4000f7ff3a00301d0700db
:105020008087210010407800704060000f003a0037
:10503000c0bf8000d1bf800061004000e080480018
:10504000c0bf8800d1bf8800100005008b1f07007b
:1050500000c0800011c0800061004000e080480076
:1050600000c0880011c088000000050041722200c5
:10507000023e29004300200000882100351507006a
:10508000c0bf8000d1bf800061004000e0804800c8
:10509000c0bf8800d1bf880010000500e687470028
:1050a000889fbe008a9fbe008c9fbe008e1f780026
:1050b0008046780001447800da702100232207003e
:1050c000800578008000780072805700ef19070093
:1050d0007fe8970010459800efe897002145980079
:1050e0003d4598000d82fb000804e00003003200fb
:1050f0004a4090000034a00040459800e70242007a
:10510000e8702100660042000080fb0008004000bb
:105110008000eb00800f54002600310088007800ea
:105120008041eb0066962100b1c141000101780089
:10513000808f50001e00320091c141008200e800c3
:10514000808f50001a00320091c141008280e80037
:10515000808f50001600320091c14100e3004100f1
:10516000808f50001200320091c14100e4004100e4
:10517000808f50000e00320091c14100e5004100d7
:10518000808f50000a00320091c14100e6004100ca
:10519000808f50000600320091c14100e7004100bd
:1051a000808f500002003200868f5000deff3a00f0
:1051b0008380fb000a8042000148780068064200b4
:1051c00090028000ff3ffc004e9121001e4fe8003e
:1051d0009002880024eea8001a80fb0011c0b300e2
:1051e0007b1807001880fb0011c0b3007818070077
:1051f000f07021001080fb0011c0b300741807008c
:10520000e30f560066003600380020000c00540002
:105210000080ea0088046000200032000071210054
:105220009040780072805700731907000080fb00df
:1052300011c0b3006618070048002000e18f540039
:1052400016003200e28f54000a0032000a004400c7
:105250009040780072805700671907000080fb00bb
:1052600011c0b3005a1807000804e800e70f540003
:10527000ac0032000a004400904078007280570071
:105280005d1907000080fb0011c0b3005018070033
:105290000804e800e70f54002b0032000a00440025
:1052a0009040780072805700531907000080fb007f
:1052b00011c0b300461807008804e800090478000c
:1052c000890f560036003200e70f540053003200b9
:1052d0000a00440090407800728057004619070089
:1052e0000080fb0011c0b300391807000904e80072
:1052f000e70f5400750032000a0044009040780027
:10530000728057003c1907000080fb0011c0b300f9
:105310002f1807000984e800e70f540055003200f9
:105320000a0044009040780072805700321907004c
:105330000080fb0011c0b3002518070063844400ff
:10534000e70f5400d5ff3a0050c5b300d1702100db
:10535000914f1000d1ff3a00e086210010804500f7
:1053600001872100910540008b0078007280570072
:10537000461907000a0044009040780072805700e8
:105380001d1907000080fb0011c0b30010180700b2
:105390008804e80009047800890f5600caff3a0023
:1053a00010c0b300571607000004e000fcff3a00ed
:1053b00024eea90090028000ff3ffc001e4fe90090
:1053c00090028800d07021004041900001cfb300ce
:1053d000b07e21000148610081632100907e2100a0
:1053e00011487800a07e21000d487800a0bf800001
:1053f000b1bf800061004000e0804800a0bf88008d
:10540000b1bf88004f0778004f06be004f05be00b1
:105410004f04be006f00b1000000060050c5b3008d
:10542000d1702100914f1000a9ff3a00e0862100c1
:105430001080450001872100910540008b00780015
:1054400072805700111907000a004400904078004c
:1054500072805700e81807000080fb0011c0b300fd
:10546000db1707000904e800e70f5400a2ff3a0029
:105470001600370050c5b300d1702100914f1000c5
:10548000a7ff3a00e0862100108045000187210037
:10549000910540008b00780072805700fb180700d0
:1054a0000a0044009040780072805700d21807002c
:1054b0000080fb0011c0b300c517070063844400df
:1054c000e70f540075ff3a009fff370050c5b30047
:1054d000d1702100914f100087ff3a00e086210033
:1054e0001080450001872100910540008b00780065
:1054f00072805700e51807000a00440090407800c9
:1055000072805700bc1807000080fb0011c0b30078
:10551000af1707000984e800e70f540080ff3a0046
:10552000d4ff370050c5b300d1702100914f100057
:1055300050ff3a00e08621001080450001872100dd
:10554000910540008b00780072805700cf1807004b
:105550000a0044009040780072805700a6180700a7
:105560000080fb0011c0b300991707000804e80091
:10557000e70f540049ff3a0073ff3700881f780097
:1055800088632100116321004140900063006000a6
:10559000e10f500018003200684090009428070086
:1055a00021992100784090008048780012c0b30013
:1055b000914f11001f00360070c0b3008048780082
:1055c00070c0b300914f1000010036008048780091
:1055d000609b2100584490000848780071872100a2
:1055e00002c4b3001140610001003a001164a00040
:1055f0004f04780000000600d14090002087210071
:1056000090cf5000e4ff3a008040eb00014078006a
:10561000a2fe07006840900075280700219921002c
:10562000784090008048780012c0b300914f11007c
:10563000e1ff3e008048eb00e1ff3700889fbe009d
:105640008a9fbe008c1f78001463210084057800b7
:10565000720020000786210018862100298621007b
:1056600020c080000080e900800f51000a00310056
:105670008201e80004804100b1c1b30090cf100066
:105680000d0032000301780020c080000080e90096
:10569000800f5100f6ff39004b409000630060001e
:1056a000e10f5000320032004f0678004f05be0077
:1056b0004f04be00000006008281e8000480410023
:1056c000104078000080fb000100200061005000c5
:1056d000e080580015022000850f5000e08f580030
:1056e000e8ff3e00000601002d003700e5ff37000f
:1056f000e4ff3700e3ff3700e2ff3700e1ff370048
:10570000e0ff3700dfff3700deff3700ddff370047
:10571000230037002c003700daff37002300370062
:105720001f0037002800370023003700260037000d
:105730001b003700d3ff3700d2ff3700d1ff3700ff
:10574000d0ff37001c00370041003700170037003a
:10575000420037006f003700110037001300370098
:10576000620037000e0037001a0037001e003700b5
:10577000db4090002087210090cf5000caff3a0004
:105780008040eb000140780044fe07004f0678009f
:105790004f05be004f04be0000000600c6ff3700e4
:1057a000e301410003017800b7ff3700e401410045
:1057b00003017800b4ff37000480410011c1b30039
:1057c00090cf1000afff3a00e601410003017800de
:1057d000adff3700e301410004804100104578002f
:1057e0000a04e0005f003a0004804100904090000d
:1057f0000381e800f2cf5000b8003200f3cf500030
:10580000ee00320080c2b30080cf5000950032001d
:105810000400410010407800e3814100e2cf5000d5
:1058200098ff3e00e24f50006f0032008180fb0085
:1058300010632100008041001041e900d061210087
:1058400080804000ef486100030178008eff370040
:10585000e7014100030178008bff3700630041003e
:10586000156321008400400020c1b300914f100057
:105870006500320030c1b300914f10007b00320050
:1058800080c2b300914f1000c8ff3a00e40141000c
:10589000058041001040e9006f406000e14f50007a
:1058a00075013600e44f50008a013200e24f50008b
:1058b00074013a0011862100f2c0b300914f11002b
:1058c000010032008048780019407800ef4f500006
:1058d0007d00320017407800ef4f500069ff3a001a
:1058e000804878000301780067ff3700e30141003a
:1058f0000480410011c0b30090cf10001c0136009d
:1059000071c0b3002099210001487800030178009c
:105910005dff3700e3014100048041001041780041
:10592000e1622100c5c1b30091cf120008003e0022
:10593000d5622100914f51002700320010c0b30002
:10594000804a780082487800030178004eff3700d3
:105950008048eb00d5622100914f5100f7ff3a00db
:105960001d00370020c080000000e900808f51003a
:105970009dff3100830278000a4178000a06ea00a0
:105980001663210004804100904090008381e8006c
:10599000f2cf500053003200f3cf500089003200a4
:1059a00080c2b30080cf5000bc003200e3814200cf
:1059b0000241e9000c404500804f51008aff32004f
:1059c00020c080000000e900830f500086ff3600f1
:1059d00083027800eaff37001504e000d7ff3200a9
:1059e0000301780028ff37008180fb00048041001c
:1059f0001041e9001062210080804000ef48610002
:105a00000301780020ff3700e401410004804100d9
:105a10001040e9006f406000e14f50001001360077
:105a2000e44f5000f4003200e24f5000d4003a003e
:105a300021862100f5c0b30091cf12000100320091
:105a40008048780017407800ef4f5000190032006e
:105a500018407800ef4f5000a1ff3200030178009a
:105a600009ff370011c0b30069ff3700e4014100ae
:105a7000058041001040e9006f406000e14f500098
:105a8000fa003600e44f5000e8003200e24f5000c8
:105a9000ca003a0001862100f5c0b30091cf120080
:105aa000010032008048780019407800ef4f500024
:105ab000e7ff3a008048780018407800ef4f500028
:105ac000e6ff3a0086ff37008048780017407800ec
:105ad000ef4f5000ebfe3a0081ff370021c0b300ca
:105ae0004bff3700048041001040e900258621006b
:105af000ef4a600040c0b300954f10001c00320018
:105b000021c0b30095cf10000e00320030c0b300aa
:105b1000954f1000a6ff3a00f04f5100a4ff32004d
:105b200017407800f04f5000200032009840780075
:105b3000f0cf50009eff3a002086210001487800f7
:105b40009bff3700ef4f5100f0ff32001740780005
:105b5000ef4f50001300320098407800efcf500014
:105b6000eaff3a002086210001487800e7ff37006d
:105b7000f14f5100e2ff320017407800f14f500022
:105b80000c00320018407800f14f5000dcff3a0062
:105b9000804a780021c0b30095cf1000dbff3a00a7
:105ba000e8ff3700804a7800ebff3700804a780032
