:020000040000fa
:080000000802040000000000ea
:020000040000fa
:100410008fbf2100807f22000001880000000000c3
:100420000c00070000df230001002000110007007e
:10043000000020000000e000020032000000020086
:1004400000000000ce350200000000000040da008d
:100450000000fe004440a900804820000000e000a9
:100460000300320000002000a00188004440a800e2
:100470000000060091018800800078000000eb0079
:1004800015003700e280400032a0b4009101ba00ac
:10049000e280400032a0b4009102ba00e280400045
:1004a00032a0b4000002eb00472bde00f507b200db
:1004b000602ce10004003a000059eb008301e900e0
:1004c000fdff3e00040037006128e100010032001a
:1004d0000082eb00040007001101ba000200e000f6
:1004e000e8ff3a00000006003159ba008301e90034
:1004f0000c0032002159ba008301e90008003200e3
:100500000400e00003003a00e280400032a0b400a2
:10051000f5ff370011d9ba008301e900faff3a006c
:100520008100e800e180400032a0b4000000060035
:1005300000000000000000000000000000000000bb
:1005400000000000000000000000000000000000ab
:10055000000000000000000000000000000000009b
:10056000000000000000000000000000000000008b
:10057000000000000000000000000000000000007b
:100580000000000000000000e1f920000b0007005f
:100590000000e00006003500e1f92000a000200086
:1005a0004c0007008000eb000000e00001003d006f
:1005b0008080eb000100780000000600889fbe00ec
:1005c0008a9fbe0000057800810478002d00370066
:1005d000c900900069009000808f5000040039002d
:1005e00009007800610007000000e00035003500d8
:1005f000004020001900600009003200a100200026
:100600000a0078009c000700800578000000e000e8
:10061000040032000a0050000004e8000400370023
:10062000800578000a0078009e000700000478002a
:10063000c90190006900900003005000880f50002d
:1006400002003100000478008005eb00080178000a
:100650008a0078000300780099000700080545002b
:100660004900900000004400c00498000b00e00026
:100670000400320009007800980007000000e00044
:1006800010003a001a04e000d1ff3a000080200078
:100690001900600004003200090078008f00070094
:1006a0000000e00007003a0000c0200019006000d0
:1006b0000500320049009000e00498000000eb00c3
:1006c000010037000080eb004f05be004f04be0064
:1006d00000000600889fbe008a1f78008004780012
:1006e0000104780000457800c10090006800900087
:1006f000808f500004003900080078001b000700bc
:100700000000e0001500350048009000095878000e
:10071000400498001800780000b8a30004003a00d4
:1007200000a8a30006003200ea4f550004003a007a
:1007300008007800690007000000e00007003a00a8
:1007400000c0200018006000020032004800900045
:10075000600498000a80fb00010037000080eb0075
:100760004f0578004f04be0000000600889fbe00c1
:1007700000047800c0019000600090008000eb0051
:10078000808f5100390039001801780020002900bd
:1007900000006100e20f500007003200002020003e
:1007a0000200e0000100350000202400000c710070
:1007b0008080eb002d003700010026000100610061
:1007c000810f500008003a0038009000808f5100df
:1007d0000500390008007800400007008080eb0029
:1007e0000000e00021003a0000c020001800600076
:1007f00017003a00a80490006002200008004000a2
:10080000808f540012003a00002020007000070082
:1008100080007800200498000000e00005003a0005
:1008200029049800490498000900e8003004980061
:10083000060037001860a000400498000020b000b7
:1008400030049800410c9800510c9800b200070049
:100850002800900050049800380090006004980030
:1008600000002600180c70008000eb0001007800ea
:100870004f04be00000006008001eb00104178002c
:10088000814f510001003a00800178000204e0002d
:10089000020032000000e800f8ff37000300780093
:1008a0000000060080007800010037000000e8002a
:1008b0001004e000fdff3a000100500000000600b7
:1008c0008001eb000200370061f079008301e8004d
:1008d000828f5100fcff3a0000000600889fbe0096
:1008e000000478000000e0000e003a008004780068
:1008f00068f62000180078000000e00004003200d4
:10090000f6ff07000000e00001003d008084eb00de
:100910000884e80060f72000800f540029003200ae
:10092000f4ff3700000022001800600024003200ad
:10093000a8049000080037000901500038409000da
:100940000000fb0089007800d61d07000000e000d1
:10095000130034008084440048009000808f5400cd
:10096000f5ff390028009000400498001801780035
:1009700000c020000000610002003200a8009000ca
:1009800001003700b8009000000024000000610062
:100990000a003200610498008004eb00090037006f
:1009a000280090004004980060049800500c9800c3
:1009b0001890a0008084eb0002003700510c9800d2
:1009c00080047800090078004f04be000000060093
:1009d000889fbe00e30440000900a100808f5400fe
:1009e0004a003600e38f540001003e004900200019
:1009f000628680000200e00002003200820078007f
:100a00000c003700e10c210003003700908f5400e8
:100a1000230036008080e800110078000000e0002c
:100a2000faff3a000f003700908f54001c00360088
:100a30008080e800110078000000e000faff3a0032
:100a400012017800e10c210003003700908f540060
:100a5000130036008080e80011007800820f5000fb
:100a6000faff3a0058868000890f540001003100d7
:100a700009047800080078007f0007000000e0000b
:100a800004003a00890f5400200032000804d1000d
:100a9000f5ff3700081878007e000700d4ff370004
:100aa000110178009201780064805100890f500094
:100ab0000300310012009000800878000700370022
:100ac000090041008008780092019000130098000e
:100ad000110078001288140009097800910078004c
:100ae0000100e00005003200110090000000e0006d
:100af000020032000180e800010037000000eb0036
:100b0000608688000280e800010037000000eb00ea
:100b10004f04be0000000600881f7800880e2100e8
:100b20001804e00004003a00406220008d00070035
:100b300020c0b300004c78004f047800000006008d
:100b4000889fbe000004780064ff070080047800de
:100b5000000420001800600002003200280090000d
:100b60004c0007000000eb00200498003840900083
:100b70000004e000050035000000fb00191d07001f
:100b80000000e000010032008084eb0018109000ab
:100b90000000e000080032007f0007000000e000d5
:100ba000010032008084eb0018109000390007002b
:100bb0000000eb00101498000008200018006000ee
:100bc000100032000000eb0061f62000910f1400cd
:100bd000070032000000e8008180e800e80f5000c4
:100be000faff3a00080078002a00070013003700d7
:100bf000000140008000eb0060f620000130790029
:100c0000f8ff3700000c780000c0eb00304498007b
:100c10006002200008004000200498004004980072
:100c200050049800400c980060049800500c980004
:100c30007004980076004400000c980009007800c9
:100c40004f04be0000000600881f780048f720000f
:100c5000180078000000e00001003200b8ff070033
:100c60000884e90040f62000800f5400f8ff3a00a5
:100c70004f047800000006000000e000030034008c
:100c80004e000700e10f400001003a000000eb00b9
:100c9000000006000000e000310032008080e90022
:100ca00091027800e38f52002d0036000508a30062
:100cb0002b003a00728680000200e0000200320041
:100cc000828f50000400310002087800718688008d
:100cd0001600370003017800920190000300e00045
:100ce00002003200818f5100faff390012027800b1
:100cf00004004100808f500019003900810f50001e
:100d000003003a000509420082007800070037001e
:100d10000300e0000300320005804000808f510096
:100d20000f00390093009800110198001101900004
:100d30000200e0000a00320011804000820f5000e3
:100d400007003a00c00c21000008eb0011009000e1
:100d50001101780090084100100090009000980068
:100d60000000060000017800000020000000e00004
:100d700008003200000080000000e00005003200a2
:100d80000000e90000008800000040000100800031
:100d900002b07800000006000a00fa0051002000ae
:100da000b1bf9f00c0bf9f006a80570000c0da003b
:100db0005fb897000080fa0000000600889fbe0020
:100dc00080047800508780000000e00003003a00b3
:100dd000100007000000e0000a0035005087800086
:100de0000900e00002003a00000478000600370025
:100df0000004780009004000060007000000e00041
:100e000001003d000084eb00080078004f04be00a4
:100e100000000600800078000000e00004003a00b6
:100e2000000020005087880001017800060037008c
:100e30000081eb0000002000808f500002003e0087
:100e4000518788000001eb000200780000000600d6
:100e5000839f68000100e00002003d006000100078
:100e6000e08018000300e00002003d006001110076
:100e7000e08119001f0107004f00e00002003b0065
:100e800060001000e080180000000600889fbe008f
:100e90008a9fbe00010578000100e00004003500d3
:100ea00008003c000000e000200032000500370090
:100eb00060001000e080180002003b0001f02c00f0
:100ec0001a0037000004be006011b8006b09200052
:100ed0000982cf00020039000882cf000441b0002f
:100ee000694252000e00320008003b00828171000e
:100ef000610164008904d1000884d3008b05e800f7
:100f00000442e800f9ff3a000500370008044400f5
:100f100089844c008b05e9000442e900fbff3a009c
:100f2000040107000af0a70001f0a0004f05be0071
:100f30004f04be0000000600889fbe008a9fbe00ce
:100f40008c1f7800210107002801330003866c0004
:100f50006450e100240032006420e10027003200e8
:100f60006150e100220032006120e10021003200e6
:100f70008b854200eb07b1000134b800003ab8009d
:100f80000804420089844a00013ab8000030b800e1
:100f90008880400009014a0004003300000040003e
:100fa00081804800020149008b05e900c909dd0084
:100fb000830170000100320013002000c814de001d
:100fc0004814dd004709de001200b200c808de0048
:100fd00008847000d700070001f0a1000cf0a70002
:100fe00001f0a0000a0137006120e1000c0132008d
:100ff0000801be000200be00f7ff37006150e100ab
:10100000fcff3a0006013700889fbe008a9fbe00a1
:101010008c1f7800ed000700f400330003866c009d
:101020006450e1002e0032006420e1003300320001
:101030006150e1002f0032006120e10031003200f8
:1010400085855500eb07b00009002000080420004a
:10105000050037000804440089844c000a00310070
:101060000603430087834b000001530081815b002e
:10107000f8ff33000203be000800a000080444008b
:1010800089844c00f6ff3900c639dd008301730006
:1010900001003200130020008904d1000884d3002d
:1010a0000998a300050032000800a7000300a00073
:1010b0008904d1000884d3008b05e8008904d1009d
:1010c0000884d3000001eb000281d20099000700e0
:1010d00001f0a1000cf0a70001f0a000cc00370047
:1010e0006420e100ce0032000801be000200be0014
:1010f000f7ff37006120e100c90032006000b8004e
:10110000f3ff37000000200001f82700f0ff370050
:1011100003f0a200889fbe008a9fbe008c1f78004b
:10112000aa000700b10033006450e1004f00320014
:101130006420e1005200320003826c0007003b0093
:101140000905d0000306d000820f54000c065d0094
:10115000020039000200320089017800030678009d
:101160008582550004003d000003fd008103fd0061
:101170008502ea008b854200840f720002003b006a
:1011800060001000e08018006011b8000005eb005e
:101190007a28e1000a00390006007800c75ddd000a
:1011a000f707b200878075002d003700828171003b
:1011b0000a017800610560008180d1000080d300c1
:1011c0008502e900f9ff3b000604400087844800df
:1011d00002003b0060041400e0841c000988a300a6
:1011e000070032008a817100828171006101640010
:1011f0008904d1000884d3008b05e800170037006c
:101200000978a30013003a000b00e000130034003b
:101210008b05e9000804440089844c000a447400ea
:101220000978a3000d003a000b00e000070034002d
:101230008b05e9000804440089844c0001003a0051
:101240000b0020000978a300f7ff32000001eb003b
:1012500002003700828171000a0178003500070022
:101260000cf0a70001f0a000690037006420e10045
:1012700002003a00838f6c00690033000801be0051
:101280000200be00620037000001be0067000700d8
:101290000470a70003f0a10003f8a30013003a00b4
:1012a0006509b10010003200090035006928e1002d
:1012b0000200350001002800000005000000400089
:1012c000818048008502e900fcff3a00000006002a
:1012d000f88f4200050035008100d1000080d30066
:1012e0008502e800fcff3a00000006008000eb00e9
:1012f000000005006022b800060220000000d000b7
:101300008180d2000482d2008582d2000000a00039
:101310000202520083825a0003003100020242009e
:1013200083824a000000a1000603e900f3ff3a00af
:101330000000060081002000618055000b003d0088
:101340000b00200061fe2f000100e1001d003400b1
:1013500082817100610164008904d1000884d30096
:101360000000e800faff3a0071002000610064000c
:1013700003007000020060000900320061044400b4
:10138000e0844c000988a500050032008b05e800c8
:101390006808e10002003a008904d1000884d30003
:1013a000f20f20000258e10005003d00c75ddd009e
:1013b000f907b20089807500080078000000060077
:1013c0000bf827008b007800000005000004be0029
:1013d000160007000003be000405be000200be00a8
:1013e00012000700844f7500000006000200be00d6
:1013f0006450e100050036006420e1000200360080
:101400000968a30001003a000800be000160a000c6
:101410004f0678004f05be004f04be0000000600d6
:10142000f0ff2f00f1ff2700f9ff3700c70ade00a9
:10143000f107b200f50fb20008003200e1cf420020
:10144000020032000170a00024000500810f70002e
:10145000010032000408050044000500810f7000ff
:1014600002003a00140005008502e9000000400077
:1014700081c04800fcff3b000170a0002400050073
:020000040000fa
:020000040001f9
:0457f8009f690000a5
:020000040000fa
:020000040001f9
:0457fc00f80f0000a2
:020000040000fa
:1000080048410000484100004841000048410000c4
:1000180048410000484100004841000048410000b4
:10002800484100004841000048410000ea1900002a
:10003800484100004841000048410000723a000071
:10004800bc3f000048410000484100002027000054
:10005800e0280000484100004841000048410000f5
:100068004841000048410000484100004841000064
:100078004841000048410000484100004841000054
:100088004841000048410000484100004841000044
:10009800b232000048410000fe2700008629000017
:1000a8004841000048410000484100004841000024
:1000b8004841000048410000484100004841000014
:1000c8004841000048410000484100004841000004
:1000d80048410000484100004841000048410000f4
:1000e80048410000484100004841000048410000e4
:1000f80048410000484100004841000048410000d4
:1001080048410000484100004841000048410000c3
:1001180048410000484100004841000048410000b3
:1001280048410000484100004841000048410000a3
:100138004841000048410000484100004841000093
:100148004841000048410000484100004841000083
:100158004841000048410000484100004841000073
:100168004841000048410000484100004841000063
:100178004841000048410000484100004841000053
:100188004841000048410000484100004841000043
:100198004841000048410000484100004841000033
:1001a8004841000048410000484100004841000023
:1001b8004841000048410000484100004841000013
:1001c8004841000048410000484100004841000003
:1001d80048410000484100004841000048410000f3
:1001e80048410000484100004841000048410000e3
:0801f8004841000048410000ed
:020000040000fa
:1002080048410000484100004841000048410000c2
:1002180048410000484100004841000048410000b2
:10022800484100004841000048410000ea19000028
:10023800484100004841000048410000723a00006f
:10024800bc3f000048410000484100002027000052
:10025800e0280000484100004841000048410000f3
:100268004841000048410000484100004841000062
:100278004841000048410000484100004841000052
:100288004841000048410000484100004841000042
:10029800b232000048410000fe2700008629000015
:1002a8004841000048410000484100004841000022
:1002b8004841000048410000484100004841000012
:1002c8004841000048410000484100004841000002
:1002d80048410000484100004841000048410000f2
:1002e80048410000484100004841000048410000e2
:1002f80048410000484100004841000048410000d2
:1003080048410000484100004841000048410000c1
:1003180048410000484100004841000048410000b1
:1003280048410000484100004841000048410000a1
:100338004841000048410000484100004841000091
:100348004841000048410000484100004841000081
:100358004841000048410000484100004841000071
:100368004841000048410000484100004841000061
:100378004841000048410000484100004841000051
:100388004841000048410000484100004841000041
:100398004841000048410000484100004841000031
:1003a8004841000048410000484100004841000021
:1003b8004841000048410000484100004841000011
:1003c8004841000048410000484100004841000001
:1003d80048410000484100004841000048410000f1
:1003e80048410000484100004841000048410000e1
:0803f8004841000048410000eb
:020000040000fa
:08040000563400001200000058
:020000040000fa
:080408001120000002180000A1
:020000040000fa
:1014800043f1000079800000d9cb000053e3000055
:101490004cb00000d1b7000030300000677e000083
:1014a000e70200009bdc000013cb00006767000030
:1014b00072bf00004d910000a39c000022d40000e8
:1014c000da840000f54400005c2800009ff500006d
:1014d00097fa000048b000002d650000277f00004b
:1014e0005ad60000568c0000492600009d78000066
:1014f000d1a10000defa000002d600002869000039
:10150000712f0000ab6f000024d20000d2620000f7
:101510006112000044090000d05b00003c4a00005a
:10152000962700006c6a000010120000e6d0000050
:101530002acd00009dff00008aee00006906000031
:10154000f7cb000074ef0000f7fb00008863000099
:10155000b6570000dbce0000cc7e00007d9200007c
:1015600017bf0000b30300003e3f00006f040000ff
:10157000d4dd0000f7260000e7550000565b0000b0
:10158000f7b60000ce7a000022e900007ffa0000e2
:10159000497f00002062000035270000b6410000ae
:1015a000713000007c470000e3700000b7e50000e8
:1015b0002cf100002b5d000000c700005ec500009c
:1015c000e59f00004d09000043a80000b1e00000c5
:1015d000f53f0000941d0000111a0000e58c00008a
:1015e00079880000b18a0000cbc300008a5b00004c
:1015f000c20500001d0600006d4f00000b7f0000bb
:10160000d9a30000ebb9000019a40000cd7b0000b5
:10161000973e000010450000d813000064ea000067
:10162000cc4900001c3e0000be590000b16f000014
:101630009b2500005ca1000025ed0000661f000056
:1016400026e700008b0e000036050000de040000d7
:101650007384000016a70000f0820000d06500002f
:10166000e0ab0000578c00008bb8000051c10000b7
:1016700067c40000b2b100004ac90000e452000093
:10168000e76b0000e4d900004bbb000086c10000fe
:10169000b84e000038e0000085b40000b57a0000c4
:1016a0005aa100006aff0000b5920000e399000013
:1016b00059410000f8bb0000dad2000084ed0000c0
:1016c0007c410000b24000005a080000e90600001a
:1016d000bbae0000c65000007e1c000016040000d7
:1016e0003d1b0000b60a000037c20000058700005d
:1016f000de4a00003aad0000f97b000092110000c4
:1017000063040000b1260000470a00005693000061
:101710000a680000042f000089d4000005180000aa
:101720001069000050f0000025f5000079ec000081
:101730009588000025ae0000c4f7000053de0000cd
:10174000b9ab0000b9320000e01300005100000006
:101750000568000079920000f8e3000075bb000006
:10176000f645000020a10000c97200009976000033
:10177000510c0000472b00008dd80000398c000070
:10178000ca180000173a00004d690000c167000048
:10179000f77d000029950000819c00007de300009a
:1017a000b34500004135000073340000de4e0000f8
:1017b000e8c0000059130000ceef000047600000b1
:1017c00011a30000d5770000a1310000030b000039
:1017d000f9b900000a9f0000a0190000419b000019
:1017e00056980000093e000065770000edda000021
:1017f000073e0000b332000064f30000421700000f
:101800003e6f0000b2df00004c350000333c0000aa
:101810003303000092ac0000f7300000fc6e0000c3
:10182000f41f00003b8a0000a3c70000af44000083
:10183000aac8000098500000f7c40000a67200007b
:10184000515e0000f8f40000161c00007c26000029
:1018500036bb00009a6700001489000017de000004
:1018600044e1000071060000751d0000d4770000ff
:1018700030e4000086d8000069440000b6ff000094
:10188000f40100000a00000006000000fa00000059
:101890000a000000c8000000fa0000000500000077
:1018a00000000000fa0000000e0000000000000030
:1018b0004d0100003200000006000000fa000000a8
:1018c0003200000032000000e2040000c800000006
:1018d00000000000fa0000001e00000000000000f0
:1018e000f40100002800000064000000fa0000007d
:1018f00014000000c8000000f40000001400000004
:1019000014000000fa0000000600000006000000bd
:10191000fa0000000600000006000000fa000000c7
:101920000600000006000000fa00000006000000ab
:10193000b0040000fa0000001400000014000000d1
:10194000fa000000f4010000f4010000fa000000b9
:10195000f4010000f4010000fa000000f4010000ae
:10196000f4010000fa000000140000001400000060
:10197000fa0000001400000014000000fa0000004b
:101980001400000050000000fa00000050000000a9
:1019900014000000fa000000500000005000000099
:1019a000fa0000001400000014000000fa0000001b
:1019b0001400000014000000fa00000014000000f1
:1019c000f4010000fa000000140000001400000000
:1019d000fa0000001400000014000000fa000000eb
:1019e0001400000050000000fa0000005000000049
:1019f00014000000fa000000500000005000000039
:101a0000fa0000001400000014000000fa000000ba
:101a10001400000014000000fa0000001400000090
:101a200014000000f40100000100000000000000ac
:101a3000dc0100000100000000000000c701000000
:101a40000100000000000000b301000001000000e0
:101a500000000000a10100000100000000000000e3
:101a60009001000001000000000000008101000062
:101a700001000000000000007201000001000000f1
:101a800000000000650100000100000000000000ef
:101a90005901000001000000000000004d0100009d
:101aa00001000000000000004301000001000000f0
:101ab00000000000390100000100000000000000eb
:101ac0002f010000010000000000000026010000be
:101ad00001000000000000001e01000001000000e5
:101ae00000000000160100000100000000000000de
:101af0000e010000010000000000000007010000ce
:101b000001000000000000000001000001000000d2
:101b100000000000fa0000000100000000000000ca
:101b2000f40000000100000000000000ee000000d2
:101b30000100000000000000e900000001000000ba
:101b400000000000e30000000100000000000000b1
:101b5000de0000000100000000000000d9000000cd
:101b60000100000000000000d5000000010000009e
:101b700000000000d0000000010000000000000094
:101b8000cc00000001000000000000004d0100003a
:101b90003200000006000000fa00000032000000e1
:101ba00032000000fa0000003200000006000000d1
:101bb0004d01000032000000320000000200000071
:101bc000408c000004000000030000004c8c00006a
:101bd0000200000004000000528c0000020000001f
:101be00005000000588c0000040000000600000002
:101bf000648c000002000000070000006a8c0000f6
:101c00000500000008000000768c000003000000c2
:101c1000090000007c8c0000030000000a000000a6
:101c2000828c0000090000000b0000009a8c00006c
:101c3000030000000c000000a08c00000700000062
:101c40000d000000128d00003d0000000e0000009d
:101c5000c68d0000040000000f000000d28d0000bf
:101c60000400000010000000b28c00002000000002
:101c700016170000181900001b1d00001e1f000091
:101c80002123000025260000282a00002c2e000019
:101c900030320000343700003a3c00003e40000083
:101ca00043460000484b00004e51000054560000cf
:101cb000595c00005f620000656800006b6e000008
:101cc00071740000777a00007d8000008385000039
:101cd000888b00008e91000094960000999c000073
:101ce0009ea10000a3a60000a9ab0000adaf0000bc
:101cf000b2b40000b6b80000babc0000bfc000001b
:101d0000c2c40000c6c80000c9cb0000ccce000091
:101d1000d0d10000d2d40000d5d60000d8d9000020
:101d2000dadb0000dcdd0000dedf0000e0e10000c7
:101d3000e2e30000e4e50000978c0000818e0000e3
:101d400095820000a095000083840000968b00001f
:101d50000b06000001080000070200000e09000049
:101d6000030400000a0500004c450000445f000029
:101d70005245000051200000414300004b0000008c
:101d80000303000003000000010300000200000044
:020000040000fa
:101d9000881f780050bf2000104078006840600025
:101da00011002000c1003a0092028000ff3ffc00b9
:101db00000ceb3004260b7009202880010c0b300aa
:101dc000700a07000004e00008003a0050bf20003d
:101dd000104078006440600004003200105f800012
:101de000120020000000e000010032000001eb00c2
:101df00091028000ff3ffc00f0c1b3004260b600da
:101e0000910288000204e0009c003200a00b210037
:101e10000048eb00206180003161800061004000db
:101e2000e0804800206188003161880050bf2000b8
:101e30001024a100a31607008000eb009b003700d0
:101e40000001eb005100200020be2000d707070052
:101e50000060fe00a00b210010407800e24f50000f
:101e60002300320005003e000004e00008003200bc
:101e7000e14f50007f003a0015003700e34f50005b
:101e80002d003200e44f50007a003a003d00370048
:101e900010c0b300af0a070061d02000804878006e
:101ea00040c5b300914f1000030032000040e8002d
:101eb000914f100071003a0011c0b300a00b210037
:101ec0000148780050bf20001024a0006b003700ac
:101ed00010c0b3009f0a070071d02000804878002e
:101ee00021c0b300a00b2100014878006300370037
:101ef00010c0b300970a070082d020000049780084
:101f000031c0b300a00b21000148780070d0200040
:101f100090407800c808dd001280fb0080804000ff
:101f2000b1858800c00b2100911607003000200009
:101f3000c085880051003700c885800010c0b300fc
:101f4000840a070080407800c00b21007516070046
:101f500062d0200000747900c18580006140790062
:101f60000080fb00680040001061880042c0b300a0
:101f7000a00b2100024878008100e800c18588009c
:101f80003e003700c1858000700c2000808f50001b
:101f90002a003e00e78f50000c003a0061d020007c
:101fa00050c5b300914f100008003a00c0bf200098
:101fb000b185800090804000e0bf2000908040000c
:101fc000b1858800c00b21006916070010618000f0
:101fd000c88580000000e900880f50000d003e0019
:101fe00010c0b3005b0a070080407800c00b2100de
:101ff0004c16070061d0200000f47800a00b2100ef
:102000000048eb0050bf20001024a1001034a000b5
:102010001a00370010c0b3004e0a07008040780055
:10202000c00b21003f16070061d0200000f47800ab
:102030000800e800c0858800100037000100e800b3
:10204000c085880010c0b300420a070011618000fb
:10205000c0858000810f500008003900a00b2100ce
:102060000048eb0050bf20001024a1001516070007
:1020700002003700a00b21000048eb0010c0b300a5
:10208000c00907000004e0000400320050bf200037
:10209000104078006840600069ff320050bf2000a7
:1020a0001080fb004300de00e100600001007800ca
:1020b0004f04780000000600881f780068d02000d8
:1020c000116180008180e90070d020002e0007009f
:1020d000116180008100e900e1407c00814f5000e7
:1020e0001a003a00d8409000b0bf200090cf5000b6
:1020f00004003200e1cf400002003200eecf400089
:102100001e003a004a15070060bf2000104078000a
:102110007040600005003200019e2100023e29004f
:102120004300200000bf20007307070060618000ab
:102130007161800061004000e080480060618800bb
:1021400071618800100020000d00370040c5b30009
:10215000984f100009003a00da150700206180004e
:102160003161800061004000e0804800206188000b
:10217000316188000000eb00010037000000eb0037
:102180004f047800000006008001780000804000c5
:102190000042eb00808f5100080031000042eb004c
:1021a0000001eb00830050006340790000424200d0
:1021b0000201e800810f5100fbff3a000480fb00a0
:1021c00000000600889fbe0069d02000d8d0200003
:1021d000b9ff07000004e000b500320050bf200046
:1021e00001c2b30010c060000c003200d940900062
:1021f000b0bf200090cf500008003a0092c0b3005a
:10220000984f11000300320040c2b300984f1000f5
:1022100002003a0050bf20001054a10050bf20001f
:1022200001c2b30010c060000600320042c0b3001b
:10223000984f11009e003a0018409000e34f500064
:102240009b003a0050bf200001c4b30010c06000e2
:1022500009003a00d1d0200092c0b300914f110084
:102260000500320040c2b300914f1000020032005e
:10227000941507008e003700fa000700d94090003f
:10228000e1cf40000d003a0040c0b300984f10006d
:1022900087003a0018409000e84f500020003200bc
:1022a000e24f50001e003200e34f50001c0032008d
:1022b000e14f50007e003a0019003700eecf400099
:1022c00017003a0042c0b300984f110073003a0063
:1022d00018409000e84f500011003200e24f5000cb
:1022e0000f003200e34f50000d003200e14f50006c
:1022f0006a003a000a003700d2d0200030c4b30090
:10230000924f1000060032000040e800924f10008b
:10231000030032000040e800924f100064003a00d1
:10232000494090006340600000c0e900e14f500068
:1023300005003e00b0bf200090cf50005c003a0086
:10234000e90007005a003700210c2100d0d02000fe
:102350009048780091407800facf50004a0032004f
:102360000b003e00e9cf50003800320003003e0071
:10237000e4cf500047003a0014003700eacf500085
:102380002f003200ebcf500042003a002900370006
:1023900030c4b30080cf50003200320004003e0051
:1023a0007f40500080cf50003a003a002a003700aa
:1023b00040c4b30080cf50002d0032000040e80040
:1023c00080cf500033003a002c00370018409000b6
:1023d000e24f50000c00320003003e00e14f50007d
:1023e00012003a0005003700e34f500009003200a8
:1023f000e84f50000d003a000900370039409000c6
:102400003c0107002a0037003940900061010700b5
:1024100027003700394090006d0107002400370085
:1024200039409000e3000700210037002200070038
:102430001f00370039409000c10007001c00370022
:1024400039409000650207001900370039409000bc
:102450002e03070016003700394090000f030700d5
:102460001300370039409000540307001000370074
:1024700039409000820307000d003700394090007a
:10248000ae0307000a0037003940900097010700ab
:10249000070037000800070005003700d0d02000f3
:1024a00092c0b300904f110093ff3a009cff370099
:1024b0004f04be000000060060d02000d040900015
:1024c000b0bf200090cf500001003a008600070006
:1024d000000006000400fa00889fbe008a9fbe002c
:1024e0008c9fbe000046780001447800ebc32000ba
:1024f0008512070080067800800078007080570001
:102500001b1507001ff09700904598000ff09700eb
:10251000a0459800bc4598000c85fb000804e0002d
:10252000030032004b4090000030a000c0459800ee
:1025300067044500f9c32000e60045000900780063
:1025400011ff0700e2c32000007479006804450011
:1025500091028000ff3ffc0000e620001048e800e8
:1025600091028800d4e2a8001280fb0011c0b300e1
:102570003d0907001980fb0011c0b3003a090700ac
:1025800000c420001080fb0011c0b3003609070012
:1025900039002000890f54000d003e00160037005e
:1025a000e78f54000a003a0050c5b3009b4f10005b
:1025b00007003a00c0bf200090804600e0bf200026
:1025c000908640008d00780070805700e814070066
:1025d000e0c32000e940780070805700bf14070076
:1025e0000080fb0011c0b3001f0907008904e80048
:1025f000890f5400eaff3a0033c2bf000008a3006d
:10260000fdff3200d4e2a90091028000ff3ffc00f0
:1026100000e620001048e900910288004b4090003d
:102620000080fb004400de00c1c320008048780029
:10263000d0c320000c487800806180009161800048
:1026400061004000e080480080618800916188005e
:102650004f06be004f05be004f04be000080fa00ca
:102660000000060063d02000e2c320001349780078
:102670000040eb0030419800434090006340600010
:10268000e14f500005003a00424090000000a100d8
:102690000010a00040419800040037004240900024
:1026a0000000a1000010a1004041980042409000ad
:1026b0000020a000c34090008180fb00c408de0021
:1026c000c408dd0067406000014070004041980090
:1026d000e341900053419800b0bf200010407800c3
:1026e0006041980000000600881f7800e8c32000c1
:1026f0007414070050bf200001c4b30010c0600074
:102700000d003200484090000000a0000010a00022
:10271000404498008040eb00014078006dff0700c6
:10272000206180003161800061004000e08048004d
:1027300020618800316188004f04780000000600a5
:1027400051c42000e14f500002003200e6ff0700b4
:10275000170037008048eb0040bf20001040780091
:10276000614060000200320010c0b3008048780071
:1027700050bf20001040780061406000020032002d
:1027800000c8b30080487800d06080009040980076
:1027900000618000b0409800006180004800de00c9
:1027a000a04098008040eb0040c0b30049ff070004
:1027b00000000600881f7800d8d0200061d02000db
:1027c000e54f500006003200d1409000b0bf20001d
:1027d00090cf500045003a00c3ff07004300370088
:1027e0004140900063406000e14f500007003a0014
:1027f000d1409000b0bf200090cf500003003a00bd
:102800008040eb000140780032ff07004840900014
:102810000080fb0001002000384190004811dd00dd
:102820000300200000004100818049002841900001
:102830008281fb00020020000000410081804900ed
:1028400092f907000200200003182400baf90700db
:102850000001be000040220041b72400eaf9070051
:102860000200200003f8230029fa070002002000dc
:1028700003f0230027fa070083fa0700000478001a
:102880000001eb0041062000000c21004705070075
:102890000004e000030032000a14070001003700c2
:1028a0000060fe0010c0b300c30807000004e00091
:1028b00003003200008680000000e000f8ff3a00cc
:1028c000c811880060bf20001044a000019e2100b4
:1028d000023e29004300200000bf200086050700bb
:1028e0000004e00001003200b50207004f04780048
:1028f0000000060061d02000e34f500006003200c7
:10290000d1409000b0bf200090cf500020003a008e
:1029100075ff07001e0037004140900063406000d3
:10292000e14f500007003a00d1409000b0bf2000b6
:1029300090cf500003003a008040eb000140780047
:10294000e4fe07000001eb0041062000000c21001e
:10295000160507000004e00003003200d913070049
:10296000010037000060fe0010c0b30092080700ad
:102970000004e00003003a008f0807000004e000b4
:1029800003003200008680000000e000f5ff3a00fe
:102990000000060061d020004140900063406000cc
:1029a000e14f500007003a00d1409000b0bf200036
:1029b00090cf500003003a008040eb0001407800c7
:1029c000c4fe070050bf20001054a0000000060005
:1029d00061d02000e24f500004003a0050bf2000b8
:1029e00002c2b3001040610006003a00d1409000de
:1029f000b0bf200090cf50000f003a003aff070010
:102a00000d0037004140900063406000e14f5000ee
:102a100007003a00d1409000b0bf200090cf500096
:102a200003003a008040eb0001407800a9fe070057
:102a300050bf20001054a1000000060000037800e1
:102a4000814278000202780053c4200013409000b5
:102a50000080fb000080e8000001eb00e10b20009b
:102a6000810f50000d003e00160178008280e800c2
:102a700085f079006301410004f179008180e8006c
:102a80004820de0080f07900020b780013409000af
:102a90000040e800904198001200200002007800f9
:102aa00000000600000278008142780052c4200035
:102ab000924090008001eb00e0cbb30080cf50004b
:102ac00008003e00940078000180e800057079005d
:102ad000010ae800124090000040e8001041980010
:102ae0001300200003007800000006000200fa0036
:102af000881f780062d0200070c0b300c0ff9f0024
:102b0000820278000043eb0007dd2000c3c02000f4
:102b1000a4c020009d0037004ff897000040e80057
:102b2000c0ff9f00cff897000180fb0061d020001c
:102b300060c07800fb4f500094003a004ffc9700b3
:102b40000844e800c8ff9f004ffc97000880fb0086
:102b500060c078000080fb00010020006100500090
:102b6000e0805800fe0f5000e08f580087003e00c4
:102b7000006001001e00370084003700830037002a
:102b80008200370081003700800037007f00370067
:102b90007e0037007d0037007c00370014003700ce
:102ba0007a003700790037001500370077003700ca
:102bb0001700370016003700150037000c003700eb
:102bc0007200370071003700700037006f00370067
:102bd0006e00370012003700090037003700370059
:102be0001300370002003700680037002600370066
:102bf0004ff897000040e800c0ff9f0063003700d7
:102c0000cff8970081c0e800c1ff9f005f00370048
:102c10004ffc970064444400c8ff9f005b003700ee
:102c20004ff8970065404000c0ff9f0057003700f5
:102c3000cff897008140e800c1ff9f004ffc97004c
:102c40000880fb0060c07a00d0ff9f00e0dc20001d
:102c500021c1b30090cf1000010036000648780073
:102c60005ff89700e1dc2000914f500047003200f0
:102c70005ffc97008848780011c0b300f0dc2000aa
:102c800001487800410037004ff897000040e80005
:102c9000c0ff9f00cff897000180fb0060c07a0062
:102ca000e14f50000300360070c0b300804b780045
:102cb00036003700864b7800340037004ffc970011
:102cc0000844e800c8ff9f00cff897000180fb0090
:102cd00061d0200060c07800f24f500013003a002d
:102ce0004ffc97000844e800c8ff9f004ffc970086
:102cf0000880fb0060c078008049e900144078003b
:102d0000934f500021003a00512c20009140780050
:102d1000e1c06000c208dd00c5c2bf000024a10000
:102d200001407000c5e2b70018003700cff89700e7
:102d30000180fb0061d0200060c07800f34f50009c
:102d400012003a004ffc97000844e800c8ff9f00bb
:102d50004ffc97000880fb0060c07800004ae90043
:102d600014407800934f500008003a00512c200086
:102d700091407800c208de00e1806000c5c2bf005b
:102d80000004a10001407000c5e2b700cff8970031
:102d9000106180008180fb000080e900808f50007e
:102da0005dff39004240900063406000e14f5000f9
:102db00007003a00d2409000b0bf200090cf5000f2
:102dc00003003a008040eb0001407800c1fd07009d
:102dd0004f0478000080fa00000006000200fa00ac
:102de000889fbe0059c42000e14f5000020032000d
:102df0003dfe0700a600370060d020004040900054
:102e00000080fb004400de00c1c320009180fb0075
:102e1000810f500005003a00d0c320001040780018
:102e20008040eb00abfd070099003700e0c0b30025
:102e3000804c78000040eb0090449800700c21001a
:102e400090407800400c210090cf500017003200d5
:102e5000d0c0b300804c78000000eb00d0bf9f00d2
:102e60000060fe008180fb0040ff2000e140780010
:102e7000668057000bff0700720c21009240e800ab
:102e80000149780000c5b30080cf50000100360032
:102e90000049eb00700c210090407800400c2100ac
:102ea00090cf50006f003200edff3700e0c0b3005c
:102eb000804c78000040eb00904498008000eb00cc
:102ec000d1bf9f0048bf200001c4b30018c06000fc
:102ed0000700320031cbb30066805700f1fe0700d7
:102ee0000004e000020032001864a1006b12070029
:102ef00048bf20001804e00007003d0041cbb300ac
:102f000066805700e7fe07000004e0000200320080
:102f10001874a1006112070058bf20009840780083
:102f200061c0600006003200c1c9b300668057006e
:102f3000dcfe07000004e000010032001804a100dc
:102f400042bf20009280fb008100d100e1c0600000
:102f50001280fb004200de006140600080cf500024
:102f600004003a009240780061c0600001003a001d
:102f70001214a10048bf20009880fb008100d100fe
:102f8000e1c060001880fb004200de00614060008c
:102f900080cf5000110032009840780062c060007d
:102fa00007003200d1c9b30066805700bdfe07009c
:102fb0000004e000090032001824a00007003700d8
:102fc000e1c9b30066805700b6fe07000004e000c8
:102fd0000200320040bf20001024a10042bf2000a8
:102fe0009280fb00c408de00e1c060001280fb009c
:102ff0004500de006140600080cf500004003a00d0
:103000009240780068c0600001003a001244a100bc
:1030100048bf20009880fb00c408de00e1c06000cb
:103020001880fb004500de006140600080cf50004a
:103030000c0032009840780070c060000700320039
:1030400081cdb3006680570096fe07000004e000c3
:10305000040032001854a0000200370040bf2000d6
:103060001054a100194090000004e0000500320057
:10307000aff8970001c0e8008040eb0015fd0700a5
:10308000030037008040eb000140780011fd07008d
:103090004f04be000080fa000000060053c4200068
:1030a000e14f5000020032008ffd0700160037008c
:1030b00020c0b300804978008040eb009141980027
:1030c00050c1b300a041980010c1b300b0419800b6
:1030d00090c0b300c0419800e1419800d1419800f0
:1030e000f25f80004810de00f041980082499800ad
:1030f000e25f80004810de0090499800a2499800e5
:10310000b0c0b300f3fc070000000600889fbe00bb
:10311000d9d0200061d02000414090006340600081
:10312000e14f500007003a00d1409000b0bf2000ae
:1031300090cf500003003a008040eb00014078003f
:10314000e4fc0700594490000808a3000200320084
:1031500069409000110b07000818a300030032001b
:1031600011c0b300000e21000148780069409000b2
:103170000a0b070000dd2000f944900009487800a0
:1031800011c0b30090cf100002003e000048eb00d9
:103190000300370071c0b30000dd20000148780053
:1031a00051bf200002c4b3001140610001003a0089
:1031b0001164a0004f04be0000000600881f7800c4
:1031c000d8d0200063d02000e54f500025003e00fd
:1031d000184190008080fb000280fb000080e80026
:1031e000808f50001f003a00e34f51001d003e0049
:1031f0004340900063406000e14f50000d003a00f2
:10320000d3409000b0bf200090cf500003003a00a0
:103210008040eb0001407800aefc070050bf20006a
:1032200010407800704060000200320040eb28003f
:10323000d5f40700184090000081fb000004e00076
:103240000d0032008880e8000000eb00a3c02000e1
:1032500031f079000000e800820f500006003100d4
:10326000fbff3700d3409000b0bf200090cf50004c
:1032700001003a001cfd07004f0478000000060022
:10328000881f7800d8d0200062d02000184090001d
:10329000f047b000d1c7b300814f50002000360086
:1032a00028409000f14f50001d003e004240900029
:1032b00063406000e14f500007003a00d2409000a8
:1032c000b0bf200090cf500003003a008040eb00d8
:1032d000014078007ffc0700e0dc2000a84090005f
:1032e0000148780011c0b300f0dc200001487800ec
:1032f0009840900000c8b30080cf50000d003e0001
:103300000180fb000000e90002012000110009001b
:103310000200d80001dd2000804878000500370059
:10332000d2409000b0bf200090cf500001003a0082
:10333000edfc07004f04780000000600881f7800ad
:10334000d8d0200062d02000e24f500004003a00a4
:1033500098409000a0ccb30080cf5000060036000b
:10336000d2409000b0bf200090cf500012003a0031
:10337000ddfc070010003700424090006340600011
:10338000e14f500007003a00d2409000b0bf20004b
:1033900090cf500003003a008040eb0001407800dd
:1033a0004cfc070010c0b300010e210080487800db
:1033b000184090007d0a07004f04780000000600c6
:1033c00000042000c011880060bf20001044a1004c
:1033d000000006003600f800809fbe00829fbe00fd
:1033e000849fbe00869fbe00889fbe003400f80008
:1033f00000002000a00188004200f8008460a900bd
:10340000cce2a900b06e80008001e800b36e8800b5
:10341000c06e80000000e800c06e8800c0de2000a2
:103420001000e000010032001008e900e0de20009a
:103430001000e000010032001008e90000e6200062
:103440001004e00003003200cce2a8004200f900c2
:103450007001370011c0b30000e620000148780079
:1034600091028000ff3ffc00f0c1b3004260b60053
:1034700091028800ea8f51009e003600a2002000d1
:10348000110009008281d800000178000100780055
:10349000e26e8800b06e880091028000ff3ffc0061
:1034a00000ceb3004260b700910288000000eb003c
:1034b000206f880088e42000c200dd000180e80061
:1034c000e0017c000300e0001e00320061017c008e
:1034d000e06e8000800f51000300360000005100b4
:1034e00080307c0017003700d36e88009102800086
:1034f000ff3ffc00f0c1b3004260b60091028800bb
:103500000300010000027800006f88009102800033
:10351000ff3ffc0000ceb3004260b700910288007c
:10352000206f80004201dd000280e80083e420007b
:10353000e0807900d06e8000810f500001003a00d9
:1035400004b17900206f80000000e800206f88003f
:10355000e50f5000d8ff360091028000ff3ffc00cd
:10356000f0c1b3004260b600910288009102800071
:10357000ff3ffc0000ceb3004260b700910288001c
:103580000000eb00206f88000001780048e1200077
:103590008004eb004210dd0060007c000000e000d1
:1035a00017003200e16e8000908f1000020036009c
:1035b0001088100012003700090878004210dd0062
:1035c00009307c000080e80060017c000200e0001f
:1035d0000b00320091028000ff3ffc00f0c1b300fd
:1035e0004260b60091028800020001009102800052
:1035f000ff3ffc0000ceb3004260b700910288009c
:10360000206f80000001e800226f8800e90f510060
:10361000e0ff360091028000ff3ffc00f0c1b300e4
:103620004260b6009102880091028000ff3ffc00da
:1036300000ceb3004260b700910288000000eb00aa
:10364000206f880080017800c8e320004218dd0068
:1036500060017c000200e0001c003200e06e80008f
:1036600001002000b20f1000a28f180003003600e6
:103670001219100012911800140037000009eb0015
:10368000321178004218dd008000eb0001307c0030
:103690000080e80060017c000200e0000b003200c6
:1036a00091028000ff3ffc00f0c1b3004260b60011
:1036b000910288000200010091028000ff3ffc009f
:1036c00000ceb3004260b70091028800206f8000f6
:1036d0008001e800236f8800e28f5100dbff360095
:1036e00091028000ff3ffc00f0c1b3004260b600d1
:1036f00091028800c16e8000ea8f5000c100360040
:10370000436f8000e18f510008003e00a2002000be
:10371000811f7800110009008280d8000001780024
:10372000cf00780002814100426f8800a200200093
:10373000110009008280d80001007800c06e880066
:10374000506f80000000e000030032000000e9003c
:10375000506f8800ab003a0092028000ff3ffc00ef
:1037600000ceb3004260b70092028800406f800034
:10377000e10f500005003e00cce2a80000e620006a
:103780000048eb004200f900a2003700cc42a9003b
:103790000000eb00c06e8800406f8800889fbe006c
:1037a0008a9fbe008c9fbe008e1f78003600f800f6
:1037b0003200f8004400f8003400f80060de200019
:1037c0001080fb006c00b9008000780002df200050
:1037d00060407900e24f50000c003a00f300800096
:1037e0006480400003307900688040006000790008
:1037f000808f510004003e00668040006000790028
:10380000808f510001003100df0d07008040eb0088
:10381000e0dd20000148780060de200001487800eb
:103820000000eb00206f88000001780080417800e4
:10383000804278000002780001df20001104e000df
:1038400008003200214090000004e0000100320036
:103850000402e800834f50000200360082427800e4
:10386000804178000201e800ec804000e30f510045
:10387000f2ff3a00e0dd20000348780060de20001f
:1038800005487800046f8800226f88000304e00078
:103890000900320005407800c2c0b3000440bc00fb
:1038a0000281e80001df200062c078000040e900ea
:1038b00000f17800130037000000eb00206f880053
:1038c00001df20000640200042e120001104e0005a
:1038d00007003200114090000004e00004003200b4
:1038e000a0409800107380000600700010738800dc
:1038f000ec804000828f5000f4ff3a00300020003e
:10390000206f8800e10f52000f003a00e1cf510014
:103910000d003a000000eb00206f880000df20005f
:1039200041e120001004e00002003200104190004c
:10393000224098006c004000808f5000f9ff3a0050
:1039400030002000206f88000582fb0005407800d1
:10395000c2c0b3000440bc0000df200000014100f1
:1039600012409000e14f500002003e002000200075
:10397000406f880050f620001004e000060032007e
:1039800043f62000134178008280fb0040e62000cf
:10399000857078008249e8006c20b90080007800ca
:1039a0006400400002df200060007900f000880021
:1039b00061407900e14f500009003a0020c0b30097
:1039c0008070790000e620000048eb00cc42a8009f
:1039d000cce2a8006a804000600079002a1207004b
:1039e0003400f9004400f9003200f9003600f90013
:1039f0004f0778004f06be004f05be004f04be00c3
:103a0000cc42a80000e620000048eb00cce2a80071
:103a10004200f9003400f9004f04be004f03be001d
:103a20004f02be004f01be004f00be003600f9003d
:103a3000004006000041eb0001df200043e12000d0
:103a40001104e000020032002140900000417100aa
:103a5000ec804000838f5000f9ff3a000204e00040
:103a600008003a0000df20001004e00002003200ed
:103a700010419000224098006c004000808f500060
:103a8000f9ff3a000000060060de200010407800d8
:103a90000042eb000001eb0001df20001104e00018
:103aa00006003200824f500004003200a141900015
:103ab00084cf510001003600034278000201e80083
:103ac000ec804000e30f5100f4ff3a000404e000f2
:103ad0000c003200c2c0b3000440bc000281e80008
:103ae00003df2000e2c079008180fb000480fb003e
:103af0000000e900808f5000020034000440e9001b
:103b000000f1790000000600c2c0b3000440bc0010
:103b10000203780005df200012c0b30002f37a0030
:103b20004a00dd00e601430082bf2100020140009f
:103b300082b17a006802430073ff21000300400055
:103b400000b27a0060db2100000978000000eb0081
:103b50001001980021019800300198006400430092
:103b60006801410002b07a00000006008001eb000d
:103b7000536f880092028000ff3ffc0000ceb3002c
:103b80004260b7009202880060de2000104078009a
:103b90000004e0000f003200c2c0b3000440bc00cb
:103ba00001df200003f178000280e80003f07800d4
:103bb00001004100134098006400410003b0780008
:103bc0006800410003b078006601410003b178004d
:103bd000050037000040eb0021df2000804878001e
:103be00011df20008048780091028000ff3ffc0038
:103bf000f0c1b3004260b60091028800ffff3700b9
:103c0000800078000000e00005003a00107380009a
:103c100000d0a000107388001000200003003700bf
:103c200060de2000904878000000eb0000000600f5
:103c3000506f88000000eb00000006000000eb0061
:103c4000506f880000000600881f7800180280006e
:103c500091028000ff3ffc0000ceb3004260b7003d
:103c60009102880088ff07000000eb00506f880079
:103c7000a1002000c16e880021002000416f880053
:103c8000180288004f0478000000060080027800c7
:103c90000103780014028000a0e4200021e6200047
:103ca000908f520006003a001402880010738000c2
:103cb00000b0a00010738800800020001d003700b5
:103cc00064004000808f5000f5ff3a000001eb00d7
:103cd000a3e4200091028000ff3ffc0000ceb3006f
:103ce0004260b700910288001300e00008003a002b
:103cf0004211dd008280e80080e4200085307800f9
:103d000006317800140288000000eb00090037003b
:103d1000140288000201e800e4814100e60f51002e
:103d2000ecff3a00107380000020a00010738800a0
:103d3000400020000000060000027800150280000c
:103d40008001eb00a2e4200091028000ff3ffc0014
:103d500000ceb3004260b70091028800920f1200bb
:103d600008003a00c219dd000381e80081e4200068
:103d70000000eb0000b1780080b1780015028800e7
:103d800009003700150288008301e8006401410042
:103d9000e68f5100ecff3a00107380000040a00055
:103da0001073880050002000000006008002780098
:103db0000103780082037800140280008001eb0088
:103dc00042e1200091028000ff3ffc0000ceb300e2
:103dd0004260b70091028800928f520008003a00ba
:103de000860ae8004218dd000080e80041e120007a
:103df00007b07800140288000000eb0020003700b4
:103e0000140288008301e80064014100ea8f510038
:103e1000ecff3a000001eb0043e12000910280003a
:103e2000ff3ffc0000ceb3004260b7009102880063
:103e30001300e00009003a00860ae8004211dd00a4
:103e40008280e80040e1200087307800053178006a
:103e5000140288000000eb000900370014028800fb
:103e60000201e800e4814100ea0f5100ebff3a0053
:103e7000107380000060a0001073880060002000b4
:103e80000000060000027800150280008001eb00af
:103e900042e1200091028000ff3ffc0000ceb30011
:103ea0004260b70091028800920f120008003a00a9
:103eb000c219dd000381e80041e120000000eb00b1
:103ec00000b1780080b17800150288000900370041
:103ed000150288008301e80064014100ea8f510067
:103ee000ecff3a00107380000080a000107388007f
:103ef0007000200000000600881f78008003780012
:103f000001047800160280008002eb00c4e3200068
:103f100091028000ff3ffc0000ceb3004260b7007a
:103f200091028800948f53000b003a00100020008b
:103f300001002000801b4100819349004228dd00e0
:103f40000080e800c1e3200008b078001602880075
:103f50000000eb0023003700160288008502e8000d
:103f600064024200e38f5200e9ff3a008002eb0056
:103f7000c4e3200091028000ff3ffc0000ceb300ac
:103f80004260b700910288001400e0000c003a0083
:103f90001000200001002000801b41008193490097
:103fa0004229dd008280e800c0e3200088307800ec
:103fb00007317800160288000000eb000900370086
:103fc000160288008502e80064024200e38f520076
:103fd000e8ff3a00107380000070a00010738800a2
:103fe000600020004f047800000006000002780006
:103ff000150280008001eb00c2e3200091028000e6
:10400000ff3ffc0000ceb3004260b7009102880081
:10401000920f120008003a00c219dd000381e80087
:10402000c1e320000000eb0000b1780080b178000f
:104030001502880009003700150288008301e80096
:1040400064014100e38f5100ecff3a0010738000df
:104050000090a0001073880070002000000006008f
:104060008201780032c0b300020007000080fb002c
:1040700000000600889fbe008a1f78008003780039
:10408000010378008242780003057800180280005e
:1040900012002000c3df20008244780091028000db
:1040a000ff3ffc0000ceb3004260b70091028800e1
:1040b000020278001304e0001c003a006c10b90002
:1040c0008000780002df20000200400015409800c8
:1040d0006a80400006307900e3cf520004003600c9
:1040e0008180e80030c0b3008070790004003700a0
:1040f0006c20b9000080e80002df20000570790024
:1041000087007800094078007ffe070018028800c9
:104110000a00e00002003a000a0078000c003700b4
:10412000094d78000000eb000900370018028800f4
:104130000201e800ec814100e30f5100d6ff3a0094
:10414000107380000000a000107388002000200081
:104150004f0578004f04be0000000600889fbe0097
:104160008a1f78000044780060de2000904f140021
:1041700001003a002a000700190280009202800024
:10418000ff3ffc0000ceb3004260b70092028800ff
:104190000840e900e14f500019003e000840780057
:1041a000c2c0b3000440bc00020478000adf200053
:1041b00062407d000004e000110032008040eb000e
:1041c00001717d000280e80001707d000a0041005d
:1041d0001140980017fe0700640044008000eb00c7
:1041e00001307d006800440001307d00660044001d
:1041f00001307d00190288000100780005003700b9
:1042000019028800107380000010a000107388004d
:10421000300020004f0578004f04be00000006006b
:10422000889fbe008a1f78006ade20001a4178004d
:104230000204e0002100320091028000ff3ffc00f8
:1042400000ceb3004260b700910288000004eb008a
:10425000586f880002407800c2c0b3000440bc0020
:1042600009df200008f17c000280e80008f07c00f3
:104270000901410018419800eefd07001a80fb007b
:104280006c00b9006401400008b17c006801400086
:1042900008b17c006600400008b07c0020002000cf
:1042a000406f880091028000ff3ffc00f0c1b30026
:1042b0004260b60091028800ffff37001073800053
:1042c0000010a00010738800300020004f05780017
:1042d0004f04be0000000600889fbe000041780029
:1042e000014378001702800093028000ff3ffc002a
:1042f00000ceb3004260b700930288000240e9009c
:10430000e14f50002c003e008281fb00024078000b
:10431000c2c0b3000440bc0001df200062c07800ce
:104320000004e00024003200010041001640980023
:104330000604e00003003a000280e80006f078007e
:104340001a00370060de20001080fb006c1ab900f4
:104350000482e80003df20006c00b90080027800ce
:104360000081e80062c07900a2c0b3000440bc0034
:10437000ea0041000681fb00028cb9000380420084
:10438000104190000281fb00110009000204d800d6
:104390008000fd0065804000a2002000110009009f
:1043a0000200d8008000fd0001f2790017028800a9
:1043b0000000eb0005003700170288001073800032
:1043c0000010a00010738800300020004f04be00d1
:1043d0000000060000417800810178000100e00043
:1043e00005003a001073800000d0a0001073880010
:1043f000100020001b00370014028000950280008e
:10440000ff3ffc0000ceb3004260b7009502880079
:104410000240e900e14f50000d003e0002407800ec
:10442000c2c0b3000440bc0001df200062c07800bd
:104430000004e0000600320001004100104090003e
:1044400080497800140288000000eb000500370066
:1044500014028800107380000010a0001073880000
:1044600030002000000006008040780060de200060
:104470001040780098ff07000080fb000000060055
:10448000800178000000e00005003a001073800011
:1044900000d0a00010738800100020000800370032
:1044a00060de20001080fb006c00b90002df2000fd
:1044b0000001410012419000824978000000eb00a9
:1044c0000000060012002000630120000288be00e8
:1044d0000000eb00000006000100e00005003a00cb
:1044e0001073800000d0a00010738800100020001e
:1044f0002d003700e14f50000e003200030039005c
:10450000e24f50001f003a00140037000041eb005a
:1045100040e12000c3e320001000e0000100320071
:104520000241e80064004000808f51001b0032000f
:10453000f9ff37000041eb00c0e3200083e42000d6
:104540001000e000010032000241e8006400400079
:10455000830f500011003200f9ff37000041eb00db
:10456000a0e4200023e620001000e000010032005b
:104570000241e80064004000830f50000700320051
:10458000f9ff37001073800000e0a000107388006e
:104590000041eb0090c0b300010037000040eb0089
:1045a000824878000080fb00000006000000e00068
:1045b00005003a001073800000d0a000107388003e
:1045c000100020000b0037000041eb00c1df20008d
:1045d00043e120001104e000010032000241e80044
:1045e000ec804000818f5100faff3a0002487800c9
:1045f0000000eb000000060040e120008000eb001e
:10460000c2e3200001087800110098006400400017
:10461000820f5000fbff3a00c0e320008000eb0057
:1046200082e4200001087800110098006400400036
:10463000820f5000fbff3a00a0e420008000eb0056
:1046400022e620000108780071b89f006400400055
:10465000800f5100fbff3a0000e62000014878007f
:1046600011738800516f880000df20008040eb004c
:104670000001eb0043e12000014878002140980050
:1046800011409800220098004200980032009800e3
:104690006c004000830f5000f7ff3a0060de2000fe
:1046a0000148780021c0b30000df200001487800f5
:1046b000a26f880031c0b30020df200001487800dd
:1046c00010df20000148780081bf2100b16f880011
:1046d00070ff2100c06f880060db21008008780037
:1046e000a0bf21000208780020002000406f880051
:1046f0000200780000000600e34f50000d003e006d
:104700008080fb00820d2100614079000004e00000
:1047100008003500614079000000fb008214200091
:104720000280b90042802000624078000080fb00d7
:10473000010037000080eb0000000600e34f50004e
:104740000e003e008080fb00820d21006140790058
:104750000004e00009003500614079000000fb0022
:10476000821420000280b900438020000041eb0049
:104770008271780010002000010037000000eb007b
:1047800000000600e34f500014003e008082fb0052
:10479000860d210065407b000004e0000f0035001d
:1047a00065407b000000fb00831420000380b900fb
:1047b0000080e800428020006002790065407b00b4
:1047c0000000fb000380b900640040006000790035
:1047d00011002000800f520001003a008000eb0021
:1047e0000100780000000600e34f500024003e0066
:1047f0008081fb00810d210063c078000004e0008f
:104800001f00350063c078000000fb008214200008
:104810000280b900a2802000020040009040900079
:104820000042eb00f0c3b30080cf5000090032001b
:10483000800d2100634078000000fb0082142000fe
:104840000280b900a28020000200400010409000c9
:104850000042e800800d2100634078000000fb006a
:10486000821420000280b9006600400042802000cf
:104870006040790011002000804f520001003a0092
:104880008000eb000100780000000600889fbe0059
:10489000e34f50002c003e000084fb00890d2100f6
:1048a00068c07c000004e000270035006f0e0700a0
:1048b0000003780092028000ff3ffc0000ceb300ae
:1048c0004260b7009202880068c17c000201fb00d0
:1048d000851420000591b9000281e8004480200081
:1048e0008000eb0001317a0068c17c000201fb000e
:1048f0000591b9006401410001317a0068c17c0072
:104900000201fb000591b9006601410001717a00c6
:1049100068c17c000201fb000591b90066014100fd
:10492000040141001141980068c17c000201fb00b4
:104930000591b90001717a00060078004d0e07005c
:1049400010002000010037000000eb004f04be0003
:1049500000000600889fbe008a1f7800004478008f
:10496000e34f50003c003e008084fb00800d21009e
:10497000694078000004e000370035003b0e070076
:10498000000578000060fe0092028000ff3ffc00fe
:1049900000ceb3004260b700920288000840780061
:1049a00078ff07000004e00028003200800d21009d
:1049b000694078000000fb00821420000280b900ea
:1049c0000080e80042802000e00079000041eb0018
:1049d000e00f2000808f500009003200800d210080
:1049e000694078000000fb00821420000280b900ba
:1049f0000080e80042802000600079000041e8006b
:104a0000840d210069407a000000fb008282fb00d7
:104a1000831420000380b900008042006800400039
:104a2000428020006044790069407a000000fb0069
:104a30000380b9000080e800053079000a007800a2
:104a40000c0e07000880fb00040037000a00780005
:104a5000080e0700cbff37000080eb004f05780001
:104a60004f04be0000000600889fbe008a9fbe0063
:104a70008004780001447800fc0d070000057800f0
:104a8000e34f540047003e008885fb00800d210065
:104a90006b4078000004e000420035000060fe003a
:104aa00092028000ff3ffc0000ceb3004260b700de
:104ab00092028800084078004bff07000004e000e5
:104ac00035003200800d21006b4078000000fb00b3
:104ad000821420000280b900a28020000200400061
:104ae000904090000043eb00f0c3b30080cf500033
:104af00009003200800d21006b4078000000fb00af
:104b0000821420000280b900a28020000200400030
:104b1000104090000043e800850d21006bc07a0032
:104b20000000fb000681fb00841420000480b90013
:104b300000014100438020000281410079419a0038
:104b40006bc07a000000fb000480b9008081410046
:104b5000f64198000804e00003003200e14f5400e1
:104b60000a003a000500370023c2bf000008a30076
:104b7000060032008580a8000400370033c2bf0061
:104b80000008a3000100320087e0a8000a007800b6
:104b9000b80d0700040037000a007800b50d0700c3
:104ba000beff37008084eb00090078004f05be008f
:104bb0004f04be000000060000437800e34f5000a1
:104bc0001f003e008082fb00870d210065c07b0036
:104bd0000004e0001a00350065c07b000000fb0007
:104be000831420000380b90066004000428020004a
:104bf0006042790065c07b000000fb000380b900c3
:104c00000001410072409000804f52000e003a00b7
:104c10000604e00003003200e14f530008003a00b0
:104c20000400370023c2bf000008a30006003200c2
:104c30000300370033c2bf000008a30002003200a7
:104c40000000eb000100370010002000000006000b
:104c50000200fa00889fbe008a9fbe0000447800d0
:104c60008104780082457800034578000000eb005d
:104c7000b0bf9f00e34f540063003e008880fb00fc
:104c8000830d210061c079000004e00007003d00b1
:104c90002280200020c0b300924f10005a003c0038
:104ca0001240780080f079000049e8000840780060
:104cb000f6fe07000001eb00910120006a8057001a
:104cc0003afc07000060fe000804e0000400320027
:104cd00010002000e14f540055003a002500370035
:104ce0000000eb00001188001011880049118800b5
:104cf000e140650020c2bf000004a1000140700037
:104d000020e2b700e3c0650081c0400020c2bf00c0
:104d100092cfb300024060000140700020e2b70073
:104d20002162a8002062a80023a2a80023e2a90013
:104d300021e2a8002342a8003fb897000000e0004d
:104d400037003200fcff37003011800022c2bf0064
:104d50000008a300fcff3a008560a9008580a90037
:104d60008c20a9009560a8009580a8001000200064
:104d70002f0037000000eb008011880090118800a0
:104d8000c9118800e140650030c2bf000004a100e5
:104d90000140700030e2b700e3c0650081c0400010
:104da00030c2bf0092cfb3000240600001407000eb
:104db00030e2b7003162a8003062a80033a2a80038
:104dc00033e2a90031e2a8003342a8003fb89700bf
:104dd0000000e0000e003200fcff3700b011800040
:104de00032c2bf000008a300fcff3a0087c0a90040
:104df00087e0a9008c40a90097c0a80097e0a80010
:104e0000100020000a0037000000eb000800370007
:104e100032c2bf000008a300f0ff3a00f3ff3700e2
:104e200022c2bf000008a300c7ff3a00caff370034
:104e30004f05be004f04be000080fa0000000600cf
:104e4000809fbe00829fbe00849fbe003400f80099
:104e500000002000a00188000400fa008560a9007d
:104e60008c20a90022c2bf000018a3005a00320003
:104e7000800d21001000fb00821420000280b90088
:104e80004380200060c179000204a00002f0790094
:104e90002222a9005300370030118000e0bf9f009c
:104ea00022c2bf000038a30009003200800d21009b
:104eb0001000fb00821420000280b9004380200013
:104ec00060c179000214a00002f0790042003700ae
:104ed00022c2bf000028a30009003200800d21007b
:104ee0001000fb00821420000280b90043802000e3
:104ef00060c179000224a00002f07900360037007a
:104f0000840d21001400fb00831420000380b900ed
:104f10000080e80042802000e00279001400fb00dd
:104f20000380b90064004000e00079000041eb001c
:104f3000e00f2000808f500008003200800d21001b
:104f40001000fb00821420000280b90064004000c1
:104f500042802000600079000041e800e2ff9f00ed
:104f60006ff897000080fb00808f520009003a0024
:104f7000800d21001000fb00821420000280b90087
:104f80004380200060c179000234a00002f0790063
:104f900011003700850d21001501fb006ff8970007
:104fa0000080fb00efb89700841420000491b90042
:104fb00002004000680040004380200001f07900ba
:104fc0001500fb006ff997000281fb000480b90017
:104fd0006400400002b0790022c2bf000008a300b4
:104fe000adff3a000080fa003400f9004f02be0025
:104ff0004f01be004f00be0000400600809fbe0073
:10500000829fbe00849fbe003400f8000000200094
:10501000a00188000400fa0087c0a9008c40a90004
:1050200032c2bf000018a3005c003200900d2100c6
:105030001000fb00821420000280b9004380200091
:1050400060c179000204a00002f079003222a900b8
:1050500055003700b0118000e0bf9f0060002000c5
:10506000606f880032c2bf000038a3000900320020
:10507000900d21001000fb00821420000280b90076
:105080004380200060c179000214a00002f0790082
:105090004200370032c2bf000028a30009003200de
:1050a000900d21001000fb00821420000280b90046
:1050b0004380200060c179000224a00002f0790042
:1050c00036003700940d21001400fb0083142000eb
:1050d0000380b9000080e80042802000e0027900ef
:1050e0001400fb000380b90064004000e000790078
:1050f0000041eb00e00f2000808f500008003200dc
:10510000900d21001000fb00821420000280b900e5
:105110006400400042802000600079000041e80007
:10512000e2ff9f006ff897000080fb00808f520025
:1051300009003a00900d21001000fb0082142000ad
:105140000280b9004380200060c179000234a000d1
:1051500002f0790011003700950d21001501fb00c8
:105160006ff897000080fb00efb8970084142000d0
:105170000491b90002004000680040004380200014
:1051800001f079001500fb006ff997000281fb0028
:105190000480b9006400400002b0790032c2bf0050
:1051a0000008a300abff3a000080fa003400f900c9
:1051b0004f02be004f01be004f00be00004006007f
:1051c000809fbe00829fbe00849fbe00861f780025
:1051d0003400f80000002000a00188008580a900ac
:1051e00023c2bf000018a300350032004100370081
:1051f000800d21009001fb001000fb0082142000b4
:105200000280b9006600400042802000e040790042
:105210000041eb00f0c3b30080cf50000800320023
:10522000800d21001000fb00821420000280b900d4
:105230006600400042802000604079000041e800a4
:10524000861420000698b9006600400044802000c3
:1052500002707a00850d21001501fb001500fb008e
:105260000680b9006600400060407a000080fb00c4
:105270000691b90002004000000042007040920018
:105280000080fb002011880023c2bf000018a3008b
:1052900018003a001500fb000680b90066004000c7
:1052a00060417a001500fb000680b9000000420052
:1052b00070409000804f51000e003200ccff37004c
:1052c000840d21001400fb00831420000380b9002a
:1052d0006600400042802000e04279001400fb009c
:1052e0000380b900000141007240900080cf52005d
:1052f000bfff3a003400f9004f0378004f02be00b0
:105300004f01be004f00be0000400600809fbe005f
:10531000829fbe00849fbe00861f78003400f80084
:1053200000002000a001880087e0a90033c2bf0070
:105330000018a3003500320041003700900d210015
:105340009001fb001000fb00821420000280b900d5
:105350006600400042802000e04079000041eb0000
:10536000f0c3b30080cf500008003200900d210040
:105370001000fb00821420000280b900660040008b
:1053800042802000604079000041e800861420003f
:105390000698b900660040004480200002707a0040
:1053a000950d21001501fb001500fb000680b900da
:1053b0006600400060407a000080fb000691b90062
:1053c0000200400000004200704092000080fb009c
:1053d000a011880033c2bf000018a30018003a00d3
:1053e0001500fb000680b9006600400060417a00ad
:1053f0001500fb000680b9000000420070409000dc
:10540000804f51000e003200ccff3700940d210078
:105410001400fb00831420000380b90066004000e4
:1054200042802000e04279001400fb000380b900b4
:10543000000141007240900080cf5200bfff3a004f
:105440003400f9004f0378004f02be004f01be0048
:105450004f00be00004006001a00fa007980570095
:1054600081ea28000b00090031587800c000b10023
:105470006d805700c3e928000b00090033587800fd
:10548000c000b1000060fe000042eb00e4e79f00b6
:105490006fe39700e24f530060003e00420421009a
:1054a0000002eb00939220006fe097000004e00000
:1054b00003003a00d0c2a800d0a2a800d082a90060
:1054c000efe09700e1cf500003003a00d0c2a800ff
:1054d000d0a2a900d082a8006fe39700e24f53004a
:1054e00003003a00d0c2a900d0a2a800d082a80030
:1054f000d2c2bf000038a30005003200efe09700e1
:105500000180fb00000040000430790007003700f4
:105510006fe397008680fb00818040006100790086
:105520000000e80080307900a3868800d2c2bf0066
:105530000028a30006003200efe097000180fb0086
:10554000630040000000400004307900080037008c
:105550006fe397000680fb006300400000004000fe
:10556000e00079008100e80001307900a38688001e
:10557000d2c2bf000018a30006003200efe097007f
:105580000180fb006600400000004000043079000c
:10559000080037006fe397000680fb0066004000bc
:1055a00000004000e00079008100e800013079004f
:1055b000a3868800d2c2bf000008a3000600320004
:1055c000efe097000180fb00690040000000400010
:1055d00004307900080037006fe397000680fb0075
:1055e0006900400000004000e00079008100e80010
:1055f00001307900a3868800d0c2a800d0a2a800fc
:10560000d082a8006fe097000040e800e0e79f002c
:10561000efe09700e2cf5000a3ff36000040eb0020
:10562000e0e79f00efe19700ebcf510011003e0053
:1056300080407800420421006fe297000480fb0064
:1056400000004000600079000000e000010034002c
:105650008140e8006fe397000643e800e6e79f001b
:105660006fe09700eb4f5000f3ff36000104e000bd
:1056700020003a00400821001004e0001b00320026
:105680008040eb00e1e79f00efe19700ebcf510096
:1056900016003e00450421004407210081417800a6
:1056a000c20521008000eb006fe397000680fb003d
:1056b0000000400060807a006fe397000680fb00e6
:1056c00003707a006fe397000680fb000000400043
:1056d000013079006fe097000040e800e0e79f00ac
:1056e0006fe39700eb4f5300efff360040082100b7
:1056f0000048eb008042eb00400821001004e0006d
:1057000065013a000040eb00e0e79f00804278002e
:10571000efe09700ebcf500061003e000060fe001c
:10572000efe197000380fb0000004000c10521006d
:1057300060807800e50f500006003a0031c0b300e9
:10574000e0dc20000148780011c0b300f0dc20004c
:10575000014878006fe297000480fb0000004000e1
:1057600041042100608178000200e0002c003a0032
:105770006fe397000680fb0000004000c105210098
:1057800060807800e40f500025003400efe19700be
:105790000380fb0000004000e08078001003200040
:1057a000808f50001e003c006fe297000480fb00d9
:1057b0004107210060c078000004e00018003a00b2
:1057c000400c21009040e80000c5b30080cf50009d
:1057d0000100360082407800700c210090cf50000c
:1057e0000e003200440c21009481fb007a805700a7
:1057f0003081fb0041ff20006240780080f178009a
:10580000144ae80000c5b300944f100003003600ae
:10581000004aeb00e5c1b30001003700e5c1b30069
:105820006fe397000680fb0000004000c1052100e7
:10583000e080780010032000808f500005003400c5
:105840006fe097000081fb0011c0b300400721000a
:1058500001717800efe097000180fb00000040003c
:1058600042042100e000790020032000808f5000d6
:1058700005003400efe197000380fb0000004000ca
:1058800031032000013079006fe297000442e80004
:10589000e4e79f006fe39700eb4f53009fff360054
:1058a0000040eb00e0e79f00efe09700ebcf5000f7
:1058b0002c003e008000eb0042072100efe1970042
:1058c0000380fb00604079000004e000010032002a
:1058d0008100e8006fe297000442e800e4e79f00df
:1058e0006fe39700eb4f5300f4ff36000100e00038
:1058f0001c0032000040eb00e0e79f00efe0970063
:10590000ebcf500017003e00c105210044072100e5
:1059100013c0b300220320006fe397000680fb0052
:105920000000400060807800e40f50000700340061
:105930006fe397000680fb0003707a006fe3970027
:105940000680fb000000400002b078006fe0970086
:105950000040e800e0e79f006fe39700eb4f530043
:10596000edff36000040eb00e0e79f000001eb0098
:10597000efe09700ebcf5000a9003e004107210067
:10598000efe197000380fb0060c078000004e000b6
:10599000020032000201e800efe297006fe2970098
:1059a0000442e800e4e79f006fe39700eb4f5300e9
:1059b000f3ff3600e10f510023003a00ebcf520015
:1059c0001d003200e4cf52001b003200400c2100c9
:1059d0009040e80000c5b30080cf500001003600c1
:1059e0008040eb00700c210090cf5000120032007c
:1059f000440c21009481fb000581fb00ed805700e1
:105a000040ff2000e2c0780081717800144ae8006d
:105a100000c5b300944f100001003600004aeb00af
:105a200041c0b300e0dc20000148780011c0b300a1
:105a3000f0dc20000148780011c0b30040082100cc
:105a40000148780078003700e20f510074003a00f6
:105a50000040eb00e0e79f00600721001041780064
:105a600090072100104278000440610002003200db
:105a700050c8b300e0e79f00c007210090417800c4
:105a8000034061000200320060c8b300e0e79f00fd
