:020000040000fa
:080000000802040000000000ea
:020000040000fa
:100410008fbf2100807f22000001880000000000c3
:100420000c000700809c2300010020001100070041
:10043000000020000000e000020032000000020086
:100440000000000044310200000000000040da001b
:100450000000fe004440a900204820000000e00009
:100460000300320000002000a00188004440a800e2
:100470000000060091018800800078000000eb0079
:1004800015003700e280400032a0b4009101ba00ac
:10049000e280400032a0b4009102ba00e280400045
:1004a00032a0b4000002eb00472bde00f507b200db
:1004b000602ce10004003a000059eb008301e900e0
:1004c000fdff3e00040037006128e100010032001a
:1004d0000082eb00040007001101ba000200e000f6
:1004e000e8ff3a00000006003159ba008301e90034
:1004f0000c0032002159ba008301e90008003200e3
:100500000400e00003003a00e280400032a0b400a2
:10051000f5ff370011d9ba008301e900faff3a006c
:100520008100e800e180400032a0b4000000060035
:1005300000000000000000000000000000000000bb
:1005400000000000000000000000000000000000ab
:10055000000000000000000000000000000000009b
:10056000000000000000000000000000000000008b
:10057000000000000000000000000000000000007b
:10058000000000000000000000000000000000006b
:10059000020ab900001bb9000200b8008100420045
:1005a000810043000000060021fa20000b00070034
:1005b0000000e0000600350021fa2000a000200025
:1005c0004c0007008000eb000000e00001003d004f
:1005d0008080eb000100780000000600889fbe00cc
:1005e0008a9fbe0000057800810478002d00370046
:1005f000c900900069009000808f5000040039000d
:1006000009007800610007000000e00035003500b7
:10061000004020001900600009003200a100200005
:100620000a0078009c000700800578000000e000c8
:10063000040032000a0050000004e8000400370003
:10064000800578000a0078009e000700000478000a
:10065000c90190006900900003005000880f50000d
:1006600002003100000478008005eb0008017800ea
:100670008a0078000300780099000700080545000b
:100680004900900000004400c00498000b00e00006
:100690000400320009007800980007000000e00024
:1006a00010003a001a04e000d1ff3a000080200058
:1006b0001900600004003200090078008f00070074
:1006c0000000e00007003a0000c0200019006000b0
:1006d0000500320049009000e00498000000eb00a3
:1006e000010037000080eb004f05be004f04be0044
:1006f00000000600889fbe008a1f780080047800f2
:100700000104780000457800c10090006800900066
:10071000808f500004003900080078001b0007009b
:100720000000e000150035004800900009587800ee
:10073000400498001800780000b8a30004003a00b4
:1007400000a8a30006003200ea4f550004003a005a
:1007500008007800690007000000e00007003a0088
:1007600000c0200018006000020032004800900025
:10077000600498000a80fb00010037000080eb0055
:100780004f0578004f04be0000000600889fbe00a1
:1007900000047800c0019000600090008000eb0031
:1007a000808f51003900390018017800200029009d
:1007b00000006100e20f500007003200002020001e
:1007c0000200e0000100350000202400000c710050
:1007d0008080eb002d003700010026000100610041
:1007e000810f500008003a0038009000808f5100bf
:1007f0000500390008007800400007008080eb0009
:100800000000e00021003a0000c020001800600055
:1008100017003a00a8049000600220000800400081
:10082000808f540012003a00002020007000070062
:1008300080007800200498000000e00005003a00e5
:1008400029049800490498000900e8003004980041
:10085000060037001860a000400498000020b00097
:1008600030049800410c9800510c9800b200070029
:100870002800900050049800380090006004980010
:1008800000002600180c70008000eb0001007800ca
:100890004f04be00000006008001eb00104178000c
:1008a000814f510001003a00800178000204e0000d
:1008b000020032000000e800f8ff37000300780073
:1008c0000000060080007800010037000000e8000a
:1008d0001004e000fdff3a00010050000000060097
:1008e0008001eb000200370061f079008301e8002d
:1008f000828f5100fcff3a0000000600889fbe0076
:10090000000478000000e0000e003a008004780047
:10091000a8f62000180078000000e0000400320073
:10092000f6ff07000000e00001003d008084eb00be
:100930000884e800a0f72000800f5400290032004e
:10094000f4ff37000000220018006000240032008d
:10095000a8049000080037000901500038409000ba
:100960000000fb0089007800b71b07000000e000d2
:10097000130034008084440048009000808f5400ad
:10098000f5ff390028009000400498001801780015
:1009900000c020000000610002003200a8009000aa
:1009a00001003700b8009000000024000000610042
:1009b0000a003200610498008004eb00090037004f
:1009c000280090004004980060049800500c9800a3
:1009d0001890a0008084eb0002003700510c9800b2
:1009e00080047800090078004f04be000000060073
:1009f000889fbe00e30440000900a100808f5400de
:100a00004a003600e38f540001003e0049002000f8
:100a1000b28580000200e00002003200820078000f
:100a20000c003700810b210003003700908f540029
:100a3000230036008080e800110078000000e0000c
:100a4000faff3a000f003700908f54001c00360068
:100a50008080e800110078000000e000faff3a0012
:100a600012017800810b210003003700908f5400a1
:100a7000130036008080e80011007800820f5000db
:100a8000faff3a00a8858000890f54000100310068
:100a900009047800080078007f0007000000e000eb
:100aa00004003a00890f5400200032000804d100ed
:100ab000f5ff3700081878007e000700d4ff3700e4
:100ac000110178009201780064805100890f500074
:100ad0000300310012009000800878000700370002
:100ae00009004100800878009201900013009800ee
:100af000110078001288140009097800910078002c
:100b00000100e00005003200110090000000e0004c
:100b1000020032000180e800010037000000eb0015
:100b2000b08588000280e800010037000000eb007b
:100b30004f04be0000000600881f7800280d210029
:100b40001804e00004003a00406320008d00070014
:100b500020c0b300004c78004f047800000006006d
:100b6000889fbe000004780064ff070080047800be
:100b700000042000180060000200320028009000ed
:100b80004c0007000000eb00200498003840900063
:100b90000004e000050035000000fb00f11a07002a
:100ba0000000e000010032008084eb00181090008b
:100bb0000000e000080032007f0007000000e000b5
:100bc000010032008084eb0018109000390007000b
:100bd0000000eb00101498000008200018006000ce
:100be000100032000000eb00a1f62000910f14006d
:100bf000070032000000e8008180e800e80f5000a4
:100c0000faff3a00080078002a00070013003700b6
:100c1000000140008000eb00a0f6200001307900c8
:100c2000f8ff3700000c780000c0eb00304498005b
:100c30006002200008004000200498004004980052
:100c400050049800400c980060049800500c9800e4
:100c50007004980076004400000c980009007800a9
:100c60004f04be0000000600881f780088f72000af
:100c7000180078000000e00001003200b8ff070013
:100c80000884e90080f62000800f5400f8ff3a0045
:100c90004f047800000006000000e000030034006c
:100ca0004e000700e10f400001003a000000eb0099
:100cb000000006000000e000310032008080e90002
:100cc00091027800e38f52002d0036000508a30042
:100cd0002b003a00c28580000200e00002003200d2
:100ce000828f50000400310002087800c18588001e
:100cf0001600370003017800920190000300e00025
:100d000002003200818f5100faff39001202780090
:100d100004004100808f500019003900810f5000fd
:100d200003003a00050942008200780007003700fe
:100d30000300e0000300320005804000808f510076
:100d40000f003900930098001101980011019000e4
:100d50000200e0000a00320011804000820f5000c3
:100d600007003a00600b21000008eb001100900022
:100d70001101780090084100100090009000980048
:100d80000000060000017800000020000000e000e4
:100d900008003200000080000000e0000500320082
:100da0000000e90000008800000040000100800011
:100db00002b07800000006000a00fa00510020008e
:100dc000b1bf9f00c0bf9f006a80570000c0da001b
:100dd0005fb897000080fa0000000600889fbe0000
:100de00080047800a08680000000e00003003a0044
:100df000100007000000e0000a003500a086800017
:100e00000900e00002003a00000478000600370004
:100e10000004780009004000060007000000e00020
:100e200001003d000084eb00080078004f04be0084
:100e300000000600800078000000e00004003a0096
:100e400000002000a086880001017800060037001d
:100e50000081eb0000002000808f500002003e0067
:100e6000a18688000001eb00020078000000060067
:100e7000839f68000100e00002003d006000100058
:100e8000e08018000300e00002003d006001110056
:100e9000e08119001f0107004f00e00002003b0045
:100ea00060001000e080180000000600889fbe006f
:100eb0008a9fbe00010578000100e00004003500b3
:100ec00008003c000000e000200032000500370070
:100ed00060001000e080180002003b0001f02c00d0
:100ee0001a0037000004be006011b8006b09200032
:100ef0000982cf00020039000882cf000441b0000f
:100f0000694252000e00320008003b0082817100ed
:100f1000610164008904d1000884d3008b05e800d6
:100f20000442e800f9ff3a000500370008044400d5
:100f300089844c008b05e9000442e900fbff3a007c
:100f4000040107000af0a70001f0a0004f05be0051
:100f50004f04be0000000600889fbe008a9fbe00ae
:100f60008c1f7800210107002801330003866c00e4
:100f70006450e100240032006420e10027003200c8
:100f80006150e100220032006120e10021003200c6
:100f90008b854200eb07b1000134b800003ab8007d
:100fa0000804420089844a00013ab8000030b800c1
:100fb0008880400009014a0004003300000040001e
:100fc00081804800020149008b05e900c909dd0064
:100fd000830170000100320013002000c814de00fd
:100fe0004814dd004709de001200b200c808de0028
:100ff00008847000d700070001f0a1000cf0a700e2
:1010000001f0a0000a0137006120e1000c0132006c
:101010000801be000200be00f7ff37006150e1008a
:10102000fcff3a0006013700889fbe008a9fbe0081
:101030008c1f7800ed000700f400330003866c007d
:101040006450e1002e0032006420e10033003200e1
:101050006150e1002f0032006120e10031003200d8
:1010600085855500eb07b00009002000080420002a
:10107000050037000804440089844c000a00310050
:101080000603430087834b000001530081815b000e
:10109000f8ff33000203be000800a000080444006b
:1010a00089844c00f6ff3900c639dd0083017300e6
:1010b00001003200130020008904d1000884d3000d
:1010c0000998a300050032000800a7000300a00053
:1010d0008904d1000884d3008b05e8008904d1007d
:1010e0000884d3000001eb000281d20099000700c0
:1010f00001f0a1000cf0a70001f0a000cc00370027
:101100006420e100ce0032000801be000200be00f3
:10111000f7ff37006120e100c90032006000b8002d
:10112000f3ff37000000200001f82700f0ff370030
:1011300003f0a200889fbe008a9fbe008c1f78002b
:10114000aa000700b10033006450e1004f003200f4
:101150006420e1005200320003826c0007003b0073
:101160000905d0000306d000820f54000c065d0074
:10117000020039000200320089017800030678007d
:101180008582550004003d000003fd008103fd0041
:101190008502ea008b854200840f720002003b004a
:1011a00060001000e08018006011b8000005eb003e
:1011b0007a28e1000a00390006007800c75ddd00ea
:1011c000f707b200878075002d003700828171001b
:1011d0000a017800610560008180d1000080d300a1
:1011e0008502e900f9ff3b000604400087844800bf
:1011f00002003b0060041400e0841c000988a30086
:10120000070032008a8171008281710061016400ef
:101210008904d1000884d3008b05e800170037004b
:101220000978a30013003a000b00e000130034001b
:101230008b05e9000804440089844c000a447400ca
:101240000978a3000d003a000b00e000070034000d
:101250008b05e9000804440089844c0001003a0031
:101260000b0020000978a300f7ff32000001eb001b
:1012700002003700828171000a0178003500070002
:101280000cf0a70001f0a000690037006420e10025
:1012900002003a00838f6c00690033000801be0031
:1012a0000200be00620037000001be0067000700b8
:1012b0000470a70003f0a10003f8a30013003a0094
:1012c0006509b10010003200090035006928e1000d
:1012d0000200350001002800000005000000400069
:1012e000818048008502e900fcff3a00000006000a
:1012f000f88f4200050035008100d1000080d30046
:101300008502e800fcff3a00000006008000eb00c8
:10131000000005006022b800060220000000d00096
:101320008180d2000482d2008582d2000000a00019
:101330000202520083825a0003003100020242007e
:1013400083824a000000a1000603e900f3ff3a008f
:101350000000060081002000618055000b003d0068
:101360000b00200061fe2f000100e1001d00340091
:1013700082817100610164008904d1000884d30076
:101380000000e800faff3a007100200061006400ec
:101390000300700002006000090032006104440094
:1013a000e0844c000988a500050032008b05e800a8
:1013b0006808e10002003a008904d1000884d300e3
:1013c000f20f20000258e10005003d00c75ddd007e
:1013d000f907b20089807500080078000000060057
:1013e0000bf827008b007800000005000004be0009
:1013f000160007000003be000405be000200be0088
:1014000012000700844f7500000006000200be00b5
:101410006450e100050036006420e100020036005f
:101420000968a30001003a000800be000160a000a6
:101430004f0678004f05be004f04be0000000600b6
:10144000f0ff2f00f1ff2700f9ff3700c70ade0089
:10145000f107b200f50fb20008003200e1cf420000
:10146000020032000170a00024000500810f70000e
:10147000010032000408050044000500810f7000df
:1014800002003a00140005008502e9000000400057
:1014900081c04800fcff3b000170a0002400050053
:020000040000fa
:020000040001f9
:0457f8009fe9000025
:020000040000fa
:020000040001f9
:0457fc00783f0000f2
:020000040000fa
:10000800c83c0000c83c0000c83c0000c83c0000d8
:10001800c83c0000c83c0000c83c0000c83c0000c8
:10002800c83c0000c83c0000c83c00002219000081
:10003800c83c0000c83c0000c83c0000bc360000ba
:100048007e3b0000c83c0000c83c0000e2250000e0
:100058008e270000c83c0000c83c0000c83c0000d7
:10006800c83c0000c83c0000c83c0000c83c000078
:10007800c83c0000c83c0000c83c0000c83c000068
:10008800c83c0000c83c0000c83c0000c83c000058
:10009800b6320000c83c0000b62600001628000052
:1000a800c83c0000c83c0000c83c0000c83c000038
:1000b800c83c0000c83c0000c83c0000c83c000028
:1000c800c83c0000c83c0000c83c0000c83c000018
:1000d800c83c0000c83c0000c83c0000c83c000008
:1000e800c83c0000c83c0000c83c0000c83c0000f8
:1000f800c83c0000c83c0000c83c0000c83c0000e8
:10010800c83c0000c83c0000c83c0000c83c0000d7
:10011800c83c0000c83c0000c83c0000c83c0000c7
:10012800c83c0000c83c0000c83c0000c83c0000b7
:10013800c83c0000c83c0000c83c0000c83c0000a7
:10014800c83c0000c83c0000c83c0000c83c000097
:10015800c83c0000c83c0000c83c0000c83c000087
:10016800c83c0000c83c0000c83c0000c83c000077
:10017800c83c0000c83c0000c83c0000c83c000067
:10018800c83c0000c83c0000c83c0000c83c000057
:10019800c83c0000c83c0000c83c0000c83c000047
:1001a800c83c0000c83c0000c83c0000c83c000037
:1001b800c83c0000c83c0000c83c0000c83c000027
:1001c800c83c0000c83c0000c83c0000c83c000017
:1001d800c83c0000c83c0000c83c0000c83c000007
:1001e800c83c0000c83c0000c83c0000c83c0000f7
:0801f800c83c0000c83c0000f7
:020000040000fa
:10020800c83c0000c83c0000c83c0000c83c0000d6
:10021800c83c0000c83c0000c83c0000c83c0000c6
:10022800c83c0000c83c0000c83c0000221900007f
:10023800c83c0000c83c0000c83c0000bc360000b8
:100248007e3b0000c83c0000c83c0000e2250000de
:100258008e270000c83c0000c83c0000c83c0000d5
:10026800c83c0000c83c0000c83c0000c83c000076
:10027800c83c0000c83c0000c83c0000c83c000066
:10028800c83c0000c83c0000c83c0000c83c000056
:10029800b6320000c83c0000b62600001628000050
:1002a800c83c0000c83c0000c83c0000c83c000036
:1002b800c83c0000c83c0000c83c0000c83c000026
:1002c800c83c0000c83c0000c83c0000c83c000016
:1002d800c83c0000c83c0000c83c0000c83c000006
:1002e800c83c0000c83c0000c83c0000c83c0000f6
:1002f800c83c0000c83c0000c83c0000c83c0000e6
:10030800c83c0000c83c0000c83c0000c83c0000d5
:10031800c83c0000c83c0000c83c0000c83c0000c5
:10032800c83c0000c83c0000c83c0000c83c0000b5
:10033800c83c0000c83c0000c83c0000c83c0000a5
:10034800c83c0000c83c0000c83c0000c83c000095
:10035800c83c0000c83c0000c83c0000c83c000085
:10036800c83c0000c83c0000c83c0000c83c000075
:10037800c83c0000c83c0000c83c0000c83c000065
:10038800c83c0000c83c0000c83c0000c83c000055
:10039800c83c0000c83c0000c83c0000c83c000045
:1003a800c83c0000c83c0000c83c0000c83c000035
:1003b800c83c0000c83c0000c83c0000c83c000025
:1003c800c83c0000c83c0000c83c0000c83c000015
:1003d800c83c0000c83c0000c83c0000c83c000005
:1003e800c83c0000c83c0000c83c0000c83c0000f5
:0803f800c83c0000c83c0000f5
:020000040000fa
:080400007856000034120000e0
:020000040000fa
:0804080001010000da07000009
:020000040000fa
:1014a000e76b0000e4d900004bbb000086c10000e0
:1014b000b84e000038e0000085b40000b57a0000a6
:1014c0005aa100006aff0000b5920000e3990000f5
:1014d00059410000f8bb0000dad2000084ed0000a2
:1014e0007c410000b24000005a080000e9060000fc
:1014f000bbae0000c65000007e1c000016040000b9
:101500003d1b0000b60a000037c20000058700003e
:10151000de4a00003aad0000f97b000092110000a5
:1015200063040000b1260000470a00005693000043
:101530000a680000042f000089d40000051800008c
:101540001069000050f0000025f5000079ec000063
:101550009588000025ae0000c4f7000053de0000af
:10156000b9ab0000b9320000e013000051000000e8
:101570000568000079920000f8e3000075bb0000e8
:10158000f645000020a10000c97200009976000015
:10159000510c0000472b00008dd80000398c000052
:1015a000ca180000173a00004d690000c16700002a
:1015b000f77d000029950000819c00007de300007c
:1015c000b34500004135000073340000de4e0000da
:1015d000e8c0000059130000ceef00004760000093
:1015e00011a30000d5770000a1310000030b00001b
:1015f000f9b900000a9f0000a0190000419b0000fb
:1016000056980000093e000065770000edda000002
:10161000073e0000b332000064f3000042170000f0
:101620003e6f0000b2df00004c350000333c00008c
:101630003303000092ac0000f7300000fc6e0000a5
:10164000f41f00003b8a0000a3c70000af44000065
:10165000aac8000098500000f7c40000a67200005d
:10166000515e0000f8f40000161c00007c2600000b
:1016700036bb00009a6700001489000017de0000e6
:1016800044e1000071060000751d0000d4770000e1
:1016900030e4000086d8000069440000b6ff000076
:1016a00043f1000079800000d9cb000053e3000033
:1016b0004cb00000d1b7000030300000677e000061
:1016c000e70200009bdc000013cb0000676700000e
:1016d00072bf00004d910000a39c000022d40000c6
:1016e000da840000f54400005c2800009ff500004b
:1016f00097fa000048b000002d650000277f000029
:101700005ad60000568c0000492600009d78000043
:10171000d1a10000defa000002d600002869000016
:10172000712f0000ab6f000024d20000d2620000d5
:101730006112000044090000d05b00003c4a000038
:10174000962700006c6a000010120000e6d000002e
:101750002acd00009dff00008aee0000690600000f
:10176000f7cb000074ef0000f7fb00008863000077
:10177000b6570000dbce0000cc7e00007d9200005a
:1017800017bf0000b30300003e3f00006f040000dd
:10179000d4dd0000f7260000e7550000565b00008e
:1017a000f7b60000ce7a000022e900007ffa0000c0
:1017b000497f00002062000035270000b64100008c
:1017c000713000007c470000e3700000b7e50000c6
:1017d0002cf100002b5d000000c700005ec500007a
:1017e000e59f00004d09000043a80000b1e00000a3
:1017f000f53f0000941d0000111a0000e58c000068
:1018000079880000b18a0000cbc300008a5b000029
:10181000c20500001d0600006d4f00000b7f000098
:10182000d9a30000ebb9000019a40000cd7b000093
:10183000973e000010450000d813000064ea000045
:10184000cc4900001c3e0000be590000b16f0000f2
:101850009b2500005ca1000025ed0000661f000034
:1018600026e700008b0e000036050000de040000b5
:101870007384000016a70000f0820000d06500000d
:10188000e0ab0000578c00008bb8000051c1000095
:1018900067c40000b2b100004ac90000e452000071
:1018a00002000000428e000004000000030000005f
:1018b0003c8e00000200000004000000368e000094
:1018c00002000000050000002a8e00000400000055
:1018d00006000000248e0000020000000700000047
:1018e000188e00000500000008000000128e0000a5
:1018f00003000000090000000c8e0000030000003f
:101900000a000000ee8d00000b0000000b0000003c
:10191000e88d0000030000000c000000d68d0000e0
:10192000070000000d000000228d00003d000000b7
:101930000e000000168d0000040000000f000000e3
:101940000a8d00000400000010000000aa8c0000b6
:1019500020000000fa000000140000001400000045
:10196000fa0000001400000014000000fa0000005b
:101970001400000050000000fa00000050000000b9
:1019800014000000fa0000005000000050000000a9
:10199000fa0000001400000014000000fa0000002b
:1019a0001400000014000000fa0000001400000001
:1019b000f4010000fa000000140000001400000010
:1019c000fa0000001400000014000000fa000000fb
:1019d0001400000050000000fa0000005000000059
:1019e00014000000fa000000500000005000000049
:1019f000fa0000001400000014000000fa000000cb
:101a00001400000014000000fa00000014000000a0
:101a100014000000fa000000320000000600000080
:101a20004d01000032000000320000004d010000b6
:101a30003200000006000000fa0000003200000042
:101a400032000000f401000001000000000000006e
:101a5000dc0100000100000000000000c7010000e0
:101a60000100000000000000b301000001000000c0
:101a700000000000a10100000100000000000000c3
:101a80009001000001000000000000008101000042
:101a900001000000000000007201000001000000d1
:101aa00000000000650100000100000000000000cf
:101ab0005901000001000000000000004d0100007d
:101ac00001000000000000004301000001000000d0
:101ad00000000000390100000100000000000000cb
:101ae0002f0100000100000000000000260100009e
:101af00001000000000000001e01000001000000c5
:101b000000000000160100000100000000000000bd
:101b10000e010000010000000000000007010000ad
:101b200001000000000000000001000001000000b2
:101b300000000000fa0000000100000000000000aa
:101b4000f40000000100000000000000ee000000b2
:101b50000100000000000000e9000000010000009a
:101b600000000000e3000000010000000000000091
:101b7000de0000000100000000000000d9000000ad
:101b80000100000000000000d5000000010000007e
:101b900000000000d0000000010000000000000074
:101ba000cc0000000100000000000000fa0000006e
:101bb000f4010000f4010000fa000000f40100004c
:101bc000f4010000fa000000f4010000f40100003c
:101bd000fa0000001400000014000000fa000000e9
:101be0000600000006000000fa00000006000000e9
:101bf00006000000fa0000000600000006000000d9
:101c0000fa000000060000000600000000000000ce
:101c100000000000b0040000f40000001400000008
:101c200014000000fa00000014000000c8000000ca
:101c3000fa0000001e00000000000000f401000097
:101c40002800000064000000e2040000c80000005a
:101c5000000000004d0100003200000006000000fe
:101c6000fa0000003200000032000000fa0000001c
:101c70000e00000000000000fa0000000500000057
:101c800000000000f40100000a000000060000004f
:101c9000fa0000000a000000c8000000161700004b
:101ca000181900001b1d00001e1f0000212300004a
:101cb00025260000282a00002c2e000030320000cb
:101cc000343700003a3c00003e400000434600002c
:101cd000484b00004e51000054560000595c000073
:101ce0005f620000656800006b6e000071740000a8
:101cf000777a00007d80000083850000888b0000db
:101d00008e91000094960000999c00009ea1000016
:101d1000a3a60000a9ab0000adaf0000b2b4000064
:101d2000b6b80000babc0000bfc00000c2c40000ca
:101d3000c6c80000c9cb0000ccce0000d0d1000046
:101d4000d2d40000d5d60000d8d90000dadb0000dc
:101d5000dcdd0000dedf0000e0e10000e2e3000087
:101d6000e4e500004c450000445f000052450000df
:101d700051200000414300004b0000000b06000012
:101d800001080000070200000e0900000304000023
:101d90000a05000003030000030000000103000027
:041da000020000003d
:020000040000fa
:101da400889fbe00b8db20009840780068c06000bf
:101db40011002000b5003a0092028000ff3ffc00b1
:101dc40000ceb3004260b7009202880010c0b30096
:101dd400e50907000004e00007003a001844780011
:101de4006440640004003200706e80001200200021
:101df4000000e000010032000001eb0091028000cd
:101e0400ff3ffc00f0c1b3004260b60091028800bd
:101e14000204e00091003200c00a21000048eb00f7
:101e2400506c8000616c800061004000e0804800dc
:101e3400506c8800616c8800b0db20001024a10085
:101e44004d1507008000eb00900037000001eb0007
:101e540051002000e0dc200063070700c90a2100cc
:101e640019407800e24f50001f00320005003e0088
:101e74000004e00008003200e14f500075003a0011
:101e840013003700e34f500027003200e44f5000a6
:101e940070003a003600370010c0b300230a070070
:101ea40041be20008048780040c5b300914f100027
:101eb400030032000040e800914f100067003a0030
:101ec40010c0b300804c78001824a00063003700d1
:101ed400160a070051be20008048780020c0b300d5
:101ee400804c78005d00370010c0b3000f0a070073
:101ef40062be20000049780030c0b300804c7800f6
:101f040050be200090407800c808dd001280fb001d
:101f14008080400041858800e00a2100f513070015
:101f2400300020003d0037005885800010c0b30009
:101f3400fe09070080407800e00a2100da13070058
:101f440042be200000747900518580006140790010
:101f54000080fb0068004000706c880040c0b30043
:101f6400804c78008100e800518588003b003700f0
:101f740051858000700c2000808f500029003e00a5
:101f8400e78f50000c003a0041be200050c5b3005a
:101f9400914f100008003a004185800020db2000aa
:101fa4009080400040db2000908040004185880004
:101fb400e00a2100cf13070058858000706c800070
:101fc4000000e90049be2000800f54000c003900d5
:101fd40010c0b300d509070080407800e00a210052
:101fe400b113070000f47c00c00a21000048eb0094
:101ff400b0db20001024a1001034a000170037002b
:1020040010c0b300c909070080407800e00a21002d
:10201400a513070000f47c000800e8005085880040
:102024000e0037000100e8005085880010c0b3009e
:10203400be090700716c800050858000810f50003c
:1020440006003900804ceb001824a100ca140700d4
:1020540002003700c00a21000048eb0010c0b300a2
:10206400410907000004e00004003200b8db20004e
:102074009840780068c0600074ff3200b0db200034
:102084001080fb004300de00e100600001007800e6
:102094004f04be0000000600010140008040eb0038
:1020a40001003700b0c04000820f5000fdff39002e
:1020b4000180fb0000000600881f780048be200055
:1020c400716c80008180e90050be2000f2ff07009f
:1020d400716c80008100e900e1407c00814f500078
:1020e4001a003a00d840900060db200090cf5000e6
:1020f400040032000104e00002003200eecf400090
:102104001c003a0023140700c0db200010407800b4
:102114007040600005003200e1492100023e2900c0
:1021240043002000e0db200001070700106c800062
:10213400216c800061004000e0804800106c880041
:10214400216c8800100020000b00370040c5b3004c
:10215400984f100007003a0087140700506c800065
:10216400616c800061004000e0804800506c880091
:10217400616c88000000eb004f047800000006004a
:1021840043be2000c2ca2000134978000040eb007f
:10219400304198004340900063406000c24090008a
:1021a400e14f500004003a00010078000000a10053
:1021b4000010a00003003700010078000000a10017
:1021c4000010a10040419800424090000020a0006f
:1021d400c34090008180fb00c408de00c408dd0019
:1021e400674060000140700040419800e341900066
:1021f4005341980060db2000104078006041980053
:10220400000006000400fa00889fbe008a9fbe00fa
:102214008c9fbe008046780001447800cbca200021
:10222400850f070000067800800078007080570052
:10223400301307001ff09700904598000ff09700a7
:10224400a0459800bd4598000d85fb000804e000fa
:10225400030032004b4090000030a000c0459800bd
:1022640067044500d9ca2000e6004500090078004b
:1022740089ff070000f47d00680445009102800096
:10228400ff3ffc00a0ee20001048e8009102880007
:10229400d4e2a8001b80fb0011c0b300650907004d
:1022a4001980fb0011c0b30062090700e0ca2000d6
:1022b4001080fb0011c0b3005e0907003900200044
:1022c40014003700e78f54000a003a0050c5b300e9
:1022d4009b4f100007003a0020db200090004600ce
:1022e40040db2000108640008c007800708057008e
:1022f40000130700c0ca2000e9407800708057002e
:10230400d71207000080fb0011c0b3004909070081
:102314008904e800888f5400eaff390033c2bf0003
:102324000008a300fdff3200d4e2a900910280005e
:10233400ff3ffc00a0ee20001048e9009102880055
:102344004b4090000080fb004400de0051d7200089
:102354008048780040d720000d487800f06b80005a
:10236400016c800061004000e0804800f06b880050
:10237400016c88004f06be004f05be004f04be002e
:102384000080fa00000006000200fa0042be2000ad
:1023940070c0b300f0ff9f00820178008200370014
:1023a4007ff897000040e800f0ff9f007ff8970057
:1023b4000080fb0041be200060c07800fb4f50004d
:1023c40079003a007ff897000040e800f0ff9f0092
:1023d4007ff897000080fb0060c078000080fb005d
:1023e4000100200061005000e0805800fe0f500002
:1023f400e08f58006c003e00006001001e003700b2
:10240400690037006800370067003700660037004e
:10241400650037006400370063003700620037004e
:1024240061003700140037005f0037005e0037009a
:10243400140037005c003700160037001500370021
:10244400140037000c0037005700370056003700df
:102454005500370054003700530037001000370090
:102464000800370032003700100037000200370040
:102474004d003700220037007ff897000040e80045
:10248400020037007ff8970000c0e800f0ff9f00cb
:10249400450037007ff8970064404000fbff370099
:1024a4007ff8970065404000f8ff37007ff89700f9
:1024b4000040e800f0ff9f007ff897000080fb00d9
:1024c40060c07900e0ff9f0030be200021c1b3004e
:1024d40090cf1000010036000048eb00eff89700a1
:1024e40090cf500030003200eff897000148780098
:1024f40011c0b30020be2000014878002a00370034
:1025040011be20007ff897000040e800f0ff9f0014
:102514007ff897000080fb0060c079000004e000b1
:102524000100320070c0b300804878001e003700fc
:102534007ff897000040e800f0ff9f007ff89700c5
:102544000080fb0041be200060c07800f24f5000c4
:1025540008003a007ff897000040e800f0ff9f0071
:102564007ff897000080fb00e0c0780060da20006c
:102574000c0037007ff897000080fb0060c07800f3
:10258400f34f500008003a007ff897000040e8003d
:10259400f0ff9f007ff897000080fb00e0c0780008
:1025a40040da20000148e900fff89700706c8000d1
:1025b4008180fb000080e900808f500078ff3900a3
:1025c4004240900063406000e14f500007003a0031
:1025d400d240900060db200090cf500003003a000e
:1025e4008040eb000140780006ff07000080fa00fd
:1025f4000000060041be200041409000634060009e
:10260400e14f500007003a00d140900060db200009
:1026140090cf500003003a008040eb000140780066
:10262400f8fe0700b0db20001054a00000000600f4
:10263400881f7800c8ca20004f130700b0db2000b1
:1026440001c4b30010c060000d0032004840900087
:102654000000a0000010a000404498008040eb005f
:1026640001407800e7fe0700506c8000616c800038
:1026740061004000e0804800506c8800616c880074
:102684004f04780000000600881f7800b8be2000c0
:1026940042be200018409000f047b000d1c7b300fc
:1026a400814f50002000360028409000f14f500028
:1026b4001d003e004240900063406000e14f500026
:1026c40007003a00d240900060db200090cf500019
:1026d40003003a008040eb0001407800c9fe070087
:1026e40030be2000a84090000148780011c0b3001b
:1026f40020be2000014878009840900000c8b30034
:1027040080cf50000d003e000180fb000000e90076
:1027140002012000110009000200d80011be2000af
:102724008048780005003700d240900060db20002c
:1027340090cf500001003a00bdff07004f0478001d
:102744000000060033cb2000e14f500001003200ae
:10275400b7ff370080c9eb0020c0b3009041980058
:1027640020c1b300a041980020c8b300b041980034
:1027740090c0b300c04198008040eb00e141980054
:10278400d1419800a26d80004810de00f04198000d
:1027940082499800926d80004810de0090499800ac
:1027a400a2499800b0c0b30096fe370041be200095
:1027b400e24f500004003a00b0db200002c2b30034
:1027c4001040610005003a00d140900060db200019
:1027d40090cf50000e003a0095ff37004140900022
:1027e40063406000e14f500007003a00d140900080
:1027f40060db200090cf500003003a008040eb00e3
:10280400014078007ffe0700b0db20001054a100d7
:10281400000006000041780031cb2000e14f500059
:102824000100320082ff37008048eb00a0db20006b
:102834001040780061406000010032008248780056
:10284400b0db2000104078006140600002003200dc
:1028540000c8b30080487800b06c800090409800b5
:10286400806c8000b0409800806c80004880de005e
:10287400a04098008040eb0040c0b30061fe3700e8
:1028840040be2000d040900060db200090cf50007c
:1028940001003a0066ff07000000060041be200068
:1028a400e34f500005003200d140900060db20006f
:1028b40090cf50001f003a005dff37004140900068
:1028c40063406000e14f500007003a00d14090009f
:1028d40060db200090cf500003003a008040eb0002
:1028e4000140780047fe07000001eb00410620008c
:1028f400200b2100bc0407000004e00003003200a8
:102904009d120700010037000060fe0010c0b300f4
:10291400190807000004e00003003a001608070045
:102924000004e00003003200908580000000e00015
:10293400f5ff3a000000060000022000c0118800e4
:10294400c0db20001044a100000006000003780052
:10295400814278000202780033cb200013409000bb
:102964000080fb000080e8000001eb00e10b200088
:10297400810f50000d003e00160178008280e800af
:1029840085f079006301410004f179008180e80059
:102994004820de0080f07900020b7800134090009c
:1029a4000040e800904198001200200002007800e6
:1029b40000000600000278008142780032cb20003b
:1029c400924090008001eb00e0cbb30080cf500038
:1029d40008003e00940078000180e800057079004a
:1029e400010ae800124090000040e80010419800fd
:1029f4001300200003007800000006000200fa0023
:102a0400889fbe0039cb2000e14f50000200320005
:102a140007ff07009a00370040be200040409000a6
:102a24000080fb004400de0051d720009180fb00b1
:102a3400810f500003003a0040d720001040780076
:102a44008b003700e0c0b300804c78000040eb00fe
:102a540090449800a00c210090407800b00c210014
:102a640090cf500015003200d0c0b300804c7800e5
:102a74000000eb00d0bf9f008180fb0080ff20009e
:102a8400e140780066805700caff0700a20c2100cd
:102a94009240e8000149780000c5b30080cf50009f
:102aa400010036000049eb0092407800b00c210090
:102ab40090cf500069003200efff37008000eb0038
:102ac400d1bf9f00a8db200001c4b30018c0600080
:102ad4000700320031cbb30066805700b5ff070012
:102ae4000004e000020032001864a100181207007c
:102af400a8db20001804e00007003d0041cbb30030
:102b040066805700abff07000004e00002003200bb
:102b14001874a1000e120700b8db2000984078005a
:102b240061c0600006003200c1c9b300668057006e
:102b3400a0ff07000004e000010032001804a10017
:102b4400a2db20009280fb008100d100e1c0600084
:102b54001280fb004200de006140600080cf500024
:102b640004003a009240780061c0600001003a001d
:102b74001214a100a8db20009880fb008100d10082
:102b8400e1c060001880fb004200de00614060008c
:102b940080cf5000100032009840780062c060007e
:102ba40007003200d1c9b3006680570081ff0700d7
:102bb4000004e000080032001824a00006003700da
:102bc400e1c9b300668057007aff07000004e00003
:102bd400010032001824a100a2db20009280fb0037
:102be400c408de00e1c060001280fb004500de0086
:102bf4006140600080cf500004003a0092407800a9
:102c040068c0600001003a001244a100a8db200063
:102c14009880fb00c408de00e1c060001880fb005f
:102c24004500de006140600080cf50000b003200a0
:102c34009840780070c060000700320081cdb30076
:102c4400668057005bff07000004e00003003200c9
:102c54001854a000010037001854a10099409000b6
:102c64000104e00004003200aff8970001c0e8005e
:102c74008040eb00010037000140780061fd07004f
:102c84004f04be000080fa000000060041be200090
:102c94004140900063406000e14f500007003a005b
:102ca400d140900060db200090cf500003003a0038
:102cb4008040eb000140780052fd0700b0be2000c8
:102cc40030409000570b0700b1db200002c4b30072
:102cd4001140610001003a001164a00000000600e8
:102ce400881f7800b8be200043be2000e54f500086
:102cf40024003e00184190008080fb000280fb000d
:102d04000080e800808f50001e003a00e34f51001d
:102d14001c003e004340900063406000e14f5000bf
:102d24000d003a00d340900060db200090cf5000ab
:102d340003003a008040eb000140780031fd0700b9
:102d4400b0db2000104078007040600002003200c8
:102d540020eb280013f60700184090000080fb00c9
:102d6400d2be20008000eb0043da200002003700ce
:102d7400b2f079008100e800808f5000fcff390038
:102d840005003700d340900060db200090cf500056
:102d940001003a0026fe07004f04780000000600f8
:102da400881f7800b8be200042be2000e24f5000c9
:102db40004003a0098409000a0ccb30080cf5000ab
:102dc40006003600d240900060db200090cf500017
:102dd4000f003a0016fe07000d0037004240900035
:102de40063406000e14f500007003a00d240900079
:102df40060db200090cf500003003a008040eb00dd
:102e040001407800fffc070018409000ca0a070040
:102e14004f04780000000600881f7800b8be200028
:102e240041be2000e54f500006003200d140900022
:102e340060db200090cf500047003a00fcfd070003
:102e4400450037004140900063406000e14f50006e
:102e540007003a00d140900060db200090cf500082
:102e640003003a008040eb0001407800e5fc0700d5
:102e7400484090000080fb00010020003841900091
:102e84004811dd000300200000004100818049005a
:102e9400284190008281fb000200200000004100d4
:102ea4008180490000f80700020020000318240074
:102eb40028f807000001be000040220041b72400aa
:102ec40058f807000200200003f8230097f80700d1
:102ed4000200200003f0230095f80700f1f8070032
:102ee400000478000001eb0041062000200b2100c3
:102ef4003d0307000004e000030032001e11070038
:102f0400010037000060fe0010c0b3009a060700fd
:102f14000004e00003003200908580000000e0001f
:102f2400f8ff3a00c8118800c8db20001844a0004c
:102f3400e1492100023e290043002000e0db20009b
:102f44007b0307000004e0000300320000022000bd
:102f5400c01188001844a1004f0478000000060046
:102f6400889fbe0048be2000b9be200052fc070066
:102f74000004e000b0003200b2db200001c2b30064
:102f840012c060000b003200d840900060db2000cb
:102f940090cf500007003a0090c0b300994f100042
:102fa400030032007b404000994f100001003a00ba
:102fb4001254a100b1db200002c2b3001140610031
:102fc4000600320040c0b300994f10009a003a0046
:102fd40019409000e34f500097003a0002c4b30038
:102fe4001140610009003a00b1be200090c0b30056
:102ff400914f1000050032007b404000914f1000bb
:1030040002003200dc1007008b0037005cfc070074
:10301400584190000204e0000d003a0041c0b300a2
:1030240099cf100084003a0019409000e84f5000f6
:103034001f003200e24f50001d003200e34f5000e9
:103044001b003200e14f50007b003a0018003700ab
:10305400ee4f410016003a0040c0b300994f1000f3
:1030640070003a0019409000e84f50001000320000
:10307400e24f50000e003200e34f50000c003200cb
:10308400e14f500067003a000900370030c4b30034
:10309400914f1000060032000040e800914f1000ec
:1030a400030032000040e800914f100062003a0033
:1030b400484090006340600000c0e900e14f5000c8
:1030c40005003e0060db2000904f51005a003a009a
:1030d40057fd070058003700110b2100b0be200037
:1030e4009048780091407800facf500048003200b0
:1030f4000b003e00e9cf50003600320003003e00d2
:10310400e4cf500045003a0014003700eacf5000e5
:103114002d003200ebcf500040003a00270037006a
:1031240030c4b30080cf50003000320004003e00b1
:103134007f40500080cf500038003a00280037000c
:1031440040c4b30080cf50002b0032000040e800a0
:1031540080cf500031003a002a0037001940900017
:10316400e24f50000c00320003003e00e14f5000db
:103174002a003a0005003700e34f500009003200ee
:10318400e84f500025003a0009003700384090000d
:10319400c2fd0700280037003840900015fd0700e5
:1031a400250037003840900080fd070022003700da
:1031b4003840900018ff07001f0037003840900087
:1031c40094fd07001c003700384090000bfe0700f8
:1031d4001900370038409000acfe07001600370095
:1031e4003840900057fd0700130037003840900026
:1031f400bbfe0700100037003840900022fd070096
:103204000d00370038409000e5fe07000a00370043
:10321400384090005cfc07000700370098fd070069
:1032240005003700b1be200090c0b300914f1000dc
:1032340096ff3a009eff37004f04be0000000600d0
:103244003600f800809fbe00829fbe00849fbe00af
:10325400869fbe00881f78003400f800000020001c
:10326400a00188004200f8008460a900cce2a90013
:10327400c06e80008001e800c36e8800b06e8000dc
:103284000000e800b06e8800007b80000000e000d1
:1032940003003200007b80000000e900007b88000e
:1032a400107b80000000e00003003200107b8000ef
:1032b4000000e900107b8800a1ee20001104e0006a
:1032c40068013a0010c0b300804878009102800081
:1032d400ff3ffc00f0c1b3004260b60091028800d9
:1032e400ea8f51009c003600a20020001100090062
:1032f4008281d8000001780001007800e26e880025
:10330400c06e880091028000ff3ffc0000ceb30035
:103314004260b700910288000000eb0025003700ee
:10332400c200dd000180e800c8ee2000e0017c005e
:103334000300e0001d00320061017c00e06e8000ab
:10334400800f5100030036000000510080307c00e3
:1033540016003700d36e880091028000ff3ffc0006
:10336400f0c1b3004260b60091028800030001007e
:1033740080017800006f880091028000ff3ffc000c
:1033840000ceb3004260b70091028800206f800035
:103394004201dd000280e800e0007c00d06e800085
:1033a400810f500001003a0003317c00206f80003f
:1033b4000000e800206f8800206f8000e60f5000b6
:1033c400d7ff360091028000ff3ffc00f0c1b3003c
:1033d4004260b6009102880091028000ff3ffc0029
:1033e40000ceb3004260b700910288000000eb00f9
:1033f4001e0037004201dd0043f12000e280790025
:103404000100e00017003200e06e8000910f100010
:103414000200360091081000120037000000eb0093
:103424008008780000b179000280e80060817900aa
:103434000200e0000b00320091028000ff3ffc001c
:10344400f0c1b3004260b60091028800020001009e
:1034540091028000ff3ffc0000ceb3004260b70041
:1034640091028800206f80000000e800206f88002f
:10347400206f8000e90f5000deff360091028000cb
:10348400ff3ffc00f0c1b3004260b6009102880027
:1034940091028000ff3ffc0000ceb3004260b70001
:1034a400910288000000eb0022003700c201dd0019
:1034b40084f0200063017a000200e0001b00320067
:1034c400e06e800001002000b20f1000a28f1800ef
:1034d400030036001219100012911800130037006f
:1034e4000009eb00321178000000eb0080317a0013
:1034f4000380e80060017a000200e0000b00320063
:1035040091028000ff3ffc00f0c1b3004260b600ae
:10351400910288000200010091028000ff3ffc003c
:1035240000ceb3004260b70091028800206f800093
:103534000000e800206f8800206f8000e20f500038
:10354400daff360091028000ff3ffc00f0c1b300b7
:103554004260b60091028800b16e8000ea8f50008c
:10356400be003600337b8000e18f510008003e002e
:10357400a2002000811f7800110009008280d80079
:1035840000017800cf00780002814100327b88007e
:10359400a2002000110009008280d80001007800f8
:1035a400b06e8800207b80000000e0000300320041
:1035b4000000e900207b8800a8003a009202800005
:1035c400ff3ffc0000ceb3004260b70092028800c7
:1035d400307b8000e10f500004003e00cce2a800e4
:1035e400a0ee20000048eb009f003700cc42a90069
:1035f4000000eb00b06e8800307b8800889fbe001e
:103604008a9fbe008c9fbe008e1f78003600f80093
:103614003200f8004400f8003400f80080f620007e
:103624001080fb006c00b90080007800c3f3200018
:1036340060c07900e24f50000c003a00f2008000b4
:103644006480400002b079006880400060807900a6
:10365400800f510004003e006680400060807900c5
:10366400800f510001003100910a0700e0dd2000c5
:103674000048eb0080f620000048eb000000eb005f
:10368400206f8800c2f32000004278008043780055
:1036940080017800800078001204e0000800320005
:1036a400224090000004e000010032008301e800a1
:1036b400844f5000020036008143780000427800b5
:1036c4008100e8006c014100e28f5000f2ff3600f7
:1036d400c1f32000e0dd20000448780080f62000db
:1036e40007487800036f880030002000206f8800ae
:1036f4000404e0000800320007407800c2c0b300b0
:103704000440bc000281e80062c078000040e90087
:1037140000f17800120037000000eb00206f8800f1
:10372400220020001104e000070032001140900044
:103734000004e00004003200a040980040778000bc
:1037440000a0a000407788000201e900ec8040005e
:103754000200e000f3ff3d0032002000226f8800e9
:10376400e18f510011003a00e14f52000f003a007e
:103774000000eb00206f8800d1f32000220020001d
:1037840071f897000004e000020032001140780054
:10379400904098000201e900ec8040000200e00043
:1037a400f7ff3d0032002000226f880007407800b8
:1037b400c2c0b3000440bc0082027800c6f32000fb
:1037c4000602410014409000e14f500002003e0008
:1037d40020002000307b880060de20001004e00020
:1037e4000600320073de2000134178008280fb0063
:1037f40080de2000877078008249e80064804200ff
:1038040060007b00f000880010c0b300944f1000eb
:1038140009003a0020c0b300004a7800a0ee20005e
:103824000048eb00cc42a800cce2a8006a80420029
:1038340060007b00531007003400f9004400f900d5
:103844003200f9003600f9004f0778004f06be0039
:103854004f05be004f04be00cc42a800a0ee2000dd
:103864000048eb00cce2a8004200f9003400f90063
:103874004f0478004f03be004f02be004f01be004c
:103884004f00be003600f900004006000041eb0086
:10389400c1f3200003f620001104e000020032000e
:1038a4002140900000417100ec804000838f500063
:1038b400f9ff3a000204e00008003a00c0f32000d7
:1038c4001004e000020032001041900022409800f1
:1038d4006c004000810f5000f9ff3a000000060020
:1038e40080f62000104078000042eb008001eb00dd
:1038f400c2f320001204e00006003200834f50009f
:1039040004003200a240900084cf50000100360031
:10391400014278008301e8006c014100e38f51000b
:10392400f4ff3a000404e0000c003200c2c0b3000b
:103934000440bc000281e800c3f32000e2c0790027
:103944008180fb000480fb000000e900808f5000b0
:10395400020034000440e90000f179000000060090
:10396400c2c0b3000440bc0002037800c5f32000c9
:1039740012c0b30002f37a004a00dd00e6014300fe
:1039840082bf21000201400082b17a006802430034
:1039940073ff21000300400000b27a0040ce2100f2
:1039a400000978000000eb00100198002101980044
:1039b40030019800640043006801410002b07a00bd
:1039c400000006008001eb00237b88009202800047
:1039d400ff3ffc0000ceb3004260b70092028800b3
:1039e40080f62000904078000104e00010003200ce
:1039f40001407800c2c0b3000440bc00c1f3200001
:103a040003f178000280e80003f07800010041002f
:103a1400134098006400410003b07800680041003e
:103a240003b078006601410003b178000400370058
:103a3400e0f3200003487800d0f320000148780028
:103a440091028000ff3ffc00f0c1b3004260b60069
:103a540091028800ffff3700800078000000e0003a
:103a640004003a004077800000d0a000407788002e
:103a74001000050080f62000904878000000050042
:103a8400207b8800000005000000eb00207b8800fc
:103a940000000600881f7800180280009102800050
:103aa400ff3ffc0000ceb3004260b70091028800e3
:103ab4008bff07000000eb00207b8800a1002000a2
:103ac400b16e880021002000317b88001802880034
:103ad4004f0478000000060080027800010378009b
:103ae40014028000e0ee2000a1f02000908f12006c
:103af40005003a00140288004077800000b0a0005e
:103b0400407788008000050064004000810f500069
:103b1400f6ff3a000001eb00e3ee20009102800082
:103b2400ff3ffc0000ceb3004260b7009102880062
:103b34001300e00007003a004211dd008280e80033
:103b4400c0ee200085307800063178001402880029
:103b540000000500140288000201e800e48141002d
:103b6400e70f5100edff3a00407780000020a000ed
:103b7400407788004000050080027800140280002d
:103b84008001eb00e2ee200091028000ff3ffc0088
:103b940000ceb3004260b70091028800928f1200f9
:103ba40008003a00c219dd000381e800c1ee2000dc
:103bb4000000eb0000b1780080b1780014028800a6
:103bc40000000600140288008301e800640141003b
:103bd400e78f5100ecff3a00407780000040a000de
:103be4004077880050000500881f780000027800a4
:103bf4008103780002047800150280008001eb0044
:103c040042f120002600200091028000ff3ffc00ca
:103c140000ceb3004260b70091028800920f1200f8
:103c240004003a00070ae80040f120000833780055
:103c340015003700150288008301e800640343007f
:103c440064014100ea8f5100efff3a000001eb00ec
:103c540043f1200091028000ff3ffc0000ceb3003e
:103c64004260b700910288001300e00009003a00a6
:103c7400070ae8004211dd008280e80040f12000dc
:103c84008830780004317800150288000000eb00c9
:103c940009003700150288000201e800e4814100b0
:103ca400ea0f5100ebff3a00407780000060a0006b
:103cb40040778800600020004f0478000000060070
:103cc40080027800140280008001eb0042f12000a1
:103cd40091028000ff3ffc0000ceb3004260b700b9
:103ce40091028800928f120008003a00c219dd0088
:103cf4000381e80041f120000000eb0000b17800ee
:103d040080b17800140288000000060014028800c4
:103d14008301e80064014100ea8f5100ecff3a009e
:103d2400407780000080a000407788007000050084
:103d3400889fbe00000378000204be008101780061
:103d4400170280008002eb0084f020002200200093
:103d540091028000ff3ffc0000ceb3004260b70038
:103d640091028800940f130007003a00100020000d
:103d740001002000001b440001934c0080f020004f
:103d84000331780018003700170288008502e80024
:103d94006401410064024200e38f5200ecff3a00e8
:103da4000002eb0085f0200091028000ff3ffc0040
:103db40000ceb3004260b700910288001500e00015
:103dc4000c003a001000200001002000001b4400f9
:103dd40001934c004221dd008280e80080f0200045
:103de4008330780006317800170288000000eb0069
:103df40009003700170288000402e800e482420048
:103e0400e30f5200e8ff3a00407780000070a00002
:103e140040778800600020004f04be0000000600c8
:103e240080027800140280008001eb0082f0200000
:103e340091028000ff3ffc0000ceb3004260b70057
:103e440091028800928f120008003a00c219dd0026
:103e54000381e80081f020000000eb0000b178004d
:103e640080b1780014028800000006001402880063
:103e74008301e80064014100e38f5100ecff3a0044
:103e8400407780000090a000407788007000050013
:103e9400889fbe008a1f78008003780001037800a1
:103ea40002427800030478001a0280001200200005
:103eb40083f4200095f4200082447800910280006d
:103ec400ff3ffc0000ceb3004260b70091028800bf
:103ed4001304e00017003a006c10b900c3f320008b
:103ee400844a78006a01400006b179008080e800c5
:103ef400e34f52000300360030c0b30080f0790075
:103f04000100370084f079008700780009407800c8
:103f140093fe07001a0288000800e00002003a003d
:103f2400080078000d003700094c78000000eb0011
:103f34000a0037001a0288000201e800ec824200fd
:103f4400ec814100e30f5100dbff3a004077800031
:103f54000000a00040778800200020004f05780072
:103f64004f04be00000006008201780032c0b30096
:103f7400c7ff07000080fb0000000600889fbe000a
:103f84008a1f78008af620001a4178000204e000b3
:103f94002100320091028000ff3ffc0000ceb300fc
:103fa4004260b700910288000004eb00287b88007f
:103fb40002407800c2c0b3000440bc00c9f3200032
:103fc40008f17c000280e80008f07c00090141004f
:103fd400184198002dfe07001a80fb006c00b90000
:103fe4006401400008b17c006801400008b17c0015
:103ff4006600400008b07c0020002000307b880070
:1040040091028000ff3ffc00f0c1b3004260b600a3
:1040140091028800ffff3700407780000010a00065
:1040240040778800300020004f0578004f04be0020
:1040340000000600889fbe008a1f780000447800b4
:1040440080f62000904f540001003a00cbff070097
:104054001a02800092028000ff3ffc0000ceb300f1
:104064004260b700920288000840e900e14f500026
:1040740019003e0008407800c2c0b3000440bc00f0
:1040840002047800c9f3200062c07c000004e00050
:10409400110032008040eb0001f17c000280e80056
:1040a40001f07c000900410011409800f7fd070071
:1040b400640044008000eb0001b07c006800440010
:1040c40001b07c006600440001b07c001a02880044
:1040d40001007800050037001a028800407780004c
:1040e4000010a00040778800300020004f057800c1
:1040f4004f04be0000000600889fbe000041780007
:10410400814178001802800094028000ff3ffc0087
:1041140000ceb3004260b700940288000240e90078
:10412400e14f500028003e0002407800c2c0b300b6
:104134000440bc00c6f3200062407b000004e000a1
:10414400210032008283e8000600410013409800f9
:104154000304e00002003a0083737b001700370079
:1041640080f620001080fb006c00b9008004780009
:104174000081e80062407b00a2c0b3000440bc00a0
:10418400ea0041000381fb00028ab9000680440072
:10419400104190000281fb00110009000202d800c6
:1041a4008000fd0065804000a2002000110009008d
:1041b4000200d8008000fd0081737b001802880093
:1041c4000000eb00050037001802880040778000eb
:1041d4000010a00040778800300020004f04be008b
:1041e4000000060000417800010278000100e000b0
:1041f40004003a004077800000d0a0004077880097
:10420400100005001302800095028000ff3ffc00af
:1042140000ceb3004260b700950288000240e90076
:10422400e14f50000c003e0002407800c2c0b300d1
:104234000440bc00c1f3200062c078000004e00028
:10424400050032000100410010409000004a78004f
:1042540013028800000005001302880040778000e4
:104264000010a000407788003000050080407800ee
:1042740080f62000104078009fff07000080fb00bc
:1042840000000600800178000000e00004003a000d
:104294004077800000d0a00040778800100005001f
:1042a40080f620001080fb006c00b900c2f32000ef
:1042b400000141001241900082497800000005008d
:1042c40012002000630120000288be0000000500e7
:1042d4000100e00004003a004077800000d0a00014
:1042e4004077880010000500e14f50000e003200b6
:1042f40003003900e24f50001f003a001400370059
:104304000041eb0040f12000c3f320001000e00066
:10431400010032000241e80064004000830f5000b5
:104324001b003200f9ff37000041eb0080f0200051
:1043340043f120001000e000010032000241e800d7
:1043440064004000830f500011003200f9ff370071
:104354000041eb00e0ee2000a3f020001000e0009c
:10436400010032000241e80064004000830f500065
:1043740007003200f9ff37004077800000e0a0001a
:10438400407788000041eb0090c0b3000100370083
:104394000040eb00824878000080fb00000006002b
:1043a4000000e00004003a004077800000d0a00044
:1043b40040778800100005000041eb0081f42000e4
:1043c40003f620001104e000010032000241e8007d
:1043d400ec804000838f5000faff3a0002487800d6
:1043e4000000050040f120000001eb00c1f32000b3
:1043f4000008eb001200980064004000810f500098
:10440400fbff3a0080f0200041f120000008eb009f
:104414001200980064004000810f5000fbff3a0036
:10442400e0ee200082007800a2f020000008eb00fb
:1044340071b89f0064004000820f5000fbff3a00f7
:10444400a0ee20000148780041778800217b880095
:10445400c0f32000814178000101780001f62000ba
:104464000048eb0023409800134098002200980075
:1044740042009800320098006c004000810f500008
:10448400f7ff3a0080f620000248780021c0b3000c
:10449400c0f3200001487800027a880031c0b300dc
:1044a400e0f3200001487800d0f3200001487800b0
:1044b40080bf2100107a8800f03fb000207a880085
:1044c40040ce210081bf210080087800a0bf2100d8
:1044d4000208780020002000307b88000200780069
:1044e40000000600e34f50000d003e008080fb00fa
:1044f400220c2100614079000004e000080035002e
:10450400614079000000fb00821420000280b900a1
:1045140042802000624078000080fb00000006001a
:104524000080eb0000000600e34f50000d003e0049
:104534008080fb00220c2100614079000004e0002f
:1045440008003500614079000000fb00821420005f
:104554000280b900438020000041eb0082717800a2
:104564001000050000000500e34f500014003e0059
:104574008082fb00260c210065407b000004e000e3
:104584000f00350065407b000000fb008314200011
:104594000380b9000080e8004280200060027900b6
:1045a40065407b000000fb000380b900640040000c
:1045b4006000790011002000800f520001003a00d1
:1045c4008000eb000100780000000600e34f50007b
:1045d40021003e000081fb00230c210062c0790011
:1045e4000004e0001c00350062c079000000fb00fc
:1045f400851420000580b90044802000000042009a
:10460400f04090000043eb00f0c3b30080cf5000b3
:104614000600320062c079000000fb000580b9008a
:1046240000004200704090000043e800200c21008c
:10463400624078000000fb00821420000280b90070
:104644006600400042802000604079001100200094
:10465400804f530001003a008000eb000100780015
:1046640000000600889fbe00e34f50002c003e006f
:104674000084fb00290c210068c07c000004e000d9
:1046840027003500b80c0700000378009202800070
:10469400ff3ffc0000ceb3004260b70092028800e6
:1046a40068c17c000201fb00851420000591b9005b
:1046b4000281e800448020008000eb0001317a0090
:1046c40068c17c000201fb000591b900640141004e
:1046d40001317a0068c17c000201fb000591b90038
:1046e4006601410001717a0068c17c000201fb008f
:1046f4000591b9006601410004014100114198008f
:1047040068c17c000201fb000591b90001717a00c7
:1047140006007800960c0700100020000100370006
:104724000000eb004f04be0000000600889fbe009e
:104734008a1f780000447800e34f500039003e009f
:104744008084fb00200c2100694078000004e00014
:1047540034003500840c0700000578000060fe007a
:1047640092028000ff3ffc0000ceb3004260b7001d
:1047740092028800084078007bff07000004e000f4
:1047840025003200250c210069c07a000000fb00de
:10479400841420000480b9000080e80043802000d5
:1047a400e08079000041eb00e00f2000808f500092
:1047b4000600320069c07a000000fb000480b900e2
:1047c4000080e800608079000041e800240c2100aa
:1047d40069407a000000fb008282fb008314200001
:1047e4000380b9000080420068004000428020003d
:1047f4006044790069407a000000fb000380b9003e
:104804000080e800053079000a007800580c0700a1
:104814000880fb00040037000a007800540c0700ed
:10482400ceff37000080eb004f0578004f04be0038
:1048340000000600889fbe008a9fbe000005780025
:1048440081447800480c070080057800e3cf5400c9
:1048540044003e000984fb00200c210068407800dd
:104864000004e0003f0035000060fe00920280007a
:10487400ff3ffc0000ceb3004260b7009202880004
:104884000940780051ff07000004e00032003200c4
:10489400240c210068407a000000fb0083142000ef
:1048a4000380b9004280200000004100f0409000e5
:1048b4000043eb00f0c3b30080cf50000600320089
:1048c40068407a000000fb000380b900000041004a
:1048d400704090000043e800250c210068c07a0075
:1048e4000000fb000681fb00841420000480b90052
:1048f4000001410043802000028141007a419a0076
:1049040068c07a000000fb000480b9008081410087
:10491400f64198000904e00003003200e1cf54009e
:104924000a003a000500370023c2bf000008a300b4
:10493400060032008580a8000400370033c2bf009f
:104944000008a3000100320087e0a8000b007800f3
:10495400070c0700040037000b007800040c070064
:10496400c1ff37000085eb000a0078004f05be0048
:104974004f04be000000060000437800e34f5000df
:104984001d003e008082fb00270c210065c07b00d7
:104994000004e0001800350065c07b000000fb0047
:1049a400831420000380b900660040004280200088
:1049b4006042790065c07b000000fb000380b90001
:1049c4000001410072409000804f52000b003a00f9
:1049d4000604e00003003200e14f530006003a00f1
:1049e4000200370023c2bf000100370033c2bf00fa
:1049f4000008a300010032000000050010000500bb
:104a04000200fa00889fbe008a9fbe00004478001e
:104a14008104780082457800034578000000eb00ab
:104a2400b0bf9f00e34f540060003e000881fb00cc
:104a3400230c210062c079000004e00007003d005f
:104a44002180200020c0b300914f100057003c008b
:104a54001140780000f179008048e80008407800af
:104a640000ff07000001eb00910120006a8057005d
:104a74005dfc07000060fe000804e0000400320052
:104a840010002000e14f540049003a002300370091
:104a94002022ef002222ef0049118800e140650046
:104aa40020c2bf000004a1000140700020e2b70052
:104ab400e3c0650081c0400020c2bf0092cfb300b4
:104ac400024060000140700020e2b7002162a800ab
:104ad4002062a90023a2a80023e2a90021e2a800e1
:104ae4002342a8003fb897000000e0000200320013
:104af400fcff37003011800022c2bf000008a30071
:104b0400fcff3a008560a9008580a9008c20a900db
:104b14009560a8009580a800220037003022ef009d
:104b24003222ef00c9118800e140650030c2bf00a5
:104b34000004a1000140700030e2b700e3c065004a
:104b440081c0400030c2bf0092cfb3000240600079
:104b54000140700030e2b7003162a8003062a90061
:104b640033a2a80033e2a90031e2a8003342a8002e
:104b74003fb897000000e00002003200fcff37005d
:104b8400b011800032c2bf000008a300fcff3a004d
:104b940087c0a90087e0a9008c40a90097c0a8009d
:104ba40097e0a80010002000010037000000eb008f
:104bb4004f05be004f04be000080fa00000006004e
:104bc400809fbe00829fbe00849fbe00861f780027
:104bd4003400f80000002000a00188000400fa005e
:104be4008560a9008c20a90022c2bf000018a30080
:104bf40053003200200c21001000fb00821420001e
:104c04000280b9004380200060c179000204a00042
:104c140002f079002222a9004c00370030118000f4
:104c2400f0bf9f0022c2bf000038a3000900320079
:104c3400200c21001000fb00821420000280b90027
:104c44004380200060c179000214a00002f07900c2
:104c54003b00370046802000250c210022c2bf0003
:104c6400e4416000060032001500fb0082142000bd
:104c74000280b90060417b000224a0001f003700bd
:104c84001500fb00821420000280b9000080e800b7
:104c940060027b001500fb000280b9006400400044
:104ca400e0007b00e00f2000808f500002003a00fb
:104cb40003407800050037001500fb000280b900ae
:104cc4006400400060007b000040e800c0ff9f00db
:104cd400cff897000180fb00250c210046802000be
:104ce400800f520007003a001500fb0082142000d8
:104cf4000280b90060417b000234a00002707b0096
:104d04000f0037001500fb00cff897000181fb006e
:104d14007fba9700831420000380b900000141008a
:104d24006801410004717b001500fb00cff8970077
:104d34000181fb000380b9006400400002307b0065
:104d440022c2bf000008a300b4ff3a000080fa00aa
:104d54003400f9004f0378004f02be004f01be003b
:104d64004f00be0000400600809fbe00829fbe0030
:104d7400849fbe00861f78003400f80000002000e5
:104d8400a00188000400fa0087c0a9008c40a90093
:104d940032c2bf000018a30055003200300c2100bd
:104da4001000fb00821420000280b9004380200020
:104db40060c179000204a00002f079003222a90047
:104dc4004e003700b0118000f0bf9f00600020004b
:104dd400007b880032c2bf000038a3000900320003
:104de400300c21001000fb00821420000280b90066
:104df4004380200060c179000214a00002f0790011
:104e04003b00370046802000350c210032c2bf0031
:104e1400e4416000060032001500fb00821420000b
:104e24000280b90060417b000224a0001f0037000b
:104e34001500fb00821420000280b9000080e80005
:104e440060027b001500fb000280b9006400400092
:104e5400e0007b00e00f2000808f500002003a0049
:104e640003407800050037001500fb000280b900fc
:104e74006400400060007b000040e800c0ff9f0029
:104e8400cff897000180fb00350c210046802000fc
:104e9400800f520007003a001500fb008214200026
:104ea4000280b90060417b000234a00002707b00e4
:104eb4000f0037001500fb00cff897000181fb00bd
:104ec4007fba9700831420000380b90000014100d9
:104ed4006801410004717b001500fb00cff89700c6
:104ee4000181fb000380b9006400400002307b00b4
:104ef40032c2bf000008a300b2ff3a000080fa00eb
:104f04003400f9004f0378004f02be004f01be0089
:104f14004f00be0000400600809fbe00829fbe007e
:104f2400849fbe00869fbe00889fbe008a1f7800b3
:104f34003400f80000002000a00188008580a9004a
:104f440089142000488020002a0c21001e0037000c
:104f54001303fb001300fb000580b900660040004a
:104f6400e0407a00f0c3b30080cf500002003a0062
:104f740007417800050037001300fb000580b900e5
:104f84006600400060407a000041e80009b0b900c2
:104f94006600400002707c001a01fb001a00fb004e
:104fa4000980b9006600400060407c000080fb007e
:104fb4000991b900020040000000440070409200d2
:104fc4000080fb002011880023c2bf00e243600080
:104fd4000d003a00230c21001300fb00851420006f
:104fe4000580b900660040004480200060417a00da
:104ff4001300fb000580b9000000420070409000df
:10500400804f5100d2ff3a003400f9004f05780078
:105014004f04be004f03be004f02be004f01be004e
:105024004f00be0000400600809fbe00829fbe006d
:10503400849fbe00869fbe00889fbe008a1f7800a2
:105044003400f80000002000a001880087e0a900d7
:1050540089142000488020003a0c21001e003700eb
:105064001303fb001300fb000580b9006600400039
:10507400e0407a00f0c3b30080cf500002003a0051
:1050840007417800050037001300fb000580b900d4
:105094006600400060407a000041e80009b0b900b1
:1050a4006600400002707c001a01fb001a00fb003d
:1050b4000980b9006600400060407c000080fb006d
:1050c4000991b900020040000000440070409200c1
:1050d4000080fb00a011880033c2bf00e2436000df
:1050e4000d003a00330c21001300fb00851420004e
:1050f4000580b900660040004480200060417a00c9
:105104001300fb000580b9000000420070409000cd
:10511400804f5100d2ff3a003400f9004f05780067
:105124004f04be004f03be004f02be004f01be003d
:105134004f00be00004006007002200020108800ce
:1051440000202100301088000040eb0000e2b7008e
:1051540002e2b7000020290030108800100005008a
:105164000200fa000602a80006c2bf000008a3005d
:10517400fdff3a006ff897000040e800e0ff9f0051
:10518400100020000080fa00000006000200fa006f
:105194000622a800030037006ff897000040e800db
:1051a400e0ff9f0006c2bf000018a300faff3a0008
:1051b400100020000080fa00000006000200fa003f
:1051c4000642a800030037006ff897000040e8008b
:1051d400e0ff9f0006c2bf000028a300faff3a00c8
:1051e400100020000080fa00000006000200fa000f
:1051f40080407800030037006ff897000040e80013
:10520400e0ff9f0009c2bf000068a300faff3a0054
:105214000100780002e2b700030037006ff897003e
:105224000040e800e0ff9f0009c2bf000068a3003f
:10523400faff3a00100020000080fa000000060087
:105244000200fa00030037006ff897000040e800fe
:10525400e0ff9f0009c2bf000068a300faff3a0004
:10526400100020000080fa00000006000400fa008c
:105274000000eb00050037007fb897000000e8004d
:10528400f0bf9f006fb897000000e800e0bf9f00e8
:105294006fb89700e90f5000f7ff34000080fa0060
:1052a400000006000200fa0006a2a8000682a80078
:1052b400030037006ff897000040e800e0ff9f000c
:1052c40006c2bf000048a300faff3a0006a2a900e4
:1052d400100020000080fa000000060009c2bf0090
:1052e4000000fb004f00de0061001000000006001b
:1052f4000200fa0006a2a9000682a80003003700f3
:105304006ff897000040e800e0ff9f0006c2bf006e
:105314000048a300faff3a00100020000080fa00c1
:10532400000006000200fa000000eb00f0bf9f003e
:105334000662a800000000003106200003003700c8
:105344007fb897000000e800f0bf9f0008c2bf00cc
:105354000018a30003003a007fb89700810f5000a3
:10536400f7ff360030062000ffb89700808f50000a
:1053740003003e0000c2bf000080fb0007003700ae
:1053840000c2bf000080fb00f0bf9f007fb8970001
:105394000070a000f0bf9f007fb897000080fa0063
:1053a40000000600881f7800004478006cff0700a6
:1053b400aeff070080c9b3008cff0700abff0700f6
:1053c4000840780089ff0700a8ff07006fff070067
:1053d400a6ff070090c9b30084ff0700d1ff0700b0
:1053e40000047800afff070074ff07009fff070069
:1053f400080078004f04780000000600881f780039
:1054040000047800000820000200370008407800fb
:10541400e4ff07000078a300fcff3a00ff006000ef
:10542400ff0f50000300340000fe2f0000807000c6
:1054340001003700010078004f04780000000600e6
:10544400889fbe008a1f78008004eb00090578005d
:105454000004eb00c8848800b88488000009210097
:105464000835780009007800e4ff0700a10821004e
:1054740000b578004008210008357800e0072100d5
:10548400083578008904e8000a85e800e38f5400b1
:10549400efff3a00f0fe2f00910f10000f003c00c8
:1054a400608480000000e00001003d000000ea008c
:1054b400e80f500009003c007084800011000900ce
:1054c4000900d8008000fd000100e00001003d005b
:1054d4008100ea00e88f5000050034000000eb0072
:1054e400808488000080eb00208488005084880039
:1054f4004f0578004f04be000000060080017800cc
:10550400010378000060fe0000014000a7082100ac
:10551400e2827b00858f50000400340001092100e1
:10552400628078000000e80000b17800850f530025
:1055340004003d0001092100628078000000e900b8
:1055440000b1780000092100e2007800010278002f
:105554000100e00001003d000102ea00803e20005d
:10556400800f52000a0034000100e0000200340001
:105574000500e800010037000500e90000b17b00e8
:10558400038141008000eb00000921000131780013
:1055940003804100a108210060807800800053004e
:1055a400e28f510002003a006308b90080007800dd
:1055b4006e804000fc0f500001003e008000eb00b4
:1055c4000100780000000600000278000060fe0080
:1055d400800140004508210063807a00008040007b
:1055e40022002000811f7800110009000200d80069
:1055f40000017800cf00780082b17a00c084800076
:105604000000e000030032000190b9000000e00057
:1056140009003d0063004100e60f500002003e0017
:105624000000eb00030037000200e000010034003a
:105634006300510080b17a00040142004308210054
:1056440062807900800078000000e00001003d00e5
:105654008000ea00e28f5000060034000000e00001
:10566400020034003000200001003700d0ff2f007a
:1056740000b17900040042004108210060807800f4
:1056840000000600000278000060fe008001400077
:10569400e507210063807a000081400082b17a002e
:1056a400c08480000000e000030032000190b900d3
:1056b4000000e00007003d0000e22400800f5100dc
:1056c40002003c000000eb00010037000000510024
:1056d40080b17a0004014200e5072100e2807a00eb
:1056e400810178000100e00001003d008101ea0031
:1056f400f0ae2000808f5100060034000100e0006d
:10570400020034000000e8000100370000512f00bf
:1057140000b17a0004004200e107210060807800b3
:10572400000006000600fa00889fbe008a1f780069
:105734000060fe00c08480000000e800c08488008f
:10574400813e2000810f5000020034000000eb0075
:10575400c08488008004eb00090478006c8557003d
:105764000060fe000800780024ff07008000780035
:105774000800780061ff07008000780008007800c6
:1057840091ff07008000780008007800bdff070043
:10579400001d78000080b900808444000804e800fb
:1057a400e30f5400eeff3a00f0e12400808f540030
:1057b40010003600bfb897000100e00001003d0072
:1057c4008100ea004fb897000000e00001003d00ae
:1057d4000000ea000080400000004000afb89700dd
:1057e400808f500003003d0015ff070010c0b30078
:1057f400010037000040eb000080fb004f057800fb
:105804004f04be000080fa00000006004afe0700b4
:1058140053fe070095fe070080c9b30073fe07001e
:1058240092fe070070c0b30070fe070010c0b30002
:105834006efe070061fe07008cfe07005ffe070096
:105844008afe070046fe070088fe070080c9b300f1
:1058540066fe070085fe070080c0b30063fe0700f4
:1058640082fe070010c1b30060fe07007ffe070040
:1058740052fe07007dfe3700881f78000044780040
:105884006ffe070036fe070009c2bf000028a30010
:1058940019003a000840780054fe07000000e000b8
:1058a40017003a0066fe070009c2bf000028a300e3
:1058b4000a0032001000370034fe070009c2bf009e
:1058c4000028a3000c003a000840780047fe0700b7
:1058d4000000e0000a003a0059fe07000942e20015
:1058e400f5ff3d0035fe070009c2bf008000eb0054
:1058f4000028a300030032008080eb000100370081
:10590400d1ff2f00010078004f047800000006004a
:105914001000050000417800100020008000eb001a
:1059240001003700000040008100e800814f510071
:10593400fcff3e0000000600804078000004e00008
:105944001700320080ccb30080cf500007003e0027
:10595400f05e80008180fb00810f50001000310058
:105964004208dd00f05e88000d00370090ccb300e3
:1059740080cf500004003a0011c0b300c0bd200025
:1059840001487800060037000001eb00a0ccb3000a
:1059940080cf500003003a00c0bd20000048eb0057
:1059a400120020000200780000000600cbc2bf00f5
:1059b4000080fb004702de00a3db20001380fb0015
:1059c4004300de008480fb0061006000c20c210003
:1059d400808f5000090032001240e800004978002e
:1059e400e34f500006003600c320dd00134078006a
:1059f4000034a10081497000010037000049eb0028
:105a0400a1db2000114178006840610004003200ed
:105a14001144a00000be200010407800c6ff07001b
:105a240080020500804078000001eb0080ccb300c8
:105a340080cf500003003e0000be200001487800e3
:105a4400120020000200780000000600c0bd200003
:105a540011c0b30090cf100003003200f05e80004c
:105a64000000e00002003200c4e2a8000100370098
:105a7400c4e2a900f05e80000000e00003003200f0
